:020000040800F2
:100000000010002015090008575400085754000834
:100010005754000857540008575400085754000814
:100020005754000857540008575400085754000804
:1000300057540008575400085754000857540008F4
:1000400057540008575400085754000857540008E4
:1000500057540008575400085754000857540008D4
:1000600057540008E1060008A5530008575400083B
:1000700057540008575400085754000857540008B4
:1000800057540008575400085754000857540008A4
:100090005754000815110008575400085754000819
:1000A00057540008550D0008350D00085754000836
:1000B0005754000857540008575400085754000874
:1000C0005754000857540008575400085754000864
:1000D0005754000857540008575400085754000854
:1000E0005754000857540008575400085754000844
:1000F0005754000857540008575400085754000834
:100100005754000857540008575400085754000823
:100110005754000857540008575400085754000813
:100120005754000857540008575400085754000803
:1001300057540008575400085754000857540008F3
:100140005754000857540008575400085D670008CA
:1001500057540008575400085754000857540008D3
:1001600057540008575400085754000857540008C3
:10017000013800D0FCE770470348044B834202D0AB
:10018000034B03B1184770471816002018160020BB
:1001900000000000064B0749C91A891048BF013109
:1001A000491003D0044B0BB101481847704700BFFA
:1001B00018160020181600200000000010B5064C8C
:1001C000237843B9FFF7D8FF044B13B10448AFF3CA
:1001D00000800123237010BD4015002000000000A6
:1001E0000C72000808B5054B1BB105490548AFF373
:1001F0000080BDE80840FFF7CDBF00BF0000000051
:10020000081000200C720008A3F5803A704700BF68
:10021000174B002B08BF134B9D46FFF7F5FF00213E
:100220008B460F461348144A121A05F0A9FB0E4BD1
:10023000002B00D098470D4B002B00D09847002092
:10024000002104000D000D48002802D00C48AFF337
:10025000008004F0E3FA2000290005F06FF804F0B4
:10026000CBFA00BF00000800000000000000000002
:1002700000100020001000206C150020000000007D
:10028000000000008022014B1A64704700E0035018
:1002900070B514460D4640F080010948FFF7F2FFA3
:1002A00005F05EF9064E2544FF21304605F058F969
:1002B00004F8010BAC42F7D18022024B1A6470BDE6
:1002C00000000A5000D0035038B50C46074D0146D7
:1002D0002846FFF7D7FF05F043F92146284605F0E9
:1002E0003FF98022024B1A6438BD00BF00000A505B
:1002F00000D0035070B56D4E8EB005F055F805F086
:1003000054F86B49306805F0A9F901213A2001F051
:10031000C3FA002304221846072102F0C3FC654CEF
:10032000002304220121022002F0BCFC01AD0123C4
:1003300004220921022002F0B5FC0FCC0FC50434C1
:1003400006AD0FCC0FC594E80F0085E80F005A4B9F
:10035000012103934FF48073572006ACADF81C3095
:10036000059401F099FA002304220321022002F0EF
:1003700099FC022100230846012202F093FC00238D
:1003800004220121022002F08DFC01230422072116
:10039000002002F087FC494B494A4A48C3F8CC2464
:1003A0004FF00212C3F8C424A2F58032C3F8C82467
:1003B0001C2201A9C3F8B42402F03AFB81216B206E
:1003C000FFF782FF642004F009F82246012175201E
:1003D000FFF75EFF9DF81830982B49D0012000F000
:1003E00085F960B13849306805F038F904F0DCFF70
:1003F00004F0DBFF01223549306805F02FF90921AF
:100400006B20FFF761FF07216C20FFF75DFF1E20C7
:1004100003F0E4FF08211C20FFF756FF1C202246B2
:100420000121FFF735FF032000F060F968B128498A
:10043000306805F013F904F0B7FF04F0B6FF9DF83B
:1004400018202449306805F009F901211A20FFF726
:100450003BFF00211B20FFF737FFC7211920FFF7C3
:1004600033FF002000211C4BC3E900010EB070BD1A
:1004700011216A20FFF728FF01216B20FFF724FFDD
:100480001E2003F0ABFF032000F030F90028B6D0A7
:100490000F49306805F0E2F804F086FF04F085FFAC
:1004A0000E49306805F0DAF8A9E700BFF410002023
:1004B000B867000860680008A05A320000C0035006
:1004C0000200030000000A50C9670008CE67000858
:1004D000EF6700080A68000800100020F4670008B1
:1004E0002DE9F04186B005F005FF04AA05F02EFFC6
:1004F0000446A0B1012000F0F9F868B1304D31494F
:10050000286805F0ABF804F04FFF04F04EFF2246D8
:100510002D49286805F0A2F806B0BDE8F081049BDB
:100520002A4ED6E900219A1A059B63EB0103652A3E
:1005300073F10003F0D33B20062102AAFFF7A8FEC7
:100540000320BDF80840BDF80A80BDF80C5000F04B
:10055000CDF878B31A4F1E49386805F07FF804F0DB
:1005600023FF04F022FF4FF47A624FF47A6198FA85
:1005700098F313FB02F362BA12FB01F24FF47A61B3
:100580006DBA15FB01F5002BBCBF03F5FF437F33AC
:10059000002ABCBF02F5FF427F32002DBCBF05F52B
:1005A000FF457F35ED1300950A493868DB13D213F8
:1005B00005F054F8DDE90423C6E90023ACE700BFE9
:1005C000F4100020C9670008186800080010002017
:1005D000EF67000844680008064B1B681A7A022A75
:1005E00004D812B11B68044A13607047032AF9D07B
:1005F000704700BF6C1500202010002070B5264DFC
:10060000A8B012AC0FCD0FC495E80700292384E8E9
:100610000700224A0024CDE903230523CDE9054440
:100620008DF8153006238DF817304FF48023CDE96F
:1006300009440B94089319AD08AECDE90E44079414
:1006400010940FCE0FC5164B0DAE2B60154B1EAD83
:100650000D930FCE0FC52021134B14482B60144B64
:1006600012AA2393134B2694CDE92413124B19A9F4
:100670002793124B009303AB03F0A6FD044618B179
:100680009B210F4804F0F5FE00214FF4E13004F007
:10069000D4FE204628B070BDC868000800C00550D0
:1006A00024C00550020004003CC00550D8100020B2
:1006B00041150020000101008015002024100020B9
:1006C0009468000808B5FFF799FF28B1BDE8084015
:1006D000CB21024804F0CDBE08BD00BF94680008DD
:1006E000014803F02BBE00BFD81000200B4B024680
:1006F0001B7883B10A4B1B78834234BF0020012052
:10070000084B1B7833B1084B1B78134113F0010FD2
:1007100008BF002070470120F2E700BF0A16002042
:10072000091600206115002008160020012208B5D6
:10073000074B1A700022074B1A700422064B1A70DE
:100740001F22064B1A7003F08BF8054B186008BD8A
:100750000A16002061150020091600200816002046
:10076000F410002008B5044805F04BFF04F0F0FD3C
:10077000BDE8084000F008B83C6F0008014805F0EB
:1007800040BF00BF3C6F00082DE9F047534E96B0C4
:10079000354609AC0FCD0FC42B6806F11405236054
:1007A0000EAC0FCD0FC495E80F00DFF8488184E848
:1007B0000F004B4805F025FF404605F022FF4FF49F
:1007C0008073484FADF83C30474B38460B9309A92E
:1007D0000EAB0D9302F02CF904210225B6F834A0DB
:1007E0000DEB01000122ADF804A000F005FAB6F807
:1007F00036900022012102A8ADF8089000F0FCF923
:10080000368F0122042103A8ADF80C6000F0F4F942
:100810000122042104A8354CADF8105000F0ECF989
:10082000334B4FF44870C4F8C8344FF00213C4F887
:10083000C43403F58033C4F8CC341C23C4F8B43476
:1008400003F01EFE08A8ADF8205000F045FA142071
:1008500003F016FE08A8ADF8205000F00FFA232090
:1008600003F00EFE08A8ADF8205000F035FAB921CB
:10087000384604F075FE08A8ADF8205000F0FEF9E7
:10088000002205A81146ADF814A000F0B5F9002229
:1008900006A81146ADF8189000F0AEF9012200212B
:1008A00007A8ADF81C6000F0A7F90122002108A8F4
:1008B000ADF8205000F0A0F9384601F073FF002396
:1008C0004046C4F8B434C4F8C834C4F8C434C4F8D6
:1008D000CC3405F099FE16B0BDE8F087E468000856
:1008E0003C6F000800000A50E070720000C0035026
:1008F00002000100406F00080348044A0449121A2C
:10090000921004F0A9BD00BF70010008700100083A
:100910006C15002008B5154B83F30A8800F030F8F9
:10092000FFF7EAFF124B13498B4212D30020124B00
:1009300012498B4218D3FFF76BFC186850F822401D
:10094000586840F82240013298688242F5D30C334F
:10095000EAE70022F8E71C6844F8220001325C68EC
:10096000A242F8D30833E4E70022F8E700000020B1
:10097000147200082072000820720008207200081B
:100980004FF48041124B134A70B59A60D3F8882017
:10099000114D42F47002C3F88820104A05F5005446
:1009A00091664FF0FF3222660D4A62660222C3F85A
:1009B000D020BFF34F8FBFF36F8F4FF4403600202E
:1009C00002F0F0FE0020E66002F0BAFE2E6170BD7B
:1009D00000ED00E00000000800800044009000509E
:1009E000F7FF3700014B1860704700BF98150020D3
:1009F000054B1860054B1B6F03F00703032B01D158
:100A000005F0E2B9704700BFA0150020008000503B
:100A100038B504460D4601B118B94521044804F023
:100A200028FD236813B92B60256038BD1C46F8E704
:100A30001E69000810B5044618B95621044804F090
:100A400018FD206818B1036823600023036010BDFF
:100A50001E690008002307B52948019305F0D1FD60
:100A60004FF44073012204216846ADF8003000F0D5
:100A7000C3F80122234B0520C3F8442401A905F043
:100A8000BBFD002839D1204BD3F8F02042F0010201
:100A9000C3F8F020D3F8FC2042F08072C3F8FC20A9
:100AA0001A4AA3F55D431A60019B194A03F5D52341
:100AB00003F2FC43B3FBF2F3164A013B136102233A
:100AC000C2F8F0304FF48073C2F804334FF0604343
:100AD000114AC3F8B02F114AC3F8802ED3F8002E64
:100AE00042F48072C3F8002EFF2283F82020D3F84E
:100AF000002E22F48072C3F8002E03B05DF804FBD0
:100B00003C6F000800D0035000ED00E0FF03004000
:100B1000F8590D00000004E055CEACC509000100F5
:100B20004FF06043D3F8802E30B5D20715D501249D
:100B30000B4D8440D5F8FC2042F08072C5F8FC20B3
:100B4000D3F8002E2243C3F8002E53F82020002AA9
:100B5000F0D003F82010002030BD1120FCE700BFCA
:100B600000ED00E02DE9F04104460C254FF00108AE
:100B7000124E0CB314F001000BD0002024F001043D
:100B800005FB00625768002FF3D09168C0B2B847E8
:100B9000EFE72246013020284FEA520201D0D30766
:100BA000F8D508FA00F20F2824EA0204E8D9103830
:100BB00005FB0062B432E5E7BDE8F081F8100020E3
:100BC00008B50C4805F01DFD192002F0D3FD28B131
:100BD000192002F0E7FD192002F0B2FD1A2002F000
:100BE000C9FD28B11A2002F0DDFD1A2002F0A8FD8F
:100BF000002008BD3C6F00082DE9F0410E46174665
:100C0000044638B993211A4804F033FC22252846BB
:100C1000BDE8F0810F290CD8037883B1013BDBB22A
:100C2000022B06D8134A32F813306278D340DB0720
:100C300007D497210E4804F01CFC2125E7E7FF2389
:100C4000F3E70D4BD3F810532DB19B21084804F066
:100C500010FC0225DBE705F0C9FC80463A46204639
:100C6000314602F01BFB404605F0BBFCCFE700BF5E
:100C700074690008CE69000800C0035038B5044606
:100C800028B91348E42104F0F4FB222038BD03788E
:100C900083B1013BDBB2022B06D80E4A32F8133087
:100CA0006278D340DB0707D40948E82104F0E1FB70
:100CB0002120EBE7FF23F3E705F098FC05462046EB
:100CC00005F058F9284605F08CFC0020DEE700BF4F
:100CD00074690008CE69000838B5044628B913487D
:100CE000FC2104F0C6FB222038BD03788BB1013B08
:100CF000DBB2022B06D80E4A32F813306278D340AA
:100D0000DB0708D409484FF4807104F0B2FB2120BE
:100D1000EAE7FF23F2E705F069FC0546204602F00A
:100D200087FA284605F05DFC0020DDE774690008BD
:100D3000CE69000808B502F0A7FA054B00F055305F
:100D400020F05020C3F82004BDE80840FFF70ABF98
:100D500000E0035008B502F097FA054B00F0AA3006
:100D600020F0A020C3F82004BDE80840FFF7FABE39
:100D700000E003502DE9F04F9A46564B85B01B78A2
:100D800006460F461546DDF83C909DF844B0DDF868
:100D90005080002B00F09780072A00F296800E9B6F
:100DA000002B00F09280B9F1000F00F08E80129BB2
:100DB000B3F5006F00F38980012803D1109B002B4D
:100DC00000F08380444B03EB05131B7B002B7ED08C
:100DD000424C10220021684604F0D2FD04EB451479
:100DE0001022A7BB3946204604F0CAFD43F2100387
:100DF0006380BBF1000F03D1E37843F00303E3709A
:100E0000364A0E9B02EB451CCCE90193129B69010B
:100E1000581E9DF84C30C0F30A0003F003039B06F4
:100E200043EA001E53582E48012E00EA03004EEA02
:100E30000003CDF800A0535017D0B8F1000F2ED109
:100E40009CF8023068F304138CF8023027E000218C
:100E5000204604F095FD4FF444736380BBF1000F0E
:100E6000CED1E37843F03003C9E713230CF1100E21
:100E7000CCF80C309CE80F008EE80F006FF00301F7
:100E8000DCF81C20109B61F39F02012FCCF81C2082
:100E9000CCF8143003D1CCF81890CCF804300027EB
:100EA0000D4A290102EB051342F80180159A2846E4
:100EB0005A60694622469F605E7301F0BBFF384668
:100EC00005B0BDE8F08F0748FAE70748F8E707489C
:100ED000F6E700BF621500206013002060120020BA
:100EE0000F80FFF3028000F0018000F0078000F027
:100EF00038B5124B05461B78DBB1E0B105F076FB47
:100F00000F4A00231146147B54B92B6001251A01A6
:100F100001EB03131D738C5005F063FB204638BDB5
:100F20000133082B02F11002EDD105F05AFB054800
:100F3000F5E70548F3E70548F1E700BF6215002033
:100F400060130020048000F0028000F0018000F0B7
:100F500038B505F04BFB002305460B4A147B6CB9F2
:100F60000133082B02F11002F8D101F0E5FE074B26
:100F700028461C7005F035FB204603E0284605F0A6
:100F800030FB034838BD00BF60130020621500200D
:100F9000058000F00D4B10B51B78044693B107286F
:100FA00012D805F023FB0A4B03EB04131A7B2AB17A
:100FB00000241C7305F015FB204610BD05F011FB45
:100FC0000448FAE70448F8E70448F6E76215002009
:100FD00060130020068000F0028000F0018000F025
:100FE000154B13B51868002301908DF8043005F0F7
:100FF000FDFA124B1C7824B105F0F3FA104802B048
:1010000010BD01221A7005F0ECFA0E4B01A81C73FA
:101010001C7783F82C4083F83C4083F84C4083F8DD
:101020005C4083F86C4083F87C4008238DF80730DF
:1010300001F0B8FE2046E2E7D469000862150020FE
:10104000038000F060130020F8B50D4D2D7885B1B8
:10105000072810DC0B4D060105EB0014277B67B158
:10106000AB510025069BA560636001F0E3FE2846B6
:10107000F8BD0548FCE70548FAE70548F8E700BF72
:101080006215002060130020028000F0018000F053
:10109000078000F00A4A08B512785AB107280BD821
:1010A000084A02EB00131B7B43B1002101F05AFEFA
:1010B000002008BD0448FCE70448FAE70448F8E7C4
:1010C0006215002060130020028000F0018000F013
:1010D000078000F00A4A08B512785AB107280BD8E1
:1010E000084A02EB00131B7B43B1012101F03AFED9
:1010F000002008BD0448FCE70448FAE70448F8E784
:101100006215002060130020028000F0018000F0D2
:10111000078000F0184B2DE9F0411F6D5B6D1F40FB
:1011200000D5FEE701260025144CDFF85880374231
:1011300018D02368C8F85060A3B1A16828460131CF
:101140006268A1609847637B012B0BD150B90C4BAF
:1011500003EB45131A7B60F341021A731A7F60F3A5
:1011600041021A770135082D4FEA460604F11004B2
:10117000DDD1BDE8F08100BF000004506013002005
:101180006012002000200450044BD3F88420D206C3
:10119000FBD4D3F88400C0F38110704700400050A6
:1011A00038B5104B0546D3F800310C4603F0030365
:1011B000022B0BD0032B0DD0012B0FD104F01EFE00
:1011C000032305B1286004B1236038BD04F068FE34
:1011D0000923F6E704F018FE0823F2E701230020B4
:1011E000EFE700BF0080005038B5104B0546D3F83C
:1011F00040310C4603F00303022B0BD0032B0DD020
:10120000012B0FD105F0DEF90A2305B1286004B1E6
:10121000236038BD04F044FE0923F6E705F0D5F954
:101220000C23F2E701230020EFE700BF008000500D
:1012300038B5104B0546D3F860310C4603F0030374
:10124000022B0BD0032B0DD0012B0FD105F0BAF9D7
:101250000A2305B1286004B1236038BD04F020FEE4
:101260000923F6E705F0B1F90C23F2E7012300208A
:10127000EFE700BF0080005038B5104B0546D3F8AB
:1012800040320C4603F00303022B0BD0032B0DD08E
:10129000012B0FD105F096F90A2305B1286004B19E
:1012A000236038BD04F0FCFD0923F6E705F08DF955
:1012B0000C23F2E701230020EFE700BF008000507D
:1012C00038B5124B0546D3F880300C4603F00303C3
:1012D000022B0BD0032B0DD0012B0FD104F054FDAA
:1012E0000E2305B1286004B1236038BD04F090FDE1
:1012F0000723F6E704F042FD0623F2E7044841F233
:10130000142104F0B6F800231846EAE700800050E4
:10131000D869000838B51A4B0546D3F820010C46A9
:1013200000F00700062821D8DFE800F028040C149C
:1013300010181C0004F022FD052305B1286004B13B
:10134000236038BD04F05AFD0323F6E704F060FD86
:101350000723F2E704F04EFD0223EEE704F00EFD52
:101360000623EAE704F04AFD0423E6E7054841F2D4
:10137000912104F07EF800231846DEE70123DCE724
:1013800000800050D869000838B5194B0546D3F8DD
:1013900028310C4603F00703013B052B20D8DFE87A
:1013A00003F003131B0F0B1704F0E8FC052305B132
:1013B000286004B1236038BD04F0E0FC0623F6E7A2
:1013C00004F026FD0723F2E704F018FD0323EEE7FF
:1013D00004F014FD0423EAE704F00CFD0223E6E721
:1013E000044841F2990104F044F800231846DEE76E
:1013F00000800050D8690008002337B50193194BCD
:101400000546D3F820320C4603F00703042B1FD8FF
:10141000DFE803F025030F141900002101A8FFF7EE
:10142000B3FF12230DB1019A2A6004B1236003B007
:1014300030BD04F0EDFC07230190F3E705F0C2F89E
:101440000A230190EEE704F02BFD09230190E9E760
:1014500041F25601044804F00CF80023E2E70123AE
:10146000E0E700BF00800050D8690008F7B500270A
:10147000144B0197D3F88041064604F00304022C74
:101480000D4614D0032C0DD0012C14D1394601A8DF
:10149000FFF740FF10240EB1019B336005B12C60B3
:1014A00003B0F0BD04F0B4FC07240190F3E704F0AE
:1014B000A1FC0190EFE741F2E631034803F0D9FFC8
:1014C0003C46E8E700800050D869000838B5164B64
:1014D0000546D3F800020C4600F00700042819D88E
:1014E000DFE800F020030B0F130005F06BF80A2370
:1014F00005B1286004B1236038BD04F0D1FC092394
:10150000F6E705F062F80C23F2E704F05DFC0F2328
:10151000800AEDE7054841F2A44103F0AAFF002349
:101520001846E5E70123E3E700800050D86900088A
:1015300038B5164B0546D3F808020C4600F00700F4
:10154000042819D8DFE800F020030B0F130005F082
:1015500039F80A2305B1286004B1236038BD04F0CE
:101560009FFC0923F6E705F030F80C23F2E704F0BE
:101570002BFC0F23800AEDE7054841F2DC4103F024
:1015800078FF00231846E5E70123E3E700800050D9
:10159000D8690008002337B50193184B0546D3F8E6
:1015A00060320C4603F00703013B032B1FD8DFE832
:1015B00003F0020E1914002101A8FFF7ABFE10235F
:1015C0000DB1019A2A6004B1236003B030BD00213F
:1015D00001A8FFF709FE1123F2E704F019FC072325
:1015E0000190EDE704F006FC02230190E8E741F2E8
:1015F000FD01034803F03DFF0023E1E700800050B8
:10160000D8690008002337B50193184B0546D3F875
:1016100094320C4603F00703013B032B1FD8DFE88D
:1016200003F0020E1914002101A8FFF773FE102326
:101630000DB1019A2A6004B1236003B030BD0021CE
:1016400001A8FFF7D1FD1123F2E704F0E1FB072326
:101650000190EDE704F0CEFB02230190E8E741F2B0
:101660003011034803F005FF0023E1E7008000503C
:10167000D869000873B500240F4B0194D3F8703279
:10168000064603F00303012B0D4607D0022B11D0B1
:1016900041F25B11094803F0ECFE04E0214601A889
:1016A000FFF7A2FD11240EB1019B336005B12C6040
:1016B00002B070BD1524F6E700800050D86900081C
:1016C00008B5334B98424FD027D8324B984245D07B
:1016D00017D8314B98423ED00AD838B12F4B984298
:1016E00039D041F2BB312E4803F0C3FE002034E074
:1016F0002C4B98422FD02C4B9842F2D12B4B586E4A
:101700002BE02B4B98422CD003F5371303F5D8630D
:101710009842E6D1254B986F1FE0264B98422FD078
:101720000CD8254B984223D0244B984224D0244BEC
:101730009842D6D11D4BD3F884000EE0214B98423D
:1017400022D003F5740303F510539842C9D1174B07
:10175000D3F8980001E0154B986D08BD134B186F36
:10176000FBE7124B586FF8E7104BD3F88000F4E713
:101770000E4BD3F88800F0E70C4BD3F88C00ECE765
:101780000A4BD3F89000E8E7084BD3F89400E4E75D
:1017900080BA8C01405DC60080841E0040420F006C
:1017A000D869000800093D00C0CF6A000080E00F42
:1017B0000024F400007E560380D54302006CDC0256
:1017C0000048E8010090D003B0F5207F10B52ED07E
:1017D00009D8B0F5007F24D003D868B1B0F5C07F38
:1017E0000AD000241BE0B0F5607FFAD1124BD3F889
:1017F0008040C4F3011412E00F4B1C6F230B13F055
:101800000E0FC4F303340AD0072C08D00F2C06D0D7
:10181000032C04D04FF42271084803F02AFE601C08
:1018200010BD054BD3F89040C4F30464F7E7024BB6
:101830001C6FC4F38024F2E700800050D8690008D0
:101840004FF4803238B5104B04469A6600200D469E
:10185000FFF7BAFF41F671320C4B6043DC69DA6383
:101860005A6804F4803422F440125DB90849884271
:1018700094BF00200120000502435A600CB10022F1
:10188000DA6338BD0349F2E70090005000000350CE
:10189000005A6202002D310138B5430904460D4655
:1018A0000ED140F235310D4803F0E3FD002304F082
:1018B0001F0485B103F580530122A2401A6038BD90
:1018C000012B04D0022B04D040F24331EBE7044B50
:1018D000EDE7044BEBE703F50053EDE7D8690008AB
:1018E0006480005068800050002130B5B0F5807FE2
:1018F00085B00446CDE9001100F0D3803DD85E28C4
:1019000033D85E2833D8DFE800F048323232323242
:1019100032323232323232323232323232323232A7
:101920003232323232323232323248AD48ADBDBD5F
:10193000BDBDBDADC7516EDD51ADADAD3232323240
:1019400032323232ADADAD81E7AD32323232323287
:1019500032323232323232BD484848E25151EC9094
:1019600066C2323232323298480080286AD040F261
:10197000A441604803F07DFD67E0B0F5D06F00F052
:10198000A18035D8B0F5607F77D01AD8B0F5007F48
:101990005ED005D8B0F5C07FE9D104F015FA53E068
:1019A000B0F5207F5ED0B0F5407FE0D104F00CFAB6
:1019B00004464FF42070FFF707FFB4FBF0F464080F
:1019C00059E0B0F5B06F67D00AD8B0F5806F59D044
:1019D000B0F5A06FCBD100216846FFF70DFD34E0D4
:1019E000B0F5C06FC3D100216846FFF7FDFB2CE0C6
:1019F000B0F5106F6BD00ED8B0F5086F76D0B6D8B2
:101A0000B0F5E06F68D0B0F5F06FB0D10021684656
:101A1000FFF70EFC19E0B0F5406F38D00AD8B0F5EA
:101A2000206F5ED0B0F5286FA1D100216846FFF786
:101A300021FE0AE0B0F5486F99D100216846FFF712
:101A4000E1FD02E004F0A0F90090009805B030BD7F
:101A500004F09AF905462046FFF7B6FEB5FBF0F50F
:101A60000095F2E704F0B0F904464FF42070FFF758
:101A7000ABFEB4FBF0F40094E7E701A8FFF720FC0D
:101A8000019DE8E700216846FFF744FCDDE70021FF
:101A90006846FFF779FCD8E700216846FFF7E6FCC7
:101AA000D3E74FF0E02302911B695B0705D504F0F3
:101AB0008BF90290029B0093C7E703A902A8FFF7E6
:101AC00093FBF7E700216846FFF700FDBDE7002123
:101AD0006846FFF72DFDB8E700216846FFF7CCFB0D
:101AE000B3E700216846FFF755FDAEE76846FFF70C
:101AF00057FBAAE7D869000808B58020FFF7F4FE75
:101B0000034B98429EBF4FF48032024B1A6708BDC8
:101B1000005A620200A000501FB503460020B3F532
:101B2000807F019000F0C58063D85D2B54D84C2B8A
:101B300006D82D2B46D8232B2AD840F28951A7E06E
:101B40004D3B102BF9D801A252F823F0A91C000834
:101B50003B1B00083B1B00083B1B0008531C0008F4
:101B60003B1B00083B1B0008031D0008711C0008FC
:101B7000171C0008F91C00083B1B00083B1B000851
:101B80003B1B00083B1B00083B1B00080D1D000809
:101B9000243B092BD1D801A252F823F0A91C00083C
:101BA000A91C0008A91C0008A91C0008A91C000801
:101BB0003B1B0008991C00083B1B0008331C000855
:101BC000DF1C00083D2B00F085803E2BB5D10020A6
:101BD00001A9FFF751FB63E0802BAED14E4B1B6F89
:101BE00003F00703013B032B50D8DFE803F04D4619
:101BF000494BB3F5F06F6DD020D8B3F5B06F4BD033
:101C00000ED8B3F5607F73D097D3B3F5806F4BD008
:101C1000B3F5A06F91D1002001A9FFF7EDFB3FE0E4
:101C2000B3F5D06F5BD0B3F5E06FD0D0B3F5C06F34
:101C300083D1002001A9FFF7D7FA31E0B3F5206F77
:101C40005FD00BD8B3F5086F4ED0B3F5106F7FF4AB
:101C500074AF002001A9FFF76BFC21E0B3F5406FE2
:101C60004AD0B3F5486F51D0B3F5286F7FF465AF14
:101C7000002001A9FFF7FEFC12E0052301930FE00D
:101C80000323FBE70823F9E70223F7E740F2D641F5
:101C9000224803F0EEFB03E0002001A9FFF7E6FB7A
:101CA000019805B05DF804FB002001A9FFF732FBA5
:101CB000F6E74FF0E02302901B695B0705D504F0BF
:101CC00083F80D230393039BD8E703A902A8FFF72A
:101CD0008BFAF8E7002001A9FFF7AAFAE0E7002055
:101CE00001A9FFF7F3FBDBE701A9FFF759FAD7E7F3
:101CF00001A9FFF7E5FAD3E7002001A9FFF744FBAC
:101D0000CEE7002001A9FFF745FCC9E7002001A9A3
:101D1000FFF778FCC4E700BF00800050D8690008D6
:101D20004FF48032074B0849586E03F580535A66CA
:101D30004B6A23F001034B62C3035CBF034B5A663B
:101D4000704700BF0080005000C0075000A0005046
:101D500038B5036804460F2B04D940F68A317C4815
:101D600003F087FB63680F2B04D940F68D31784868
:101D700003F07FFBA3680F2B04D94FF4396174483B
:101D800003F077FB237B0F2B04D940F69331704887
:101D900003F06FFB637B0F2B04D940F696316C4840
:101DA00003F067FBA37B3F2B04D940F699316848C9
:101DB00003F05FFBE37B3F2B04D940F69C31644882
:101DC00003F057FB2369032B04D940F69F31604889
:101DD00003F04FFB6369032B04D940F6A2315C4842
:101DE00003F047FBE369032B04D940F6A5315848BB
:101DF00003F03FFB8020FFF78FFE032800F0838075
:101E00004FF48012534B4FF0A0615A6645F60E0214
:101E1000514BC3F88020514A91624FF4803102F552
:101E2000805291629A6DD203FCD4996D11F0804179
:101E3000FBD1D4E90002120542EA0062E07B0243D2
:101E4000207B42EA0042607B42EA0032A07B42EA09
:101E500080121A619869D4E90452120642EA856236
:101E600000F000400243A07EE57E0243207E42EA6D
:101E70000042607E42EA00229A611A6AE06922F01A
:101E80000F0242EA8502364D00283DD11A6294F8CD
:101E90002420996A94F82000D200294042EA401296
:101EA0000A4394F8211042EA011242F480329A6205
:101EB0002C49294A936D31EA0303FBD14FF080711D
:101EC000264881621369A56823F4700343EA055329
:101ED00013614FF00043836194F822300BB9224B19
:101EE000996294F823303BB94FF480321E4B9A62CA
:101EF000194A936D5B00FCD494F825301BB1164B46
:101F00001A4AC3F8802038BD024342F00802022872
:101F10001A6208D119614FF40852996114484FF4BC
:101F20007F4103F0DBFA0C4994F822308A6A94F876
:101F300020001B062A4043EA4013134394F8242050
:101F400043EAC20394F8232043EA02438B62D3E7B7
:101F5000D8690008009000500040005A0050005A14
:101F6000C7FFFEFE030001000060005AF1A7FFFF5B
:101F70003440005A014B93F9000070470B160020C3
:101F8000436810B5072B044604D940F6E6512A48A9
:101F900003F06FFAA368032B04D940F6E8512648F2
:101FA00003F067FA2378032B04D940F6EA5122485C
:101FB00003F05FFA94F90130002B04DA40F6EC519B
:101FC0001D4803F056FA4FF400011C4A637851662D
:101FD0004FF4D151022002F5B832516218494F2B0B
:101FE00048604FF0010028BF4F2301F58051486041
:101FF0001169C903FCD4217843EA01235361D4E970
:1020000001131B0143EA0123617B0B43217B43EA5C
:1020100041039360E37BA17B1B0143EA4113617C95
:102020000B43217C43EA41035360A37C13B16FF45B
:10203000D153536210BD00BFD86900080090005012
:1020400000100250014B1880704700BF0616002098
:10205000014B1880704700BF041600204FF4800227
:1020600008B5184B5A660223174A5360936813F455
:102070008033FBD1012822D103F0C0FE134B9842DC
:1020800015D003F5122303F5F863984213D0104BD3
:1020900000EB8002400AB3FBF0F3520A0A49CA621D
:1020A0000B6301234B620022074B5A6008BD45F6C3
:1020B0007A13084AF2E745F61A03074AEEE7536235
:1020C000F1E700BF009000500040025000F04902CC
:1020D00064666666D8B80500BBCF0500B0F5207F02
:1020E00038B577D00ED8B0F5007F61D003D890B363
:1020F000B0F5C07F2FD04FF44671BDE838403D4861
:1021000003F0B7B9B0F5607FF5D13B4A4C1ED2F869
:10211000FC5015F080751EBFD2F8FC3023F08073A0
:10212000C2F8FC30032C04D940F2F721314803F007
:10213000A0F9324AD2F8803023F0300343EA041386
:10214000C2F8803035B12C4AD2F8FC3043F08073AD
:10215000C2F8FC3038BD4C1E012C0AD9102903D816
:10216000274BCB40DB0704D440F2CB21214803F0BE
:1021700080F903F0C2F903F0CEF94FF48031214B1E
:102180001E4A1967136F23F4704343EA043313673D
:1021900003F01AFE0446FEF7F7FFC0F102012046E5
:1021A00003F0B3F900F048F8BDE83840FFF7A4BCED
:1021B0004C1E1F2C04D94FF443710E4803F059F9FB
:1021C0000E4AD2F8903023F0F85343EA0463C2F881
:1021D0009030BFE74C1E012C04D940F21231054863
:1021E00003F047F9054A136F23F4806343EA84231D
:1021F0001367AFE7D869000800ED00E000800050E9
:10220000100101000090005008B50121022000F0EB
:1022100099F94FF42070FFF7D7FA054B187003F0C7
:102220006CF903F078F94FF48032024B1A6708BD5D
:10223000631500200090005008B54FF4C070FFF700
:1022400053FBBDE808400449884294BF01210221A4
:102250004FF42070FFF742BF80F0FA0238B5044611
:1022600003F0B2FD0546FEF78FFFC0F102012846DC
:1022700003F04BF90121002000F0B8F92CB1FFF771
:10228000DBFFBDE83840FFF737BC034B4FF420704D
:102290001978FFF723FFF4E7631500202DE9F041DB
:1022A0000546FFF70DFA431E0333044604D940F6F2
:1022B000E2113B4803F0DDF84FF4C022394B5A6677
:1022C00003F598335A68012A04D137494A605A689D
:1022D0009207FCD48020FFF71FFC052807D103F0EC
:1022E0000CF903F018F94FF480322E4B1A672F4B7C
:1022F00024F040749D4239D02D4B9D4239D003F0DB
:102300003DFD8542064603D90121284600F06EF9BD
:10231000284FFB6813F0060FFBD1D7F80880BC608C
:10232000BB68634013F4F81F26D12846FEF75AFB1A
:102330008020FFF7F1FB052814D103F045FDA842EA
:10234000044604D940F63B21154803F092F8FEF705
:102350001BFFC0F10201204603F0D7F8FFF76CFF26
:10236000FFF7CAFBAE4213D2BDE8F08144F000741F
:10237000C5E744F08074C2E740F62A21084803F01C
:1023800078F88020C7F80880FFF7C6FB052805D03D
:10239000BDE8F0410121002000F028B93546CCE726
:1023A000D86900080090005000E0015040420F0042
:1023B00080841E00000001504E4B70B598420546C7
:1023C00073D041D8A3F5B703A3F55863984265D0FD
:1023D00033D8494B494E984251D017D8002877D06E
:1023E00041F2DE11464803F044F840F68671444855
:1023F00003F03FF84FF40022404B5A663E4B9D429B
:1024000076D000243F4A954236D05DE03D4B98425D
:1024100027D03D4B9842E3D13C4BD3F8A040621EFD
:10242000033224F040744CD940F68671344803F0EE
:1024300020F84FF400237366E4E7354B9842CFD180
:10244000324BD3F8BC402CE0324B984231D0324B67
:10245000984232D0314B9842C2D12C4BD3F8C8406D
:102460001FE02A4BD3F8A040621E033224F04074D0
:10247000DAD84FF40023736644F0807424E0234BD1
:10248000D3F8A040621E033224F040742AD84FF4DF
:1024900000237366234643F0007415E01B4BD3F80A
:1024A000B840621E154E0332BBE7184BD3F8C0404C
:1024B000F7E7164BD3F8CC40F3E7144BD3F8D040F2
:1024C000EFE74FF4002373664FF0B442946070BDA1
:1024D00040F686710A4802F0CCFF4FF400232C46E8
:1024E0007366F1E740F68671054802F0C2FFCEE759
:1024F0000023D0E7C0EA210140420F0000900050C5
:10250000D869000880841E0000093D000080E00FAB
:102510000024F4000048E801005A620280BA8C01ED
:10252000024A536B0342FCD1704700BF0040095080
:10253000034A0179D36E23F030030B43D36670470F
:1025400000400050F8B50446244BD3F88420D00650
:10255000FBD4D3F88430C3F381139C423CD003F006
:1025600013FC012C05460BD11D4B984204D940F2B7
:102570009B711C4802F07DFF0121284602F0C5FF37
:1025800004F02BF84FF00072174B07465A662046AE
:1025900002F0C6FF4FF48063104E621E9340336713
:1025A000736E9A0103D4D6F884309B060AD5384658
:1025B00004F00EF8022C0FD12846BDE8F8400021A7
:1025C00002F0A3BFD6F884309906E9D540F2B37182
:1025D000044802F04EFFE3E7F8BD00BF00400050A2
:1025E000005A62022B6A00080060005010B50C46C9
:1025F00008B903F0C9FB074B21461B783BB1064BDA
:10260000984204D80120BDE81040FFF79BBF02208C
:10261000F9E700BF64150020005A62024FF0004243
:1026200038B5244B244C5A664AF6CD33656C0146C6
:1026300005F00105236428BB0120FFF771FF6368E3
:10264000DB0715D51D4B586008461D4B226BD20782
:102650000CD4984208D1072415B1174B194A1A64B3
:1026600002F05FFF204638BD0130EFE79842F2D01C
:102670000024F1E70132236B13F0080305D08A42EE
:10268000F8D1E8E700220E49F5E78A42E3D020219D
:102690000A4A91620121A2F5805251600649084A16
:1026A000886A800603D49342D5D00133F8E7934279
:1026B000DDE700BF00900050004009500060095065
:1026C00040420F003254FFFF4FF0004238B5164B26
:1026D00001465A664AF6CD33144C154A656C23649C
:1026E00043780B205B0043F00103D363FFF718FF2F
:1026F00063688A7823F4F87343EA02136360CA7844
:102700004B7943EA0223A3600A798B7943EA0223D7
:1027100023610878FFF782FFEB0744BF054B236472
:1027200002F0FFFE012038BD00900050004009502B
:10273000004000503254FFFF0F2870B5044605D901
:1027400040F67461124802F094FE0F244FF00042EC
:10275000104B11495D6E03F580535A664AF6CD332E
:102760004E6C80200B64FFF7DBFE0B6A23F00F0337
:1027700023430B62F30744BF084B0B64002DA2BF39
:102780004FF00042064B5A6602F0CBFE70BD00BF10
:102790002B6A000800800050004009503254FFFFAF
:1027A00000A0005010B502F0C1FE042300F58051D6
:1027B00000F500520B6113610B6113610B61136132
:1027C0000B611361202341F2020103610023C36006
:1027D000836041614FF4A0218361836541620549B3
:1027E000C36103628362C36243630365D1640363AD
:1027F00010BD00BFFF3F0D0338B5174B044698428C
:102800000D4607D0154B984204D040F26911144888
:1028100002F02FFE25B92046BDE8384002F086BE02
:10282000012204F580535A6040F6FF71204605F0FE
:102830000F0202F077FEA263782102F073FE05F02A
:1028400001036A0748BF43F00203A26C02F00302CF
:102850009A42FAD138BD00BF0000015B00000A5067
:102860007E6A0008F8B505460C46164622B940F2C5
:1028700027216B4802F0FDFD6A4B9D4202D19CB9B5
:1028800056240DE0684B9D4247D040F22A2164480F
:1028900002F0EFFD44B940F27931614802F0E9FD00
:1028A0002046FFF721F80446AB68D80745D5B44267
:1028B00004D24FF40D715A4802F0DBFDB4FBF6F47C
:1028C0006F68013CFF2C07F0010704D94FF40F712A
:1028D000534802F0CEFD24064FB32821284602F0CB
:1028E00021FEAB6C99071CD1AB6CDA071BD4AE6C24
:1028F00016F0020619D140F24921494802F0B9FD0B
:10290000284602F013FE2B69314623F07F43234310
:102910002B61BDE8F840FFF76FBF002CC4D15724EE
:10292000BEE70526ECE70926EAE70626E8E72B6975
:1029300023F07F4323432B61F8BD6B68012B04D048
:102940004FF41771364802F094FDAB6DDB07AB68AE
:1029500048BF760003F0E003402B42D009D893B182
:10296000202B1AD040F29E21BDE8F8402C4802F0FE
:1029700080BD602B42D0802BF4D106EB4603A342EE
:1029800047D801230DE0B6EB141F04D94FF4217191
:10299000234802F06EFD102303E0B6EBD40F1AD8E3
:1029A000082373436401B4FBF3F4204F203CB7EBDE
:1029B000C40F4FEAC40604D240F2A921184802F01D
:1029C00058FD28463E40012102F0ACFD2E63BDE8D3
:1029D000F84002F0A7BD40F28921114802F049FDFC
:1029E000DEE70623B4FBF3F3B34201D30623D8E7B3
:1029F00040F28E210A4802F03CFDF7E7B6EB940F57
:102A000001D80423CDE740F29321054802F031FDBF
:102A1000F7E74FF42671024802F02BFDB1E700BF43
:102A20007E6A00080000015B00000A50F8FF7F008A
:102A3000F8B5774B044698420E4606D0754B98423F
:102A400003D0E221744802F014FD1EB9E42172485B
:102A500002F00FFD727BB3687AB1704A934203D9DA
:102A6000E6216D4802F005FD3369C3B1DB7BB3B1EC
:102A7000E921694802F0FDFC11E0694A934203D95B
:102A8000EC21654802F0F5FC336943B11A7F32B19D
:102A9000B168644A5B7F914278D9042B78D8636827
:102AA000356923B140F6FF71204602F03BFD204618
:102AB000FFF778FE2269737BB17B22F087020B431C
:102AC000134343F080032361002D63D02369297FE2
:102AD00023F0F80343EAC1132978EA7B0B432979F1
:102AE00043EA4113697A43EA011343EA82132361FB
:102AF000E068D5E9053720F0F0403B4320F4702032
:102B00000343287B697B43EA802343EAC133E360C4
:102B1000A368F07B23F00303034343F00103A360A6
:102B20006B88A06803F4C0430343A360A36868797B
:102B300043EA8023A360AB79EF79606A1B013F020F
:102B400003F0700307F4E06720F4772020F4EE60D0
:102B50003B430343287A000300F4E0400343687FCB
:102B6000000400F47020034363626369307B23F048
:102B70000F03034363616B89A36141BBC2B1244B63
:102B80009C422ED0234B9C423CD011E0042B86D893
:102B9000F3216EE7A368F27B23F00303134343F0B2
:102BA0000103A3606369327B23F00F031343636166
:102BB0002046D6E90112FFF755FE20463178FFF78F
:102BC0001BFEA36CDB4313F4405FFAD1F8BD104B3E
:102BD0009C420CD1AB7B144903F00F034B67002AD6
:102BE000E6D02B7C104A03F00F031367E0E7094B94
:102BF0009C42DDD1AB7B0C4903F00F03C1F8803060
:102C0000002AD5D02B7C084A03F00F03D367CFE707
:102C10000000015B00000A507E6A0008002D3101AF
:102C2000809698003F4B4C0000900350032838B525
:102C300004460D4605D8094B33F81030CB40DB076E
:102C400004D440F28541064802F013FC30230122EF
:102C50005C43044BAA401A5138BD00BF7E6B00088C
:102C6000D46A000840D00350032838B504460D4606
:102C700005D8094B33F81030CB40DB0704D440F2C1
:102C80005641064802F0F5FB302301225C43044B19
:102C9000AA401A5138BD00BF7E6B0008D46A0008F4
:102CA00040E0035003282DE9F04104460D46174645
:102CB000984605D81D4B33F81030CB40DB0704D4C1
:102CC0004FF4B0711A4802F0D4FB37B129462046C0
:102CD000B8F1000F20D0FFF7A9FF0F21072D04EB5B
:102CE000440688BFA5F108034FEA0616114895BFB0
:102CF000AB009B0004360C3607FA03F299403044CF
:102D000002F038FC7FB929462046B8F1000F06D002
:102D1000BDE8F041FFF78ABFFFF7A6FFDDE7BDE89A
:102D2000F041FFF7A1BFBDE8F08100BF7E6B000856
:102D3000296B000830C0035010B5152000F0E2FCEC
:102D40000024FF22064B21465C6520209A625C60CD
:102D5000FEF7A2FD2146BDE810402120FEF79CBDF4
:102D600000000450072838B504460D4603DD7721DE
:102D7000084802F07EFB1F2C03D99121064802F07F
:102D800078FB064A064B002D08BF13460122A240DD
:102D90001A6038BD866B0008DA6B000840100450DA
:102DA0004020045010B5044618B991211F4802F084
:102DB00060FB23781B0613F0604F03D092211B4861
:102DC00002F057FBE3780F2B03D99521174802F047
:102DD00050FB01212020FEF75FFD01212120FEF79D
:102DE0005BFD0122124B15205A60227812069A6070
:102DF0006178A27842EA01429A61FF229A62002237
:102E00009A631A644FF000425A654FF0FF3203F59F
:102E100000531A6500F0C6FC1520E17800F0D0FCE4
:102E2000BDE81040152000F08BBC00BF866B000889
:102E300000000450F8B50126C3B2072805460C4629
:102E4000174606FA03F603DDDE21344802F011FBD3
:102E50001CB9DF21314802F00CFB236823F47C13FA
:102E600023F00F031BB1E2212C4802F002FBA37AEE
:102E70001B0413F47C0F03D0E721284802F0F9FA71
:102E8000E37A1B0513F07E6F03D0E921234802F09B
:102E9000F0FA237B5B0513F0FE5F03D0EB211F48A4
:102EA00002F0E7FA1E4B27F003071E65AB0022680D
:102EB00003F1A04303F588235A60302202FB05F09A
:102EC000637B00F1A04000F580200366E37AA27ADC
:102ED0001B0543EA0243227B43EA4253C36507676B
:102EE00003F084FB0F4B227A5E6502B11E64627AA6
:102EF00002B19E632279A37943EA0243084A9361AF
:102F00006179E37943EA014306498B61064B5663D5
:102F10009E64BDE8F84003F064BB00BF866B000808
:102F200000200450001004500000045010B501248B
:102F3000C3B2072804FA03F404DD40F27B1107480A
:102F400002F097FA03F052FB054B5A6D22EA040295
:102F50005A659C62BDE8104003F043BB866B0008D5
:102F60000000045010B50124C3B2072804FA03F48A
:102F700004DD40F299110A4802F07BFA03F036FBB7
:102F8000084BDA6A224208D15B6B9C430CBF0124D8
:102F9000002403F026FB204610BD0024F9E700BF03
:102FA000866B00080000045070B50125C3B20728E5
:102FB000044605FA03F504DD4FF4E071094802F018
:102FC00058FA03F013FB3022074B5E6B02FB04330D
:102FD0005C6E03F006FB35420ABFC4F30A10002002
:102FE000013070BD866B000800000450F8B507463C
:102FF0000C461E4615464AB940F25511314802F0BA
:1030000038FA24B1402E09D1062328E021B94FF423
:103010002070FEF769FC0446402E42D0402E09D8AD
:103020007EB1202E17D04FF4CE71BDE8F840254870
:1030300002F01FBA602EF6D1B5EB940F3CD80423F2
:103040000DE0B5EB141F04D940F287111D4802F0C2
:1030500010FA102303E0B5EBD40F1CD808235D430E
:103060006B0803EB4413B3FBF5F3174D203BB5EBB3
:10307000C30F4FEAC30404D240F2B311114802F067
:10308000F8F9602207F500539A602C4007F5805349
:103090009E60FC61F8BD4FF4C6710A4802F0E9F980
:1030A000DCE70623B4FBF3F3AB42ADD240F291115F
:1030B000044802F0DEF9A7E74FF4CB71014802F0B3
:1030C000D8F9BCE72E6C0008F8FF7F0038B50C4B30
:1030D000044698420D4604D04FF43971094802F075
:1030E000C8F9012204F580535A60EB43934003F082
:1030F0000A036361656115B904F50054626038BD67
:1031000000C005502E6C0008124B10B598420446C2
:1031100004D040F25E41104802F0ABF9012104F501
:103120008053596040F6AA6341F2050263610023AF
:103130000A48A360E365E26004F500522361E3619D
:10314000E36490640348A365844204BF2365636518
:10315000516010BD00C005502E6C0008FFFF01003B
:103160002F4B70B5984204460D4604D040F21531FD
:103170002C4802F07EF92046FFF7C6FF012304F534
:1031800080567360AB7C1BB1A36843F08043A3609F
:10319000EB7C4BB1224B9C4202BF2A7DA3F510333E
:1031A000C3F8C8218023F3652A8A6B7B204613432A
:1031B000EA891343E3602B7BD5E90112FFF716FF81
:1031C0006B7D1BB1A36843F48033A360AB7D1BB15F
:1031D000A36843F40043A360EB7D2A7E1B0712051E
:1031E00002F4E00203F0E0431343A3656B7E9A1EF2
:1031F000012A4FF0020209D80B49032BC1F82027FE
:1032000009D10423F3652B78636170BD0749012B55
:10321000C1F82027F4E7042204F50053DA65F2E749
:1032200000C005502E6C000800D0035000E0035091
:1032300010B5044620B940F23A21104802F019F9BD
:103240002378C3B1013BDBB2022B06D80C4A32F81B
:1032500013306278D340DB0704D440F23D210748A5
:1032600002F007F90122637821789A40302359430C
:10327000044B5A5010BDFF23EBE700BF836C0008DE
:103280003E6D000840E00350034BD3F82424D3F8EC
:1032900020041040704700BF00C003502DE9F041EA
:1032A000037804460D46164613B3013BDBB2022BEE
:1032B00006D82A4A32F813306278D340DB0703D4A9
:1032C0005D21274802F0D5F8264BD3F810331BB107
:1032D0006021234802F0CDF80F2D0BD8DFE805F070
:1032E00036313131313131313131313131313131C9
:1032F000FF23E1E7B4211A4802F0BBF84FF00008C1
:10330000204606B302F036FE0F2167782378072F98
:1033100003EB430388BF083F4FEA0313124895BFEE
:10332000BF00BF0004330C3308FA07F2B940184459
:1033300002F034F985B9204656B1BDE8F04102F0FB
:1033400019BEA846DCE7FFF773FFDDE7A846DBE719
:10335000BDE8F041FFF76CBFBDE8F0813E6D0008AD
:10336000E16C000800C0035030C00350054B9A6860
:103370009107FCD45A689207F9D4DA69002AF6D189
:10338000704700BF00800A5010B5074C6368DB0728
:1033900004D44FF49F71054802F06BF802F016FE5A
:1033A0000223236110BD00BF00800A50446D000855
:1033B00008B5FFF7DBFF0122024B03F580514A609D
:1033C0001A6108BD00800A50044B10B55C68012CDE
:1033D00003D1FFF7D9FF024B5C6010BD00800A509B
:1033E00000A00A5038B5074DFFF7C0FF6B680446D0
:1033F000012B03D1FFF7E8FFFFF7B8FF2378EB605D
:1034000038BD00BF00800A5038B505460C4602F0B2
:10341000E7FDBDB96268237812B1127843EAC203AE
:10342000627843EA4203A26812B1127843EA821337
:10343000E27843EA8203226912B1127843EA422316
:10344000014A936438BD00BF00800A5030B58D48F2
:103450008BB003F0D6F820B14FF44E718A4802F0D9
:1034600008F86C46894D0FCD0FC42B68884A23603D
:10347000FF238DF80130D2F84C3113F4802340F053
:10348000F580D2F850218DF801309DF801306C465E
:10349000FF2B08BF3F2368467E4D8DF80130FEF7B5
:1034A0006FFD3220FEF7CEFD0FCD0FC40FCD0FC440
:1034B00095E8030084E80300754BD3F84C21120310
:1034C00040F1B880A3F5FE431C88B4F5807F28BF87
:1034D0008C248DF81940FEF74DFD044484F3080454
:1034E0006D488DF81840FDF783FA6846FEF730FC0A
:1034F0003220FEF7ADFD6948FEF7D0FE6848FEF7C2
:103500005BFF684803F07DF820B140F2CB115E48C4
:1035100001F0AFFF644C0020FEF7A0FDFEF774FE43
:10352000236F002023F0070343F003032367FEF714
:1035300095FE236F5D4923F4744323675C4BD3F8F6
:10354000FC2012F0807279D1D4F8803023F003038C
:1035500043F00103C4F88030C1F88020524CD4F805
:10356000203123F0070343F00203C4F82031D4F8DC
:10357000283123F0070343F00203C4F82831D4F8BC
:10358000803123F0030343F00103C4F88031D4F801
:10359000403123F0030343F00203C4F84031D4F870
:1035A000603123F0030343F00203C4F86031D4F820
:1035B000403223F0030343F00203C4F84032D4F84E
:1035C000003223F0070343F00203C4F80032D4F8BA
:1035D000083223F0070343F00203C4F80832D4F89A
:1035E000703223F0030343F00103C4F87032D4F8BF
:1035F000203223F0070343F00103C4F82032FEF722
:103600008FFB4FF0E0220020136943F004031361A5
:10361000D4F8603223F0070343F00103C4F86032AA
:10362000D4F8943223F0070343F00103C4F8943232
:103630000BB030BDD3F85041E4B24AE7D3F8FC20D8
:1036400022F08072C3F8FC20D4F8802022F003021C
:1036500042F00102C4F880200022C1F88020D3F893
:10366000FC2042F08072C3F8FC2077E74FF07E63C5
:1036700093F89C2093F99C30002BFFF606AF8DF851
:10368000012002E7346F0008776E0008F06E000832
:103690000080E00F046F0008C017530200B4C40498
:1036A000C0EA2101386F00080080005000900050EF
:1036B00000ED00E007B5094B18689A889B790090E7
:1036C0006846ADF804208DF80630FEF7FDFF0C20AB
:1036D000FFF732F8002003B05DF804FB2C6F000800
:1036E00013B50024064A6846536F43F0010353673D
:1036F00000948DF80440FEF71BFF204602B010BD79
:10370000004000504C2810B504460DD801220A494B
:10371000630904F01F04A240203341F82320BFF3C3
:103720004F8FBFF36F8F10BD40F22511034801F09A
:10373000A0FE002CF7DBE9E700E100E0506F000895
:103740004C2810B5044608D801236109074A04F043
:103750001F04A34042F8213010BD4FF49871044873
:1037600001F087FE002CF7DBEEE700BF00E100E090
:10377000506F00084B2810B5044604D940F23B11A5
:10378000064801F076FE064B621153F8220004F061
:103790001F04E040C04300F0010010BD506F00085E
:1037A00000E100E0002808DB01224309034900F0A2
:1037B0001F008240603341F82320704700E100E0A1
:1037C00038B500F110035C2B04460D4604D94FF4C4
:1037D000EF710E4801F04DFE0F2D04D940F2DF11BC
:1037E0000A4801F046FE60B20028ACBF00F160401C
:1037F000074B4FEA0515EDB2ABBF00F5614000F095
:103800000F0080F800531D5438BD00BF506F0008F2
:1038100014ED00E010B502F0E9FE0A4B1A786AB91F
:1038200001226FF004041A7002F0DBFE204605212D
:103830000134FFF7C5FF4C2CF8D110BDBDE8104096
:1038400002F0CFBE6515002010B5044602F0C5FE9B
:10385000024B1C6002F0BCFE002010BDE0130020F3
:1038600010B502F0BAFE034B1C6802F0B1FE204610
:1038700010BD00BFE013002010B50020144601F079
:10388000A2FE022804D018B1C321024801F0F1FDC4
:10389000204610BDCD6F0008034B0222186800239C
:1038A0008068194601F08CB8A81500203021037DEE
:1038B00002464B4303F1A04303F58023D86E07492A
:1038C0001B6F884208D113F0020006D0106A136DF6
:1038D0001B1A584258417047002070476615002057
:1038E000302337B5007D0DF10701434303F1A043B9
:1038F00003F58023DD6E1C6F02F0F8FA20B140F270
:10390000F931084801F0B5FD9DF8070040B9064BB4
:103910009D4203D184F00204C4F3400003B030BDE3
:103920000120FBE73F7000086615002037B504460C
:103930000DF10701007D02F0D9FA20B140F24441B7
:10394000114801F096FD9DF80730A3B1256DD4E92B
:10395000122313449D4201D8AA4204D940F24F4198
:10396000094801F086FDD4E9120303449D4218BFC3
:10397000284603B030BD3022237D534303F1A043DA
:1039800003F58023DD6EE2E73F7000082DE9F74381
:10399000D0E9043404F17C07D0F80C90013B0646D2
:1039A0001022002138469DB2D4F8748001F0E8FF5F
:1039B000104BC5F30A0543EA0513C4E91F39012377
:1039C00094F8780084F88C30C4F884803A460A4B26
:1039D000009604F16401FDF737FB38B140F28D31F8
:1039E000064803B0BDE8F04301F043BD03B0BDE8B5
:1039F000F08300BF00001030753B00083F700008E6
:103A00002DE9F04300F13806044685B0102200216C
:103A1000304601F0B5FF4FF44473534D207DC4E9A7
:103A20000F556387FDF736FB20B140F2CA514F486E
:103A300001F01FFD10220021304601F0A1FF4FF4DC
:103A4000447363873023207DC4E90F55434303F15A
:103A5000A04303F58023DB6EAB420BD1FDF73AFBAD
:103A6000002876D040F2D351404805B0BDE8F0437D
:103A700001F0FFBC0DF10B0102F038FA20B140F269
:103A8000D9513A4801F0F5FC9DF80B30002B63D179
:103A90002046FFF74BFF03A90746207D02F048FAB6
:103AA00020B140F2E151314801F0E3FC039B002BCF
:103AB00004DC40F2E3512D4801F0DBFC039B04F1F0
:103AC0001808013B1022002140469DB2D4F8109006
:103AD00001F056FF3022237DC5F30A0553432D0123
:103AE00045F04075C4E9065903F1A043276203F588
:103AF00080231A6F94F82410520862F3410184F86D
:103B00002410196F94F8242028F0030861F30002B0
:103B100084F824201B6F626A9B0863F39F0248F0BD
:103B2000020362626364009432462146104B207D9A
:103B3000FDF78AFA20B140F204610C4801F099FCCB
:103B4000207DFDF7C7FA20B14FF4C161074801F0AD
:103B500090FC05B0BDE8F08394F844306FF3410366
:103B600084F84430DFE700BF661500203F7000088E
:103B7000B756000838B55569144695F88C3023B906
:103B800040F26A310A4801F074FC002305F190000C
:103B900085F88C30FCF74EFF08B1FFF7F7FE63683D
:103BA0001BB100212046A2689847002038BD00BF05
:103BB0003F70000838B50446007DFDF76BFA20B170
:103BC00040F22D41084801F054FC2046FFF76EFEFC
:103BD0000546207DFDF77EFA20B140F232410248D1
:103BE00001F047FC284638BD3F7000082DE9F04F32
:103BF0009946002304468DB008910692C9F800301A
:103C0000D9F80060069B9D1B00F0C580089B9E199B
:103C100000F0C1802046FFF7CDFF8046002840F02D
:103C2000BA802046FFF782FE226D904240F2BC80AF
:103C3000801A854228BF054694F896A0BAF1000F75
:103C400000F0F28002F0D2FC236D07902046099329
:103C5000FFF746FE2F46099B834658198342D4F846
:103C6000981040F0BC80D4E9122313448B4208BF63
:103C7000C4F89820D4F898108A4201D88B4204D80E
:103C800040F242518A4801F0F4FB079802F0A9FC87
:103C9000DA46207DFDF7FEF920B140F282418448EA
:103CA00001F0E7FB207D0DF12F0102F01FF920B19B
:103CB00040F286417E4801F0DCFB2046FFF736FEED
:103CC000236D834698429DF82F3040F2BC8023B18B
:103CD00040F28E41764801F0CCFBA26C236DAEB26F
:103CE000934240F0A880099304F128082369102228
:103CF00000214046079301F043FE3021079B013E1F
:103D0000E362099BC6F30A062363237D36014B4316
:103D100028F0030803F1A04346F0407648F0020281
:103D200003F58023A6621A67236DD4E912122B448F
:103D30000A44934208BF0B469342236504D340F2E2
:103D4000DE415B4801F095FB236D9B4505D10123C6
:103D5000204684F85430FFF753FE207DFDF7BAF972
:103D600020B140F2F741524801F083FB94F89630BD
:103D70003BB1BAF1000F04D0236E112120465B68DD
:103D80009847D9F8003037B1069A3B449342C9F8B6
:103D90000030FFF435AFD9F80030002B14BF0020FD
:103DA0001B200DB0BDE8F08FD4E912310B449A42CC
:103DB00004D340F26A413E4801F05BFBD4E9123281
:103DC0001344226D9B1A9D4228BF1D46002D7FF48F
:103DD00033AF40F21651364801F04BFB2CE701336C
:103DE0005A1E914210D1C4F8983013F8012C112AB0
:103DF00001D0132A14D1013FA2F111014A424A41D4
:103E0000D04684F89C2029E713F8012C02F0FD012C
:103E1000112906D1013FB8F1000F3FF41FAFEBE7C6
:103E2000D04606F8012B19E72A463046216D01F0ED
:103E300039FD2F462DE7238DC3F30A12164466F38E
:103E40000E13238570E7207D93B93023584300F18A
:103E5000A04000F58020426E436EC2F30A1223F4A4
:103E6000FF432A4423F0700343EA021343665BE7EF
:103E7000104B049403930023CDE9015301230093D5
:103E80005A462369216801F00FFB20B140F2CB4173
:103E9000074801F0EEFA3022237D534303F1A0439B
:103EA00003F580235A6E22F480125A663CE700BF65
:103EB0003F700008B75600082DE9F84F90F894308D
:103EC00004460D46002B40F0858090F89580DFF881
:103ED00008918E18B54223D094F896306BB12046E5
:103EE000FFF768FEF8B1D4F89820236D9A4204D009
:103EF00040F2CD21484601F0BCFA94F89C30002BEA
:103F0000E8D0236E2F462A785B68B8F1000F59D1AC
:103F1000236E20465B683978013598470028D9D050
:103F20000020BDE8F88F02F061FB0746207DFDF719
:103F3000B1F820B140F2D321274801F09AFA204687
:103F4000FFF7F4FCA26C00F1FF3A924538BFE36C36
:103F5000207D3CBF03F1FF3302EB030A94F854B019
:103F6000FDF7B8F820B140F2DF211B4801F081FADB
:103F7000D4F89810BBF1000F22D0236D8B4204D0EF
:103F80004FF43971144801F074FA384602F029FBF5
:103F9000B3E7A26C9A4202D9E36C013B1344994205
:103FA0000BD013F80129112A01D0132AF1D1A2F163
:103FB00011035A425A4184F89C20C4F898A0E4E7BF
:103FC0005346ECE70A2AA3D10D2120469847002842
:103FD0009ED0A5E70E20A4E73F700008F0B50C4680
:103FE00015460646A022002189B0204601F0C8FCF3
:103FF0002746AC46BCE80F000FC7DCF8003005F1DF
:10400000140C3B6004F16407BCE80F000FC7DCF838
:104010000030EA6A3B60AB6AC4E9132395F83020AC
:10402000A36484F8952095F83320C4F898300123D0
:1040300084F8962084F89C3084F85430AB6B236667
:10404000324B34607360324BB360324BF360324BAF
:104050007361324BB361324B3361FCF7C1FF10B176
:10406000304B98420FD1002107A8FCF741FF0146D1
:1040700048B9079B07A82375FCF73AFF0346207D44
:1040800023B1FCF787FF102009B0F0BD079B84F82F
:104090007830FCF7FFFF0028F5D1234B0494CDE9DD
:1040A0000203E36C0193012300932369A26C21684E
:1040B000207D01F0F9F90028E5D13022237D4FF46D
:1040C0008011534342F2640203F1A04303F58023BD
:1040D0009950AB6B93F91000FFF764FBAB6B93F94E
:1040E0001000FFF72DFB04F1900001F0C3F93046FA
:1040F000FFF7AAFB2046FFF783FC207DFCF7EAFFD1
:10410000003818BF01200001BEE700BFB93E00081B
:1041100027570008ED3B0008AB560008B1560008D1
:104120002D410008038000F0B756000870B50568FF
:10413000044695F89460002E3BD101F017FBFFF781
:104140008FFB844202D13046FFF77EFB2B6E93F942
:104150001000FFF727FB2B6E93F91000FFF7D2FA40
:10416000287D01F0A3FE20B140F29721144801F010
:1041700080F9287DFCF70EFF20B140F29B2110480A
:1041800001F077F9FCF7E4FE38B10E4B984204D009
:1041900040F29F210A4801F06CF90023C4E9003382
:1041A000C4E90533E3602B6E2846BDE87040DB6848
:1041B000184740F26621024801F05BF90F2070BDFC
:1041C0003F700008058000F0F8B517461C46564AB7
:1041D0008B6B069D1A60554A5A6000229A60544AB9
:1041E000DA600A462946FFF7F9FE0646002840F045
:1041F000948023680121C5F8A03063683A20C5F88F
:10420000A430637A85F8A930237A85F8A830E37A58
:1042100085F8AB30A37A85F8AA30637B85F8AD309A
:10422000237B85F8AC30E37B85F8AF30A37B85F842
:10423000AE30FDF731FB01230422617A207AFEF7CC
:1042400031FD01230222E17AA07AFEF72BFD012144
:104250006068FDF721FB3E7039462068FEF780FF5D
:104260001420617C334B01F1390252019850607A7D
:10427000227A03EB411342EA0042C3F83827E17A7D
:10428000A27A42EA0142C3F8302785F8B0607B7E0B
:10429000032B46D8DFE803F03943021C022385F8DC
:1042A000B03000230422E17BA07BFEF7FBFC022060
:1042B000617C204B01F1B9025201985003EB41138C
:1042C00041F22C71E07BA27B42EA00425A501CE092
:1042D000012785F8B03002220023617B207BFEF7A6
:1042E000E1FC617B227B637C42EA014241F228715E
:1042F0005B0103F1A04303F570335A500422236895
:1043000003F58053DA65002FCBD120680A4A00F507
:10431000005305219A64FEF7D9FE3046F8BD002708
:10432000D7E72326F9E700BF89570008135800088C
:104330009D57000800C00350FFFF0100F421014811
:1043400001F097B8A77000080346054A05491068B0
:1043500003448B428CBF4FF0FF301360704700BFA7
:10436000A41500200000042070B502F03FF9144E9F
:1043700005463478FCB9134B1C60134B1C60134B7F
:104380001C6000F047F8012002F0DFF902F0BCF8F1
:104390000F4B0246186020B9284602F022F923206C
:1043A00070BD234640F2E7310A4800F095F80A4B09
:1043B000186001233370284602F013F90020EFE75C
:1043C00069150020EC130020E8130020F4130020EE
:1043D000F013002018FCFFFFE4130020012300B5B8
:1043E0008DB08DF80F3001F09FFF00230146CDE91D
:1043F0000033074A0DF10F0304A802F06DF918B954
:104400009DF80F30002BFBD10DB05DF804FB00BF11
:10441000D366000810B5002486B01422214601A8F6
:104420008DF8004001F0ACFA012313488DF80430F8
:1044300002F0E7F8BFF34F8F6846FEF7D3FF204640
:1044400001A98DF80440FEF7DFFF20460F2101F09F
:10445000E7FD0F21204601F0F1FDFEF7A9FF01F075
:10446000B5FD064B43209C61FFF79CF94320FFF705
:1044700067F906B010BD00BF346F000800800A5015
:1044800010B5044601F0A0FC4FF47A729042B0FBE4
:10449000F2F105D23621BDE810400C4800F0E9BF2A
:1044A0000B4BB3FBF1F30B49884201D93C21F2E7F6
:1044B00002FB04F0B0FBF3F0022806D9BDE810407F
:1044C0000323B0FBF3F0FBF753BE10BD7771000878
:1044D00040420F00E7CD9A3B53B94AB9002908BFC3
:1044E00000281CBF4FF0FF314FF0FF3000F082B9C1
:1044F000ADF1080C6DE904CE00F006F8DDF804E03B
:10450000DDE9022304B070472DE9F04F099D0C4608
:10451000002B4DD18A420F4684469646B2FA82F36A
:1045200060D94BB102FA03FEC3F120029F4000FAAA
:1045300003FC20FA02F217434FEA1E461FFA8EF4DC
:104540004FEA1C42B7FBF6F106FB117701FB04F0C2
:1045500042EA0742904208D91EEB020201F1FF37FE
:1045600002D2904200F231813946121A1FFA8CFCB5
:10457000B2FBF6F006FB102200FB04F44CEA024CFE
:10458000644508D91EEB0C0C00F1FF3202D26445E1
:1045900000F21E81104640EA0140ACEB040C002101
:1045A00025B12CFA03F30022C5E90032BDE8F08FF3
:1045B0008B4205D90DB1C5E9000100210846F5E798
:1045C000B3FA83F100294DD1A342C0F0F3809042A9
:1045D00080F0F080064623460846002DE6D0C5E967
:1045E0000063E3E7002B40F0A3808A1A4FEA1E47DE
:1045F0001FFA8EF60121B2FBF7F407FB14204FEAF5
:104600001C4242EA004206FB04F090420FD91EEB26
:10461000020204F1FF382CBF4FF001094FF00009EE
:10462000904203D9B9F1000F00F0CC804446121A31
:104630001FFA8CFCB2FBF7F007FB102200FB06F61A
:104640004CEA024C664508D91EEB0C0C00F1FF3217
:1046500002D2664500F2B3801046ACEB060C40EA8D
:1046600004409DE7C1F120068B4004FA01FE22FAC6
:1046700006F720FA06FCF4408A401F434EEA0C037A
:1046800000FA01FE4FEA17484FEA13491FFA87FC68
:10469000B4FBF8F008FB104449EA044400FB0CF9B1
:1046A000A1450ED93C1900F1FF3A2CBF4FF0010B88
:1046B0004FF0000BA14503D9BBF1000F00F08B8038
:1046C0005046A4EB09041FFA83F9B4FBF8F308FB86
:1046D000134403FB0CFC49EA0444A44506D93C19E5
:1046E00003F1FF3801D2A4457BD8434643EA00409A
:1046F000A4EB0C04A0FB02984445CC46434602D3ED
:1047000006D1CE4504D20138B9EB020C68EB0703A1
:10471000002D6CD0BEEB0C0264EB030422FA01F313
:1047200004FA06F6CC4000211E43C5E900643DE7CB
:1047300002FA03FEC3F1200104FA03F200FA03FCBB
:10474000CC404FEA1E4720FA01F11FFA8EF6B4FB67
:10475000F7F00A4307FB1044110C41EA044100FB47
:1047600006F48C420ED91EEB010100F1FF382CBF7C
:104770004FF001094FF000098C4202D9B9F1000F46
:104780002CD04046091B92B2B1FBF7F407FB141181
:1047900042EA014204FB06F1914207D91EEB0202F4
:1047A00004F1FF3801D291421ED84446521A44EA1D
:1047B000004120E7861A64EB030301200DE7F4446F
:1047C00002384AE7023C724431E702397244CCE6CF
:1047D000F4440238DFE602383C4472E702387144A0
:1047E000D0E7023B3C4481E7023C7244DEE72946C5
:1047F000DCE600BF704700BF08B5064B044613B1A6
:104800000021AFF30080044B1B6803B1984720469A
:1048100000F033FF000000003015002070B50D4D92
:1048200000260D4C641BA410A64209D10B4D002696
:104830000B4C01F0B5FF641BA410A64205D170BD5E
:1048400055F8043B01369847EEE755F8043B01362E
:104850009847F2E7101600201016002010160020CE
:10486000141600200B46034902460868816800F0D0
:10487000B7B900BFA8150020002310B50446836017
:10488000818119464366C28108228361C0E90033F1
:10489000C0E904335C3001F073F80D4B24626362AD
:1048A0000C4BA3620C4BE3620C4B23630C4B9C42FE
:1048B00006D003F16802944202D0D0339C4205D165
:1048C00004F15800BDE8104001F062B810BD00BF0F
:1048D000BF580008E1580008195900083D59000860
:1048E000F8130020024A0349034801F02BB800BF27
:1048F000F8150020115D0008AC15002041680C4B34
:10490000994210B5044601D001F002FAA168094BA2
:10491000994202D0204601F0FBF9E168064B99422A
:1049200004D02046BDE8104001F0F2B910BD00BF30
:10493000F813002060140020C814002010B50B4BA1
:1049400004210B4C0B4A20461A600022FFF794FF0B
:1049500004F1680001220921FFF78EFF04F1D00065
:1049600002221221BDE81040FFF786BF301500205B
:10497000F8130020E5480008014801F00AB800BF1C
:104980006B150020014801F005B800BF6B15002031
:1049900010B50446FFF7F0FF236A1BB1BDE81040D5
:1049A000FFF7F0BF044B2362044B1B68002BF5D1CB
:1049B000FFF7C4FFF2E700BFFD48000830150020F4
:1049C0002DE9F7431D46574B04460E461F68904697
:1049D00027B13B6A13B93846FFF7DAFFB8F1020F87
:1049E00006D0B8F1010F00F29980002DC0F2968038
:1049F000636ED90705D4A3899A0502D4A06D00F08F
:104A0000C8FF2146384601F083F9616B41B104F1DA
:104A10004403994202D0384600F098F800236363BB
:104A20000023A3616360A3891B0603D5216938466F
:104A300000F08CF8A389B8F1020F23F44A6323F045
:104A40000303A38160D001AB6A462146384600F0DB
:104A5000A2FFA3891843A0812DBB009D284600F02A
:104A600069FB0646002851D1DDF80090A9453FD1E9
:104A70004FF0FF35B4F90C3043F00202A28100225E
:104A8000A26004F147022260226101226261626E2B
:104A9000D60704D4980502D4A06D00F07BFF284609
:104AA00003B0BDE8F083002ED8D03B6A13B9384676
:104AB000FFF76EFFB8F1010F266002BFA38943F034
:104AC0000103A381B4F90C3013F00802C4E90465B2
:104AD0001ED0D90745BF00226D42A560A26048BF25
:104AE000A561626ED20701D49B0513D50025D6E7D8
:104AF000484600F01FFB06460028B9D0A3894D4662
:104B000043F08003A381D0E70025B3E7A946F5E78A
:104B1000A260E6E7A06D00F03DFFE7E74FF0FF354C
:104B2000BDE700BFA815002038B50446064D08466D
:104B3000114600222A601A46FEF79EFE431C02D14F
:104B40002B6803B1236038BD3415002038B5054605
:104B5000002941D051F8043C0C1F002BB8BFE418C9
:104B600000F0D0FB1D4A136833B963601460284617
:104B7000BDE8384000F0CCBBA34208D9206821181A
:104B80008B4201BF19685B6809182160EDE71A467E
:104B90005B680BB1A342FAD911685018A0420BD13F
:104BA00020680144501811608342E0D118685B68A6
:104BB000084453601060DAE702D90C232B60D6E773
:104BC000206821188B4202BF19685B68091863606E
:104BD00008BF21605460CAE738BD00BF3C15002003
:104BE0002DE9F04F0D469DB014469846064618B183
:104BF000036A0BB9FFF7CCFE6B6ED90705D4AB89FE
:104C00009A0502D4A86D00F0C4FEAB891B0701D53C
:104C10002B699BB92946304600F0FAF870B16B6EEB
:104C2000DC0704D54FF0FF301DB0BDE8F08FAB8935
:104C30009805F7D4A86D00F0ADFEF3E70023CDF89A
:104C40000C804FF00109DFF8B481099320238DF81F
:104C5000293030238DF82A3023469A4613F8012B49
:104C60000AB1252AF9D1BAEB040B0BD05B462246D8
:104C70002946304600F007FF013000F0A780099A6E
:104C80005A4409929AF80030002B00F09F800023CC
:104C90004FF0FF320AF1010A049307938DF8533065
:104CA0001A93CDE9052354460522544814F8011BF4
:104CB00001F056F8049AD8B9D10644BF20238DF8E4
:104CC0005330130744BF2B238DF853309AF800302C
:104CD0002A2B15D0079A544600204FF00A0C214683
:104CE00011F8013B303B092B4BD9B0B1079214E0CE
:104CF000A0EB0803A24609FA03F313430493D2E797
:104D0000039B191D1B68002B0391BBBF5B4242F044
:104D1000020207930793B8BF049223782E2B0AD17F
:104D200063782A2B32D1039B02341A1D1B6843EA95
:104D3000E37303920593DFF8D4A003222178504651
:104D400001F00EF838B1A0EB0A004022049B0134B8
:104D500082401343049314F8011B062228488DF85F
:104D6000281000F0FDFF00283FD0264B1BBB039B03
:104D7000073323F0070308330393099B3B4409934C
:104D80006AE70CFB02320C460120A8E7002301343D
:104D90004FF00A0C19460593204610F8012B303AC3
:104DA000092A03D9002BC6D00591C4E70CFB0121C9
:104DB00004460123F0E703AB2A4604A930460093DA
:104DC000114BAFF300800746781CD6D16B6ED90724
:104DD00005D4AB899A0502D4A86D00F0DBFDAB8940
:104DE0005B063FF51FAF09981EE703AB2A4604A9EF
:104DF00030460093044B00F061F8E4E7D6710008F8
:104E0000E071000800000000875A0008DC7100080B
:104E100038B5294B05460C46186818B1036A0BB91A
:104E2000FFF7B6FDB4F90C30190722D4DA0607D41F
:104E300009222A6043F040034FF0FF30A38133E0A2
:104E4000580712D5616B41B104F14403994202D075
:104E50002846FFF77BFE00236363A38923F0240326
:104E6000A3810023636023692360A38943F00803BF
:104E7000A38123694BB9A38903F42073B3F5007FA1
:104E800003D02146284600F0ABFDB4F90C3013F0F6
:104E900001020AD00022A26062695242A261226924
:104EA00042B913F08000C5D138BD990758BF626977
:104EB000A260F4E70020F7E7A81500202DE9FF47DE
:104EC0000F7E914680460C46782F9A460C9E01F143
:104ED000430207D8622F0AD8002F00F0DD80582F38
:104EE00000F0C38004F1420684F842703AE0A7F172
:104EF0006303152BF6D801A151F823F0554F000894
:104F0000694F0008E54E0008E54E0008E54E000830
:104F1000E54E0008694F0008E54E0008E54E000820
:104F2000E54E0008E54E00087F500008F74F0008E6
:104F300037500008E54E0008E54E0008A150000873
:104F4000E54E0008F74F0008E54E0008E54E000862
:104F50003F50000833681A1D1B68326004F1420696
:104F600084F842300123A8E031682368081D3060CE
:104F70001E0601D50D6803E05D06FBD5B1F90050B2
:104F8000002D616878DA2D200029A16084F84300A3
:104F90002DDA6D425D480A231646B5FBF3F103FB9B
:104FA0001157C75D06F8017D2F460D46BB42F4D967
:104FB000082B0BD12368DF0708D523696168994264
:104FC000DEBF302306F8013C06F1FF36921B22615A
:104FD0004B4603AA21464046CDF800A000F0A3FDB1
:104FE00001306FD14FF0FF3004B0BDE8F08723F0FF
:104FF00004032360CDE721683368080653F8045B97
:1050000002D4490648BFADB26F2F33603F4814BF8A
:105010000A230823002184F843106668002EA66046
:10502000BADB216821F004012160002DB4D1002EEB
:10503000B2D11646BCE7236843F0200323607827EB
:105040003348236884F845701F06316851F8045BC3
:1050500002D45F0648BFADB23160D90744BF43F008
:10506000200323601DB11023D4E72848E9E7236813
:1050700023F020032360F6E724480A23CDE73368B2
:105080002568181D616930602E061B6801D51960FE
:1050900002E06806FBD5198000231646236197E7D6
:1050A000336800211A1D32601E686268304600F0C5
:1050B00057FE08B1801B606063682361002384F899
:1050C000433085E72369324649464046D0470130A0
:1050D00088D023689B0714D4E068039B9842B8BF2C
:1050E000184681E70123324649464046D047013001
:1050F0003FF478AF0135E36803995B1AAB42F1DC0A
:10510000EAE7002504F11906F5E700BFE77100089A
:10511000F871000838B50023054D044608462B6099
:1051200000F0A9FA431C02D12B6803B1236038BDFB
:1051300034150020024B0146186800F025B800BF66
:10514000A815002070B50F4E0C460546316811B900
:1051500000F0E4F830602146284600F0DFF8431CF8
:1051600003D14FF0FF34204670BDC41C24F003046B
:10517000A042F8D0211A284600F0D0F80130F2D130
:10518000EFE700BF381500202DE9F041CD1C0646A1
:1051900025F0030508350C2D38BF0C25002D01DB4B
:1051A000A94204D90C2333600020BDE8F081314FBF
:1051B00000F0A8F83B681C4644BB29463046FFF780
:1051C000C1FF431C044650D13C682146002941D10F
:1051D000002C44D02368304604EB030800F09EF80E
:1051E00080453CD1216830466D1A2946FFF7AAFF59
:1051F000013034D023682B4423603B68002B36D029
:105200005A68A24229D100225A600EE02268521B3D
:105210001DD40B2A16D96119A342256018BF596005
:10522000636808BF396062514B60304600F070F827
:1052300004F10B00231D20F00700C21AB5D01B1A81
:10524000A350B2E7A3426268DED13A60EDE723469D
:105250006468B1E70C464968B8E71346CEE70C230B
:105260003046336000F054F89EE70560DDE75B6090
:10527000FFDE00BF3C15002038B50023064D044674
:10528000084611462B6000F0F9F9431C02D12B6847
:1052900003B1236038BD00BF3415002038B50023AA
:1052A000054D044608462B6000F0EDF9431C02D181
:1052B0002B6803B1236038BD3415002038B504468F
:1052C000064D0846114600222A601A4600F0DDF914
:1052D000431C02D12B6803B1236038BD3415002074
:1052E00038B50446064D0846114600222A601A4683
:1052F00000F0CDF9431C02D12B6803B1236038BD07
:1053000034150020014800F044BB00BF6A1500209E
:10531000014800F03FBB00BF6A15002038B50023EC
:10532000054D044608462B60FFF70EF8431C02D1DA
:105330002B6803B1236038BD3415002008B500F098
:105340006FFAFAF7D7FF00F06DFAFBF7C9F8FAE742
:105350007047704770477047704708B5FBF70EFA03
:1053600000F02BF9BDE80840FBF7FCB9704708B521
:10537000FBF770FBFBF724FCBDE8084000F054B8D5
:1053800008B500F013F8FEF787FAFBF79BF9BDE8C4
:105390000840FBF721B97047FBF7C8B97047704761
:1053A00070477047FBF79CB9704770470F207047F4
:1053B00070B5002506462C46052C20D8DFE804F001
:1053C00003070B0F13175B210820FBF7A9FB0C2128
:1053D0000820FBF7A5FBD1210820FBF7A1FB8021CA
:1053E0000820FBF79DFB00210820FBF799FB6C1CB4
:1053F0002946E4B208202546FBF792FB0624A4F1D7
:105400000E03012B05D85A210820FBF789FB013434
:10541000D2E7102C05D1BDE870405D210820FBF7D4
:105420007FBBB31F195DEFE708B5082000F025F832
:10543000BDE80840082000F02BB8012307B520F094
:105440007F4040EA8170019068460093FFF7B0FF0B
:1054500003B05DF804FBFEE700239A4200D17047D9
:1054600010B550F8234041F8234001339A42F8D157
:1054700010BDFEE70023036070474FF06042012338
:10548000D2F8001E83400B430020C2F8003E704754
:105490004FF060410122D1F8003E824023EA02032E
:1054A0000020C1F8003E704710B588B004460E9841
:1054B000009207900D98224606909DF830000590C6
:1054C0000B9804909DF8280003900020CDE901304E
:1054D0000B460121FBF74EFC08B010BD70B5054628
:1054E00014460E4601F079F82B685C4034405C406D
:1054F0002C60BDE8704001F06BB808B500F076FC98
:10550000BDE808400021FCF79BB90029CCBF012170
:105510000021FCF795B902214FF42070FCF7DEBDA5
:1055200070477047436D0B42FCD1704708B5436824
:10553000DA0714D58368DB0702D50369D90707D5D5
:105540000A2350218363FFF7EDFF836C9A07FCD198
:10555000012200F500535A6043689B07FCD408BD44
:10556000836C5A06FCD54164836C1B06FCD5C06B6A
:1055700080B2704770B5054614460E4601F02DF80E
:105580002B685C4034405C402C60BDE8704001F00A
:105590001FB883695B06FCD5C163704770B50546CB
:1055A00014460E4601F019F82B685C4034405C400C
:1055B0002C60BDE8704001F00BB800F000B800208E
:1055C0007047FDF743BF70B50C46154610B9FEF79E
:1055D00047F938B143682BB12A462146BDE87040EF
:1055E00000681847232070BDF7B50D4616461C46C7
:1055F00048B103B901ACC7685FB1234632462946BA
:105600000068B84706E0FEF72BF904B901AC0028A2
:10561000F1D1232003B0F0BDF8B50C46154606467F
:1056200058B9FEF71DF920462946FFF71BF9044635
:10563000002CD4BF37200020F8BDFEF711F98642B8
:105640000746F0D03046FEF7FFF829462046FFF720
:1056500009F904463846FEF7F7F8E9E70EB403B552
:1056600003AA52F8041B0192FFF7D6FF02B05DF8BF
:1056700004EB03B0704700207047FEE74FF400537F
:1056800000204B607047012070470020704707B52D
:10569000002001AB0190FFF7A7FF0198002808BF89
:1056A0004FF0FF3003B05DF804FB80F895107047B1
:1056B00090F89500704792F8543037B5144633B1DE
:1056C000936D0BB1D06D9847002384F8543094F853
:1056D00096301BB32046FEF703F9F8B1236E132171
:1056E00020465B6898471025236E20461B680DF105
:1056F0000701984778B99DF8073003F0FD02112A99
:1057000005D1A3F111025342534184F89C30013D6D
:1057100015F0FF05E8D12046FEF772F9002084F865
:10572000540003B030BD90F8943070B505460C4677
:10573000C3B10B69B3F5006F16D800F057FF95F8A9
:105740008C30064665614BB1214605F19000FBF7B0
:105750005FF9304600F045FF002070BD2046FEF79F
:1057600015F9F6E70E20F8E72120F6E738B548B13D
:105770000024056800F03AFFC5E9164400F031FF47
:10578000204638BD2220FCE7D0F8A0309A691206E6
:1057900043BF5B6A00200B701B20704710B50446A6
:1057A000D0F8A02093695906FCD5002394F8A910DD
:1057B0001A4694F8A800FDF775FA002394F8AB1088
:1057C0001A4694F8AA00FDF76DFA94F8B030DA079B
:1057D00007D5002394F8AD101A4694F8AC00FDF7F5
:1057E00061FA94F8B0309B0707D5002394F8AF1006
:1057F0001A4694F8AE00FDF755FAD4F8A00000213F
:10580000FDF764FCD4F8A4000021FCF745F8002063
:1058100010BD08B5D0F8A000FFF7BBFE002008BD02
:1058200000F011B800F033B87047704708B5FFF7C3
:1058300094FDFFF79CFDFFF7A3FDFFF7ACFDBDE86E
:105840000840FFF7A9BD08B5FFF7EEFFFDF7E2FF3F
:10585000FDF730FFFFF7B5FEFDF742FFFEF784FDD1
:10586000FFF7E3FF00F007F8FFF780FDBDE8084011
:10587000FFF7DCBF704708B5FFF76BFDFFF76AFD68
:10588000FFF769FDFFF768FDFFF7F4FF08BD08B5F6
:10589000FFF784FDFFF783FDFFF782FDBDE80840B9
:1058A000FFF77FBD0A44431E914200D1704710B5F7
:1058B00011F8014B914203F8014FF9D110BD10B519
:1058C0000C46B1F90E10FFF70BFD0028ABBF636D5E
:1058D000A3891B1823F48053ACBF6365A38110BD5B
:1058E0002DE9F0411F468B8905460C46DB0516461F
:1058F00005D502230022B1F90E10FFF7DFFCA389C2
:105900003246B4F90E10284623F48053A3813B4657
:10591000BDE8F041FFF708B910B50C46B1F90E101B
:10592000FFF7CCFC431CA38915BF606523F48053AB
:1059300043F48053A38118BFA38110BDB1F90E10A9
:10594000FFF7E8BB2DE9F8430746884614460026D2
:10595000D4E90195B9F1010905D52468002CF7D1E6
:105960003046BDE8F883AB89012B07D9B5F90E3075
:10597000013303D029463846C04706436835E9E776
:1059800002440346934200D1704703F8011BF9E734
:1059900070477047704770B50C46B1F90E1096B05D
:1059A000154600291E460CDAA389002113F0800F4A
:1059B00014BF40234FF48063002031602B6016B089
:1059C00070BD6A46FFF758FC0028EDDB019901F431
:1059D0007041A1F50053594259414FF48063EBE700
:1059E0008B89F7B59D0706460C4607D504F147039A
:1059F000236023610123636103B0F0BD01AB6A46FC
:105A0000FFF7C9FF009F054630463946FFF7BCFB4C
:105A100048B9B4F90C309A05EED423F0030343F0EF
:105A20000203A381E2E7A389206043F08003A381FE
:105A3000019BC4E904075BB1B4F90E103046FFF7CF
:105A40002DFC28B1A38923F0030343F00103A381B4
:105A5000A3891D43A581CFE79368013B002B936089
:105A600010B408DA9469A34201DB0A2903D15DF876
:105A7000044B00F01AB81368581C106008461970DF
:105A80005DF8044B7047F8B506460F461446D51826
:105A9000AC4201D1002007E03A4614F8011B304621
:105AA000FFF7DAFF431CF3D1F8BDF8B50E461446F4
:105AB000054618B1036A0BB9FEF76AFFA369A36034
:105AC000A3891A0701D5236943B921462846FFF760
:105AD0009FF918B14FF0FF373846F8BD2368F6B28A
