S012000030372D4932632D74656D702E7333378D
S3150800000000100020FD090008C35A0008C35A00085A
S31508000010C35A0008C35A0008C35A0008C35A00083E
S31508000020C35A0008C35A0008C35A0008C35A00082E
S31508000030C35A0008C35A0008C35A0008C35A00081E
S31508000040C35A0008C35A0008C35A0008C35A00080E
S31508000050C35A0008C35A0008C35A0008C35A0008FE
S31508000060C35A0008C9070008115A0008C35A0008ED
S31508000070C35A0008C35A0008C35A0008C35A0008DE
S31508000080C35A0008C35A0008C35A0008C35A0008CE
S31508000090C35A0008F5120008C35A0008C35A0008D4
S315080000A0C35A00083D0E00081D0E0008C35A000872
S315080000B0C35A0008C35A0008C35A0008C35A00089E
S315080000C0C35A0008C35A0008C35A0008C35A00088E
S315080000D0C35A0008C35A0008C35A0008C35A00087E
S315080000E0C35A0008C35A0008C35A0008C35A00086E
S315080000F0C35A0008C35A0008C35A0008C35A00085E
S31508000100C35A0008C35A0008C35A0008C35A00084D
S31508000110C35A0008C35A0008C35A0008C35A00083D
S31508000120C35A0008C35A0008C35A0008C35A00082D
S31508000130C35A0008C35A0008C35A0008C35A00081D
S31508000140C35A0008C35A0008C35A0008C96D0008F4
S31508000150C35A0008C35A0008C35A0008C35A0008FD
S31508000160C35A0008C35A0008C35A0008C35A0008ED
S31508000170013800D0FCE770470348044B834202D09D
S31508000180034B03B11847704768160020681600200D
S3150800019000000000064B0749C91A891048BF0131FB
S315080001A0491003D0044B0BB101481847704700BFEC
S315080001B068160020681600200000000010B5064CDE
S315080001C0237843B9FFF7D8FF044B13B10448AFF3BC
S315080001D000800123237010BD6C150020000000006C
S315080001E0B479000808B5054B1BB105490548AFF3B6
S315080001F00080BDE80840FFF7CDBF00BF0000000043
S3150800020008100020B4790008A3F5803A704700BFAB
S31508000210174B002B08BF134B9D46FFF7F5FF002130
S315080002208B460F461348144A121A05F0DFFE0E4B8A
S31508000230002B00D098470D4B002B00D09847002084
S31508000240002104000D000D48002802D00C48AFF329
S31508000250008004F017FE2000290005F0A3FB04F037
S31508000260FFFD00BF000008000000000000000000BD
S315080002700010002000100020A41500200000000037
S3150800028000000000F32270B5204B214C1A70636001
S3150800029000230126E36023821E4B21461868268127
S315080002A0668000F047FE0546D0B9032000F092FAB2
S315080002B060B1194D1949286805F006FD05F0AAFB35
S315080002C005F0A9FB1649286805F0FEFC154B002227
S315080002D06360022301202381E2602282638070BD6D
S315080002E0304600F077FA08B90020F8E70A4C0E49BC
S315080002F0206805F0E9FC05F08DFB05F08CFB2A4625
S315080003000A49206805F0E0FCEEE700BF73150020F7
S3150800031020100020B815002008110020186E0008CB
S315080003201D6E00086D150020376E00083C6E00082B
S31508000330F8B53E4C05F06EFB05F06DFB3C492068B0
S3150800034005F0C2FC012304220921022002F09AFDCD
S31508000350502004F077FBFC22364B37491A70C92225
S315080003604B605A70062302270B82344B344E0B60BF
S31508000370344B0F811868CE6000F0DCFD054688B165
S31508000380384600F027FA88B32F49206805F09CFC08
S3150800039005F040FB05F03FFB2A462C49206805F08E
S315080003A093FC23E0032000F015FA60B12849206881
S315080003B005F08AFC05F02EFB05F02DFB3278254961
S315080003C0206805F081FC3378152B13D0012000F046
S315080003D001FA58B12049206805F076FC05F01AFBA9
S315080003E005F019FB1D49206805F06EFC02251C4B1B
S315080003F01D70F8BDFFF746FF0028F7D006F0B0FAE3
S31508000400184A06F0D9FA05460028F0D0012000F06F
S31508000410E1F90028EAD01049206805F055FC05F0F6
S31508000420F9FA05F0F8FA2A460F49B7E70811002045
S31508000430646E000873150020201000208000040058
S315080004406D150020B8150020756E00087A6E000834
S31508000450186E0008A06E0008376E0008BD6E00080A
S315080004607515002000100020D46E000870B52DED1B
S31508000470028B7A4C82B02678012E00F0B480022EC8
S3150800048025D0002E40F0D780754B7649186800F0C5
S3150800049051FD431C05463FD106F062FA6A4606F04E
S315080004A08BFA0546B8B1012000F094F968B16E4E92
S315080004B06E49306805F008FC05F0ACFA05F0ABFAB1
S315080004C02A466B49306805F0FFFB0223237002B009
S315080004D0BDEC028B70BD009B6649D1E900219A1AD2
S315080004E0019B63EB010340F2E9318A4273F1000391
S315080004F0EDD3022000F06EF90028E6D05A4D5E4989
S31508000500286805F0E1FB05F085FA05F084FA5B49F1
S31508000510286805F0D9FBD8E7002852D1032000F057
S3150800052059F9574D70B1504E5649306805F0CCFB15
S3150800053005F070FA05F06FFA6B782A785249306838
S3150800054005F0C2FB6B782A7803F0FC0303EB022361
S3150800055007EE103ADFED4D7AB8EEC77ADFED4C6A52
S3150800056027EE277ADFED4B7A57EE267AF5EEC07A34
S31508000570B6EE007AF1EE10FA4CBF77EEC77A77EE50
S31508000580877A0320BCEEE78A00F024F970B1364D6D
S315080005903C49286805F098FB05F03CFA05F03BFA5B
S315080005A018EE102A3C49286805F08EFB06F0D8F9A3
S315080005B0304A06F001FA054600287FF474AF012395
S315080005C084E7022000F006F900283FF47EAF264EA5
S315080005D02949306805F078FB05F01CFA05F01BFA86
S315080005E02A462E496EE706F0BBF96A4606F0E4F994
S315080005F0054600287FF457AF009B1E4DD5E900201D
S31508000600991A40F2E932019B63EB0003914273F1B8
S315080006100003FFF45CAFFFF735FE00283FF455AF43
S3150800062006F09EF92A4606F0C7F9054600287FF423
S315080006303AAF20704BE7012000F0CCF800283FF4D1
S3150800064044AF094D0949286805F03EFB05F0E2F973
S3150800065005F0E1F922781249286834E77515002073
S31508000660B81500202010002008110020376E000859
S31508000670D46E000800100020756E0008006F000890
S315080006806D150020186E0008236F000852B82F4316
S315080006900000803766663B42346F0008466F0008E4
S315080006A0676F000808B5044806F0E1FABDE8084097
S315080006B0024800F0D3BB00BFE4760008A41500206A
S315080006C0064B1B681A7A022A04D812B11B68044A18
S315080006D013607047032AF9D0704700BFBC15002085
S315080006E03410002070B5264DA8B012AC0FCD0FC43B
S315080006F095E80700292384E80700224A0024CDE963
S3150800070003230523CDE905448DF8153006238DF816
S3150800071017304FF48023CDE909440B94089319AD9B
S3150800072008AECDE90E44079410940FCE0FC5164BAC
S315080007300DAE2B60154B1EAD0D930FCE0FC52021A8
S31508000740134B14482B60144B12AA2393134B26946D
S31508000750CDE92413124B19A92793124B009303AB27
S3150800076004F066F8044618B19B210F4805F0B7F95E
S3150800077000214FF4E13005F096F9204628B070BD07
S31508000780B06F000800C0055024C0055002000400E0
S315080007903CC00550EC100020761500200001010031
S315080007A0D0150020381000207D6F000808B5FFF727
S315080007B099FF28B1BDE80840CB21024805F08FB95A
S315080007C008BD00BF7D6F0008014804F0EBB800BF04
S315080007D0EC1000200B4B02461B7883B10A4B1B78A2
S315080007E0834234BF00200120084B1B7833B1084BE5
S315080007F01B78134113F0010F08BF00207047012032
S31508000800F2E700BF5A160020591600209615002058
S3150800081058160020012208B5074B1A700022074B0C
S315080008201A700422064B1A701F22064B1A7003F020
S315080008304BFB054B186008BD5A160020961500207C
S3150800084059160020581600200811002008B504483B
S3150800085006F00DFA05F0B0F8BDE8084000F008B853
S31508000860E4760008014806F002BA00BFE4760008FC
S315080008702DE9F047534E96B0354609AC0FCD0FC457
S315080008802B6806F1140523600EAC0FCD0FC495E84E
S315080008900F00DFF8488184E80F004B4806F0E7F9B7
S315080008A0404606F0E4F94FF48073484FADF83C3003
S315080008B0474B38460B9309A90EAB0D9302F0A8F9DE
S315080008C004210225B6F834A00DEB01000122ADF88B
S315080008D004A000F005FAB6F836900022012102A815
S315080008E0ADF8089000F0FCF9368F0122042103A820
S315080008F0ADF80C6000F0F4F90122042104A8354C87
S31508000900ADF8105000F0ECF9334B4FF44870C4F8CA
S31508000910C8344FF00213C4F8C43403F58033C4F85E
S31508000920CC341C23C4F8B43404F0DEF808A8ADF8B7
S31508000930205000F045FA142004F0D6F808A8ADF8BF
S31508000940205000F00FFA232004F0CEF808A8ADF8DE
S31508000950205000F035FAB921384605F037F908A8CD
S31508000960ADF8205000F0FEF9002205A81146ADF8B2
S3150800097014A000F0B5F9002206A81146ADF81890A3
S3150800098000F0AEF90122002107A8ADF81C6000F0BE
S31508000990A7F90122002108A8ADF8205000F0A0F917
S315080009A0384601F0EFFF00234046C4F8B434C4F8D3
S315080009B0C834C4F8C434C4F8CC3406F05BF916B0AD
S315080009C0BDE8F087CC6F0008E476000800000A50FE
S315080009D0E070720000C0035002000100E8760008CB
S315080009E00348044A0449121A921005F06BB800BF6E
S315080009F07001000870010008A415002008B5154B01
S31508000A0083F30A8800F030F8FFF7EAFF124B134920
S31508000A108B4212D30020124B12498B4218D3FFF790
S31508000A20F7FB186850F82240586840F8224001320F
S31508000A3098688242F5D30C33EAE70022F8E71C6887
S31508000A4044F8220001325C68A242F8D30833E4E78E
S31508000A500022F8E700000020BC790008C8790008E1
S31508000A60C8790008C87900084FF48041124B134A28
S31508000A7070B59A60D3F88820114D42F47002C3F815
S31508000A808820104A05F5005491664FF0FF32226619
S31508000A900D4A62660222C3F8D020BFF34F8FBFF318
S31508000AA06F8F4FF44036002003F0B0F90020E6605F
S31508000AB003F07AF92E6170BD00ED00E00000000831
S31508000AC00080004400900050F7FF3700014B186083
S31508000AD0704700BFE8150020054B1860054B1B6FD3
S31508000AE003F00703032B01D105F0A4BC704700BF30
S31508000AF0F01500200080005038B504460D4601B1B7
S31508000B0018B94521044804F0EAFF236813B92B6095
S31508000B10256038BD1C46F8E70670000810B504467F
S31508000B2018B95621044804F0DAFF206818B103689A
S31508000B3023600023036010BD06700008002307B574
S31508000B402948019306F093F84FF4407301220421D3
S31508000B506846ADF8003000F0C3F80122234B0520A3
S31508000B60C3F8442401A906F07DF8002839D1204BA2
S31508000B70D3F8F02042F00102C3F8F020D3F8FC20A5
S31508000B8042F08072C3F8FC201A4AA3F55D431A6046
S31508000B90019B194A03F5D52303F2FC43B3FBF2F391
S31508000BA0164A013B13610223C2F8F0304FF48073F2
S31508000BB0C2F804334FF06043114AC3F8B02F114A04
S31508000BC0C3F8802ED3F8002E42F48072C3F8002EA4
S31508000BD0FF2283F82020D3F8002E22F48072C3F86F
S31508000BE0002E03B05DF804FBE476000800D003503D
S31508000BF000ED00E0FF030040F8590D00000004E096
S31508000C0055CEACC5090001004FF06043D3F8802EDD
S31508000C1030B5D20715D501240B4D8440D5F8FC20F4
S31508000C2042F08072C5F8FC20D3F8002E2243C3F8A0
S31508000C30002E53F82020002AF0D003F820100020B8
S31508000C4030BD1120FCE700BF00ED00E02DE9F041C2
S31508000C5004460C254FF00108124E0CB314F001009F
S31508000C600BD0002024F0010405FB00625768002F12
S31508000C70F3D09168C0B2B847EFE722460130202882
S31508000C804FEA520201D0D307F8D508FA00F20F2826
S31508000C9024EA0204E8D9103805FB0062B432E5E715
S31508000CA0BDE8F0810C11002008B50C4805F0DFFFFF
S31508000CB0192003F093F828B1192003F0A7F8192092
S31508000CC003F072F81A2003F089F828B11A2003F005
S31508000CD09DF81A2003F068F8002008BDE47600089D
S31508000CE02DE9F0410E461746044638B993211A48AD
S31508000CF004F0F5FE22252846BDE8F0810F290CD818
S31508000D00037883B1013BDBB2022B06D8134A32F8CB
S31508000D1013306278D340DB0707D497210E4804F0D6
S31508000D20DEFE2125E7E7FF23F3E70D4BD3F8105343
S31508000D302DB19B21084804F0D2FE0225DBE705F019
S31508000D408BFF80463A462046314602F0DBFD404698
S31508000D5005F07DFFCFE700BF5C700008B67000089D
S31508000D6000C0035038B5044628B91348E42104F0F6
S31508000D70B6FE222038BD037883B1013BDBB2022BD5
S31508000D8006D80E4A32F813306278D340DB0707D408
S31508000D900948E82104F0A3FE2120EBE7FF23F3E747
S31508000DA005F05AFF0546204605F01AFC284605F0C8
S31508000DB04EFF0020DEE700BF5C700008B670000832
S31508000DC038B5044628B91348FC2104F088FE2220C9
S31508000DD038BD03788BB1013BDBB2022B06D80E4A2D
S31508000DE032F813306278D340DB0708D409484FF449
S31508000DF0807104F074FE2120EAE7FF23F2E705F08C
S31508000E002BFF0546204602F047FD284605F01FFF42
S31508000E100020DDE75C700008B670000808B502F02F
S31508000E2067FD054B00F0553020F05020C3F820042C
S31508000E30BDE80840FFF70ABF00E0035008B502F016
S31508000E4057FD054B00F0AA3020F0A020C3F8200477
S31508000E50BDE80840FFF7FABE00E0035070B5044647
S31508000E6086B018B9AC212E4804F039FE2368B3F1D0
S31508000E70B64F07D02B4A93424BD12B4805F0F7FEC5
S31508000E80012503E0294805F0F2FE0025A388012282
S31508000E90ADF80030E3880A216846ADF80430FFF75C
S31508000EA01FFF01220A2101A8FFF71AFF0A26684632
S31508000EB0FFF786FF642003F017FE6846FFF752FF28
S31508000EC0642003F011FE013EF1D10323184A02EB18
S31508000ED00511C1F8E834607923794F3543EA0043B0
S31508000EE0C1F8EC34E179A3792D0143EA0143535162
S31508000EF040F20113ADF80830E36820680493A3684C
S31508000F0002A90393237C8DF8143002F0A5F806B0E5
S31508000F1070BDD121024806B0BDE8704004F0DFBDBF
S31508000F20BC70000800800650DC760008E0760008F1
S31508000F3000C0035038B5054602F0D2F9044C012822
S31508000F4001D1013C00D138BD284602F0B7F8F6E7D2
S31508000F50E19304002DE9F04F9A46564B85B01B786D
S31508000F6006460F461546DDF83C909DF844B0DDF878
S31508000F705080002B00F09780072A00F296800E9B7F
S31508000F80002B00F09280B9F1000F00F08E80129BC2
S31508000F90B3F5006F00F38980012803D1109B002B5D
S31508000FA000F08380444B03EB05131B7B002B7ED09C
S31508000FB0424C10220021684605F018F804EB451447
S31508000FC01022A7BB3946204605F010F843F2100355
S31508000FD06380BBF1000F03D1E37843F00303E370AA
S31508000FE0364A0E9B02EB451CCCE90193129B69011C
S31508000FF0581E9DF84C30C0F30A0003F003039B0605
S3150800100043EA001E53582E48012E00EA03004EEA12
S315080010100003CDF800A0535017D0B8F1000F2ED119
S315080010209CF8023068F304138CF8023027E000219C
S31508001030204604F0DBFF4FF444736380BBF1000FD6
S31508001040CED1E37843F03003C9E713230CF1100E31
S31508001050CCF80C309CE80F008EE80F006FF0030107
S31508001060DCF81C20109B61F39F02012FCCF81C2092
S31508001070CCF8143003D1CCF81890CCF804300027FB
S315080010800D4A290102EB051342F80180159A2846F4
S315080010905A60694622469F605E7302F0FFF9384639
S315080010A005B0BDE8F08F0748FAE70748F8E70748AC
S315080010B0F6E700BF9715002074130020741200206D
S315080010C00F80FFF3028000F0018000F0078000F037
S315080010D038B5124B05461B78DBB1E0B105F0BCFD0F
S315080010E00F4A00231146147B54B92B6001251A01B7
S315080010F001EB03131D738C5005F0A9FD204638BD7E
S315080011000133082B02F11002EDD105F0A0FD0548C8
S31508001110F5E70548F3E70548F1E700BF971500200E
S3150800112074130020048000F0028000F0018000F0B3
S3150800113038B505F091FD002305460B4A147B6CB9BA
S315080011400133082B02F11002F8D102F029F9074BF6
S3150800115028461C7005F07BFD204603E0284605F06E
S3150800116076FD034838BD00BF74130020971500208C
S31508001170058000F00D4B10B51B78044693B107287F
S3150800118012D805F069FD0A4B03EB04131A7B2AB142
S3150800119000241C7305F05BFD204610BD05F057FDC5
S315080011A00448FAE70448F8E70448F6E797150020E4
S315080011B074130020068000F0028000F0018000F021
S315080011C0154B13B51868002301908DF8043005F007
S315080011D043FD124B1C7824B105F039FD104802B0C6
S315080011E010BD01221A7005F032FD0E4B01A81C73C2
S315080011F01C7783F82C4083F83C4083F84C4083F8EE
S315080012005C4083F86C4083F87C4008238DF80730EF
S3150800121002F0FCF82046E2E71A710008971500204C
S31508001220038000F074130020F8B50D4D2D7885B1B4
S31508001230072810DC0B4D060105EB0014277B67B168
S31508001240AB510025069BA560636002F027F9284686
S31508001250F8BD0548FCE70548FAE70548F8E700BF82
S315080012609715002074130020028000F0018000F01A
S31508001270078000F00A4A08B512785AB107280BD831
S31508001280084A02EB00131B7B43B1002102F09EF8CB
S31508001290002008BD0448FCE70448FAE70448F8E7D4
S315080012A09715002074130020028000F0018000F0DA
S315080012B0078000F00A4A08B512785AB107280BD8F1
S315080012C0084A02EB00131B7B43B1012102F07EF8AA
S315080012D0002008BD0448FCE70448FAE70448F8E794
S315080012E09715002074130020028000F0018000F09A
S315080012F0078000F0184B2DE9F0411F6D5B6D1F400C
S3150800130000D5FEE701260025144CDFF85880374241
S3150800131018D02368C8F85060A3B1A16828460131DF
S315080013206268A1609847637B012B0BD150B90C4BBF
S3150800133003EB45131A7B60F341021A731A7F60F3B5
S3150800134041021A770135082D4FEA460604F11004C2
S31508001350DDD1BDE8F08100BF000004507413002001
S315080013607412002000200450044BD3F88420D206BF
S31508001370FBD4D3F88400C0F38110704700400050B6
S3150800138038B5104B0546D3F800310C4603F0030375
S31508001390022B0BD0032B0DD0012B0FD105F064F8CF
S315080013A0032305B1286004B1236038BD05F0AEF803
S315080013B00923F6E705F05EF80823F2E70123002083
S315080013C0EFE700BF0080005038B5104B0546D3F84C
S315080013D040310C4603F00303022B0BD0032B0DD030
S315080013E0012B0FD105F024FC0A2305B1286004B1AE
S315080013F0236038BD05F08AF80923F6E705F01BFCDB
S315080014000C23F2E701230020EFE700BF008000501D
S3150800141038B5104B0546D3F860310C4603F0030384
S31508001420022B0BD0032B0DD0012B0FD105F000FC9E
S315080014300A2305B1286004B1236038BD05F066F8B3
S315080014400923F6E705F0F7FB0C23F2E70123002052
S31508001450EFE700BF0080005038B5104B0546D3F8BB
S3150800146040320C4603F00303022B0BD0032B0DD09E
S31508001470012B0FD105F0DCFB0A2305B1286004B166
S31508001480236038BD05F042F80923F6E705F0D3FBDB
S315080014900C23F2E701230020EFE700BF008000508D
S315080014A038B5124B0546D3F880300C4603F00303D3
S315080014B0022B0BD0032B0DD0012B0FD104F09AFF72
S315080014C00E2305B1286004B1236038BD04F0D6FFA9
S315080014D00723F6E704F088FF0623F2E7044841F2FB
S315080014E0142104F0FCFA00231846EAE700800050AD
S315080014F01E71000838B51A4B0546D3F820010C466C
S3150800150000F00700062821D8DFE800F028040C14AC
S3150800151010181C0004F068FF052305B1286004B103
S31508001520236038BD04F0A0FF0323F6E704F0A6FF06
S315080015300723F2E704F094FF0223EEE704F054FFD2
S315080015400623EAE704F090FF0423E6E7054841F29C
S31508001550912104F0C4FA00231846DEE70123DCE7EC
S31508001560008000501E71000838B5194B0546D3F89F
S3150800157028310C4603F00703013B052B20D8DFE88A
S3150800158003F003131B0F0B1704F02EFF052305B1F9
S31508001590286004B1236038BD04F026FF0623F6E769
S315080015A004F06CFF0723F2E704F05EFF0323EEE77F
S315080015B004F05AFF0423EAE704F052FF0223E6E7A1
S315080015C0044841F2990104F08AFA00231846DEE736
S315080015D0008000501E710008002337B50193194B8F
S315080015E00546D3F820320C4603F00703042B1FD810
S315080015F0DFE803F025030F141900002101A8FFF7FF
S31508001600B3FF12230DB1019A2A6004B1236003B017
S3150800161030BD04F033FF07230190F3E705F008FB1C
S315080016200A230190EEE704F071FF09230190E9E728
S3150800163041F25601044804F052FA0023E2E7012376
S31508001640E0E700BF008000501E710008F7B50027CC
S31508001650144B0197D3F88041064604F00304022C84
S315080016600D4614D0032C0DD0012C14D1394601A8EF
S31508001670FFF740FF10240EB1019B336005B12C60C3
S3150800168003B0F0BD04F0FAFE07240190F3E704F076
S31508001690E7FE0190EFE741F2E631034804F01FFA4E
S315080016A03C46E8E7008000501E71000838B5164B26
S315080016B00546D3F800020C4600F00700042819D89E
S315080016C0DFE800F020030B0F130005F0B1FA0A2338
S315080016D005B1286004B1236038BD04F017FF09235B
S315080016E0F6E705F0A8FA0C23F2E704F0A3FE0F23A9
S315080016F0800AEDE7054841F2A44104F0F0F9002319
S315080017001846E5E70123E3E7008000501E7100084C
S3150800171038B5164B0546D3F808020C4600F0070004
S31508001720042819D8DFE800F020030B0F130005F092
S315080017307FFA0A2305B1286004B1236038BD04F096
S31508001740E5FE0923F6E705F076FA0C23F2E704F03E
S3150800175071FE0F23800AEDE7054841F2DC4104F0EB
S31508001760BEF900231846E5E70123E3E700800050A9
S315080017701E710008002337B50193184B0546D3F8A8
S3150800178060320C4603F00703013B032B1FD8DFE842
S3150800179003F0020E1914002101A8FFF7ABFE10236F
S315080017A00DB1019A2A6004B1236003B030BD00214F
S315080017B001A8FFF709FE1123F2E704F05FFE0723ED
S315080017C00190EDE704F04CFE02230190E8E741F2B0
S315080017D0FD01034804F083F90023E1E70080005087
S315080017E01E710008002337B50193184B0546D3F838
S315080017F094320C4603F00703013B032B1FD8DFE89E
S3150800180003F0020E1914002101A8FFF773FE102336
S315080018100DB1019A2A6004B1236003B030BD0021DE
S3150800182001A8FFF7D1FD1123F2E704F027FE0723ED
S315080018300190EDE704F014FE02230190E8E741F277
S315080018403011034804F04BF90023E1E7008000500B
S315080018501E71000873B500240F4B0194D3F870323B
S31508001860064603F00303012B0D4607D0022B11D0C1
S3150800187041F25B11094804F032F904E0214601A857
S31508001880FFF7A2FD11240EB1019B336005B12C6050
S3150800189002B070BD1524F6E7008000501E710008DE
S315080018A008B5334B98424FD027D8324B984245D08B
S315080018B017D8314B98423ED00AD838B12F4B9842A8
S315080018C039D041F2BB312E4804F009F9002034E042
S315080018D02C4B98422FD02C4B9842F2D12B4B586E5A
S315080018E02BE02B4B98422CD003F5371303F5D8631E
S315080018F09842E6D1254B986F1FE0264B98422FD089
S315080019000CD8254B984223D0244B984224D0244BFC
S315080019109842D6D11D4BD3F884000EE0214B98424D
S3150800192022D003F5740303F510539842C9D1174B17
S31508001930D3F8980001E0154B986D08BD134B186F46
S31508001940FBE7124B586FF8E7104BD3F88000F4E723
S315080019500E4BD3F88800F0E70C4BD3F88C00ECE775
S315080019600A4BD3F89000E8E7084BD3F89400E4E76D
S3150800197080BA8C01405DC60080841E0040420F007C
S315080019801E71000800093D00C0CF6A000080E00F04
S315080019900024F400007E560380D54302006CDC0266
S315080019A00048E8010090D003B0F5207F10B52ED08E
S315080019B009D8B0F5007F24D003D868B1B0F5C07F48
S315080019C00AD000241BE0B0F5607FFAD1124BD3F899
S315080019D08040C4F3011412E00F4B1C6F230B13F065
S315080019E00E0FC4F303340AD0072C08D00F2C06D0E8
S315080019F0032C04D04FF42271084804F070F8601CD8
S31508001A0010BD054BD3F89040C4F30464F7E7024BC6
S31508001A101C6FC4F38024F2E7008000501E71000892
S31508001A204FF4803238B5104B04469A6600200D46AE
S31508001A30FFF7BAFF41F671320C4B6043DC69DA6393
S31508001A405A6804F4803422F440125DB90849884281
S31508001A5094BF00200120000502435A600CB1002201
S31508001A60DA6338BD0349F2E70090005000000350DE
S31508001A70005A6202002D310138B5430904460D4665
S31508001A800ED140F235310D4804F029F8002304F050
S31508001A901F0485B103F580530122A2401A6038BDA0
S31508001AA0012B04D0022B04D040F24331EBE7044B60
S31508001AB0EDE7044BEBE703F50053EDE71E7100086D
S31508001AC06480005068800050002130B5B0F5807FF2
S31508001AD085B00446CDE9001100F0D3803DD85E28D4
S31508001AE033D85E2833D8DFE800F048323232323253
S31508001AF032323232323232323232323232323232B8
S31508001B003232323232323232323248AD48ADBDBD6F
S31508001B10BDBDBDADC7516EDD51ADADAD3232323250
S31508001B2032323232ADADAD81E7AD32323232323297
S31508001B3032323232323232BD484848E25151EC90A4
S31508001B4066C2323232323298480080286AD040F271
S31508001B50A441604803F0C3FF67E0B0F5D06F00F01A
S31508001B60A18035D8B0F5607F77D01AD8B0F5007F58
S31508001B705ED005D8B0F5C07FE9D104F05BFC53E030
S31508001B80B0F5207F5ED0B0F5407FE0D104F052FC7E
S31508001B9004464FF42070FFF707FFB4FBF0F464081F
S31508001BA059E0B0F5B06F67D00AD8B0F5806F59D054
S31508001BB0B0F5A06FCBD100216846FFF70DFD34E0E4
S31508001BC0B0F5C06FC3D100216846FFF7FDFB2CE0D6
S31508001BD0B0F5106F6BD00ED8B0F5086F76D0B6D8C2
S31508001BE0B0F5E06F68D0B0F5F06FB0D10021684667
S31508001BF0FFF70EFC19E0B0F5406F38D00AD8B0F5FB
S31508001C00206F5ED0B0F5286FA1D100216846FFF796
S31508001C1021FE0AE0B0F5486F99D100216846FFF722
S31508001C20E1FD02E004F0E6FB0090009805B030BD47
S31508001C3004F0E0FB05462046FFF7B6FEB5FBF0F5D7
S31508001C400095F2E704F0F6FB04464FF42070FFF720
S31508001C50ABFEB4FBF0F40094E7E701A8FFF720FC1D
S31508001C60019DE8E700216846FFF744FCDDE700210F
S31508001C706846FFF779FCD8E700216846FFF7E6FCD7
S31508001C80D3E74FF0E02302911B695B0705D504F003
S31508001C90D1FB0290029B0093C7E703A902A8FFF7AE
S31508001CA093FBF7E700216846FFF700FDBDE7002133
S31508001CB06846FFF72DFDB8E700216846FFF7CCFB1D
S31508001CC0B3E700216846FFF755FDAEE76846FFF71C
S31508001CD057FBAAE71E71000808B58020FFF7F4FE37
S31508001CE0034B98429EBF4FF48032024B1A6708BDD9
S31508001CF0005A620200A000501FB503460020B3F543
S31508001D00807F019000F0C58063D85D2B54D84C2B9A
S31508001D1006D82D2B46D8232B2AD840F28951A7E07E
S31508001D204D3B102BF9D801A252F823F0891E000862
S31508001D301B1D00081B1D00081B1D0008331E00087C
S31508001D401B1D00081B1D0008E31E0008511E000885
S31508001D50F71D0008D91E00081B1D00081B1D0008DA
S31508001D601B1D00081B1D00081B1D0008ED1E000892
S31508001D70243B092BD1D801A252F823F0891E00086A
S31508001D80891E0008891E0008891E0008891E000889
S31508001D901B1D0008791E00081B1D0008131E0008DD
S31508001DA0BF1E00083D2B00F085803E2BB5D10020D4
S31508001DB001A9FFF751FB63E0802BAED14E4B1B6F99
S31508001DC003F00703013B032B50D8DFE803F04D4629
S31508001DD0494BB3F5F06F6DD020D8B3F5B06F4BD043
S31508001DE00ED8B3F5607F73D097D3B3F5806F4BD019
S31508001DF0B3F5A06F91D1002001A9FFF7EDFB3FE0F5
S31508001E00B3F5D06F5BD0B3F5E06FD0D0B3F5C06F44
S31508001E1083D1002001A9FFF7D7FA31E0B3F5206F87
S31508001E205FD00BD8B3F5086F4ED0B3F5106F7FF4BB
S31508001E3074AF002001A9FFF76BFC21E0B3F5406FF2
S31508001E404AD0B3F5486F51D0B3F5286F7FF465AF24
S31508001E50002001A9FFF7FEFC12E0052301930FE01D
S31508001E600323FBE70823F9E70223F7E740F2D64105
S31508001E70224803F034FE03E0002001A9FFF7E6FB41
S31508001E80019805B05DF804FB002001A9FFF732FBB5
S31508001E90F6E74FF0E02302901B695B0705D504F0CF
S31508001EA0C9FA0D230393039BD8E703A902A8FFF7F2
S31508001EB08BFAF8E7002001A9FFF7AAFAE0E7002065
S31508001EC001A9FFF7F3FBDBE701A9FFF759FAD7E703
S31508001ED001A9FFF7E5FAD3E7002001A9FFF744FBBC
S31508001EE0CEE7002001A9FFF745FCC9E7002001A9B4
S31508001EF0FFF778FCC4E700BF008000501E71000899
S31508001F004FF48032074B0849586E03F580535A66DA
S31508001F104B6A23F001034B62C3035CBF034B5A664B
S31508001F20704700BF0080005000C0075000A0005056
S31508001F3038B5036804460F2B04D940F68A317C4825
S31508001F4003F0CDFD63680F2B04D940F68D31784830
S31508001F5003F0C5FDA3680F2B04D94FF43961744803
S31508001F6003F0BDFD237B0F2B04D940F6933170484F
S31508001F7003F0B5FD637B0F2B04D940F696316C4808
S31508001F8003F0ADFDA37B3F2B04D940F69931684891
S31508001F9003F0A5FDE37B3F2B04D940F69C3164484A
S31508001FA003F09DFD2369032B04D940F69F31604851
S31508001FB003F095FD6369032B04D940F6A2315C480A
S31508001FC003F08DFDE369032B04D940F6A531584883
S31508001FD003F085FD8020FFF78FFE032800F083803D
S31508001FE04FF48012534B4FF0A0615A6645F60E0225
S31508001FF0514BC3F88020514A91624FF4803102F563
S31508002000805291629A6DD203FCD4996D11F0804189
S31508002010FBD1D4E90002120542EA0062E07B0243E2
S31508002020207B42EA0042607B42EA0032A07B42EA19
S3150800203080121A619869D4E90452120642EA856246
S3150800204000F000400243A07EE57E0243207E42EA7D
S315080020500042607E42EA00229A611A6AE06922F02A
S315080020600F0242EA8502364D00283DD11A6294F8DD
S315080020702420996A94F82000D200294042EA4012A6
S315080020800A4394F8211042EA011242F480329A6215
S315080020902C49294A936D31EA0303FBD14FF080712D
S315080020A0264881621369A56823F4700343EA055339
S315080020B013614FF00043836194F822300BB9224B29
S315080020C0996294F823303BB94FF480321E4B9A62DA
S315080020D0194A936D5B00FCD494F825301BB1164B56
S315080020E01A4AC3F8802038BD024342F00802022883
S315080020F01A6208D119614FF40852996114484FF4CD
S315080021007F4103F021FD0C4994F822308A6A94F83D
S3150800211020001B062A4043EA4013134394F8242060
S3150800212043EAC20394F8232043EA02438B62D3E7C7
S315080021301E710008009000500040005A0050005AD6
S31508002140C7FFFEFE030001000060005AF1A7FFFF6B
S315080021503440005A014B93F9000070475B16002083
S31508002160436810B5072B044604D940F6E6512A48B9
S3150800217003F0B5FCA368032B04D940F6E8512648BA
S3150800218003F0ADFC2378032B04D940F6EA51224824
S3150800219003F0A5FC94F90130002B04DA40F6EC5163
S315080021A01D4803F09CFC4FF400011C4A63785166F5
S315080021B04FF4D151022002F5B832516218494F2B1B
S315080021C048604FF0010028BF4F2301F58051486051
S315080021D01169C903FCD4217843EA01235361D4E980
S315080021E001131B0143EA0123617B0B43217B43EA6D
S315080021F041039360E37BA17B1B0143EA4113617CA6
S315080022000B43217C43EA41035360A37C13B16FF46B
S31508002210D153536210BD00BF1E71000800900050D4
S3150800222000100250014B1880704700BF5616002058
S31508002230014B1880704700BF541600204FF48002E7
S3150800224008B5184B5A660223174A5360936813F465
S315080022508033FBD1012822D104F006F9134B9842AA
S3150800226015D003F5122303F5F863984213D0104BE3
S3150800227000EB8002400AB3FBF0F3520A0A49CA622D
S315080022800B6301234B620022074B5A6008BD45F6D3
S315080022907A13084AF2E745F61A03074AEEE7536245
S315080022A0F1E700BF009000500040025000F04902DC
S315080022B064666666D8B80500BBCF0500B0F5207F12
S315080022C038B577D00ED8B0F5007F61D003D890B373
S315080022D0B0F5C07F2FD04FF44671BDE838403D4871
S315080022E003F0FDBBB0F5607FF5D13B4A4C1ED2F832
S315080022F0FC5015F080751EBFD2F8FC3023F08073B1
S31508002300C2F8FC30032C04D940F2F721314803F017
S31508002310E6FB324AD2F8803023F0300343EA04134E
S31508002320C2F8803035B12C4AD2F8FC3043F08073BD
S31508002330C2F8FC3038BD4C1E012C0AD9102903D826
S31508002340274BCB40DB0704D440F2CB21214803F0CE
S31508002350C6FB03F008FC03F014FC4FF48031214B54
S315080023601E4A1967136F23F4704343EA043313674D
S3150800237004F060F80446FEF7F7FFC0F102012046B4
S3150800238003F0F9FB00F048F8BDE83840FFF7A4BCB5
S315080023904C1E1F2C04D94FF443710E4803F09FFBC3
S315080023A00E4AD2F8903023F0F85343EA0463C2F891
S315080023B09030BFE74C1E012C04D940F21231054873
S315080023C003F08DFB054A136F23F4806343EA8423E5
S315080023D01367AFE71E71000800ED00E000800050AB
S315080023E0100101000090005008B50121022000F0FC
S315080023F099F94FF42070FFF7D7FA054B187003F0D8
S31508002400B2FB03F0BEFB4FF48032024B1A6708BDDD
S31508002410981500200090005008B54FF4C070FFF7DB
S3150800242053FBBDE808400449884294BF01210221B4
S315080024304FF42070FFF742BF80F0FA0238B5044621
S3150800244003F0F8FF0546FEF78FFFC0F102012846A4
S3150800245003F091FB0121002000F0B8F92CB1FFF739
S31508002460DBFFBDE83840FFF737BC034B4FF420705D
S315080024701978FFF723FFF4E7981500202DE9F041B6
S315080024800546FFF70DFA431E0333044604D940F602
S31508002490E2113B4803F023FB4FF4C022394B5A663E
S315080024A003F598335A68012A04D137494A605A68AD
S315080024B09207FCD48020FFF71FFC052807D103F0FC
S315080024C052FB03F05EFB4FF480322E4B1A672F4BFC
S315080024D024F040749D4239D02D4B9D4239D003F0EB
S315080024E083FF8542064603D90121284600F06EF986
S315080024F0284FFB6813F0060FFBD1D7F80880BC609D
S31508002500BB68634013F4F81F26D12846FEF7DEFAA7
S315080025108020FFF7F1FB052814D103F08BFFA842B2
S31508002520044604D940F63B21154803F0D8FAFEF7CD
S315080025301BFFC0F10201204603F01DFBFFF76CFFED
S31508002540FFF7CAFBAE4213D2BDE8F08144F000742F
S31508002550C5E744F08074C2E740F62A21084803F02C
S31508002560BEFA8020C7F80880FFF7C6FB052805D005
S31508002570BDE8F0410121002000F028B93546CCE736
S315080025801E7100080090005000E0015040420F0004
S3150800259080841E00000001504E4B70B598420546D7
S315080025A073D041D8A3F5B703A3F55863984265D00D
S315080025B033D8494B494E984251D017D8002877D07E
S315080025C041F2DE11464803F08AFA40F6867144481D
S315080025D003F085FA4FF40022404B5A663E4B9D4263
S315080025E076D000243F4A954236D05DE03D4B98426E
S315080025F027D03D4B9842E3D13C4BD3F8A040621E0E
S31508002600033224F040744CD940F68671344803F0FE
S3150800261066FA4FF400237366E4E7354B9842CFD148
S31508002620324BD3F8BC402CE0324B984231D0324B77
S31508002630984232D0314B9842C2D12C4BD3F8C8407D
S315080026401FE02A4BD3F8A040621E033224F04074E0
S31508002650DAD84FF40023736644F0807424E0234BE1
S31508002660D3F8A040621E033224F040742AD84FF4EF
S3150800267000237366234643F0007415E01B4BD3F81A
S31508002680B840621E154E0332BBE7184BD3F8C0405C
S31508002690F7E7164BD3F8CC40F3E7144BD3F8D04002
S315080026A0EFE74FF4002373664FF0B442946070BDB1
S315080026B040F686710A4803F012FA4FF400232C46B6
S315080026C07366F1E740F68671054803F008FACEE727
S315080026D00023D0E7C0EA210140420F0000900050D5
S315080026E01E71000880841E0000093D000080E00F6E
S315080026F00024F4000048E801005A620280BA8C01FE
S31508002700024A536B0342FCD1704700BF0040095090
S31508002710034A0179D36E23F030030B43D36670471F
S3150800272000400050F8B50446244BD3F88420D00660
S31508002730FBD4D3F88430C3F381139C423CD003F016
S3150800274059FE012C05460BD11D4B984204D940F27F
S315080027509B711C4803F0C3F90121284603F00BFAC4
S3150800276004F071FA4FF00072174B07465A66204676
S3150800277003F00CFA4FF48063104E621E93403367E1
S31508002780736E9A0103D4D6F884309B060AD5384668
S3150800279004F054FA022C0FD12846BDE8F84000216F
S315080027A003F0E9B9D6F884309906E9D540F2B37151
S315080027B0044803F094F9E3E7F8BD00BF0040005071
S315080027C0005A6202717100080060005010B50C468C
S315080027D008B903F00FFE074B21461B783BB1064BA1
S315080027E0984204D80120BDE81040FFF79BBF02209D
S315080027F0F9E700BF99150020005A62024FF000421F
S3150800280038B5244B244C5A664AF6CD33656C0146D6
S3150800281005F00105236428BB0120FFF771FF6368F3
S31508002820DB0715D51D4B586008461D4B226BD20792
S315080028300CD4984208D1072415B1174B194A1A64C3
S3150800284003F0A5F9204638BD0130EFE79842F2D0EB
S315080028500024F1E70132236B13F0080305D08A42FE
S31508002860F8D1E8E700220E49F5E78A42E3D02021AD
S315080028700A4A91620121A2F5805251600649084A26
S31508002880886A800603D49342D5D00133F8E7934289
S31508002890DDE700BF00900050004009500060095075
S315080028A040420F003254FFFF4FF0004238B5164B36
S315080028B001465A664AF6CD33144C154A656C2364AC
S315080028C043780B205B0043F00103D363FFF718FF3F
S315080028D063688A7823F4F87343EA02136360CA7854
S315080028E04B7943EA0223A3600A798B7943EA0223E8
S315080028F023610878FFF782FFEB0744BF054B236483
S3150800290003F045F9012038BD0090005000400950F9
S31508002910004000503254FFFF0F2870B5044605D911
S3150800292040F67461124803F0DAF80F244FF00042BB
S31508002930104B11495D6E03F580535A664AF6CD333E
S315080029404E6C80200B64FFF7DBFE0B6A23F00F0347
S3150800295023430B62F30744BF084B0B64002DA2BF49
S315080029604FF00042064B5A6603F011F970BD00BFDE
S315080029707171000800800050004009503254FFFF72
S3150800298000A0005010B503F007F9042300F58051A4
S3150800299000F500520B6113610B6113610B61136142
S315080029A00B611361202341F2020103610023C36016
S315080029B0836041614FF4A0218361836541620549C3
S315080029C0C36103628362C36243630365D1640363BD
S315080029D010BD00BFFF3F0D0338B5174B044698429C
S315080029E00D4607D0154B984204D040F26911144899
S315080029F003F075F825B92046BDE8384003F0CCB891
S31508002A00012204F580535A6040F6FF71204605F00E
S31508002A100F0203F0BDF8A263782103F0B9F805F0B8
S31508002A2001036A0748BF43F00203A26C02F00302DF
S31508002A309A42FAD138BD00BF0000015B00000A5077
S31508002A40C4710008F8B505460C46164622B940F288
S31508002A5027216B4803F043F86A4B9D4202D19CB983
S31508002A6056240DE0684B9D4247D040F22A2164481F
S31508002A7003F035F844B940F27931614803F02FF88C
S31508002A802046FFF721F80446AB68D80745D5B44277
S31508002A9004D24FF40D715A4803F021F8B4FBF6F44A
S31508002AA06F68013CFF2C07F0010704D94FF40F713A
S31508002AB0534803F014F824064FB32821284603F098
S31508002AC067F8AB6C99071CD1AB6CDA071BD4AE6CF4
S31508002AD016F0020619D140F24921494802F0FFFFD3
S31508002AE0284603F059F82B69314623F07F432343E0
S31508002AF02B61BDE8F840FFF76FBF002CC4D15724FF
S31508002B00BEE70526ECE70926EAE70626E8E72B6985
S31508002B1023F07F4323432B61F8BD6B68012B04D058
S31508002B204FF41771364802F0DAFFAB6DDB07AB6876
S31508002B3048BF760003F0E003402B42D009D893B192
S31508002B40202B1AD040F29E21BDE8F8402C4802F00E
S31508002B50C6BF602B42D0802BF4D106EB4603A342B6
S31508002B6047D801230DE0B6EB141F04D94FF42171A1
S31508002B70234802F0B4FF102303E0B6EBD40F1AD8AB
S31508002B80082373436401B4FBF3F4204F203CB7EBEE
S31508002B90C40F4FEAC40604D240F2A921184802F02D
S31508002BA09EFF28463E40012102F0F2FF2E63BDE853
S31508002BB0F84002F0EDBF40F28921114802F08FFF7C
S31508002BC0DEE70623B4FBF3F3B34201D30623D8E7C3
S31508002BD040F28E210A4802F082FFF7E7B6EB940F1F
S31508002BE001D80423CDE740F29321054802F077FF88
S31508002BF0F7E74FF42671024802F071FFB1E700BF0C
S31508002C00C47100080000015B00000A50F8FF7F004D
S31508002C10F8B5774B044698420E4606D0754B98424F
S31508002C2003D0E221744802F05AFF1EB9E421724823
S31508002C3002F055FF727BB3687AB1704A934203D9A2
S31508002C40E6216D4802F04BFF3369C3B1DB7BB3B1B4
S31508002C50E921694802F043FF11E0694A934203D922
S31508002C60EC21654802F03BFF336943B11A7F32B164
S31508002C70B168644A5B7F914278D9042B78D8636837
S31508002C80356923B140F6FF71204602F081FF2046E0
S31508002C90FFF778FE2269737BB17B22F087020B432C
S31508002CA0134343F080032361002D63D02369297FF2
S31508002CB023F0F80343EAC1132978EA7B0B43297901
S31508002CC043EA4113697A43EA011343EA821323610B
S31508002CD0E068D5E9053720F0F0403B4320F4702042
S31508002CE00343287B697B43EA802343EAC133E360D5
S31508002CF0A368F07B23F00303034343F00103A360B7
S31508002D006B88A06803F4C0430343A360A36868798B
S31508002D1043EA8023A360AB79EF79606A1B013F021F
S31508002D2003F0700307F4E06720F4772020F4EE60E0
S31508002D303B430343287A000300F4E0400343687FDB
S31508002D40000400F47020034363626369307B23F058
S31508002D500F03034363616B89A36141BBC2B1244B73
S31508002D609C422ED0234B9C423CD011E0042B86D8A3
S31508002D70F3216EE7A368F27B23F00303134343F0C2
S31508002D800103A3606369327B23F00F031343636176
S31508002D902046D6E90112FFF755FE20463178FFF79F
S31508002DA01BFEA36CDB4313F4405FFAD1F8BD104B4E
S31508002DB09C420CD1AB7B144903F00F034B67002AE6
S31508002DC0E6D02B7C104A03F00F031367E0E7094BA4
S31508002DD09C42DDD1AB7B0C4903F00F03C1F8803070
S31508002DE0002AD5D02B7C084A03F00F03D367CFE718
S31508002DF00000015B00000A50C4710008002D310173
S31508002E00809698003F4B4C0000900350032838B535
S31508002E1004460D4605D8094B33F81030CB40DB077E
S31508002E2004D440F28541064802F059FE30230122B7
S31508002E305C43044BAA401A5138BD00BFC47200084F
S31508002E401A72000840D00350032838B504460D46C8
S31508002E5005D8094B33F81030CB40DB0704D440F2D1
S31508002E605641064802F03BFE302301225C43044BE0
S31508002E70AA401A5138BD00BFC47200081A72000869
S31508002E8040E0035003282DE9F04104460D46174655
S31508002E90984605D81D4B33F81030CB40DB0704D4D1
S31508002EA04FF4B0711A4802F01AFE37B12946204687
S31508002EB0B8F1000F20D0FFF7A9FF0F21072D04EB6B
S31508002EC0440688BFA5F108034FEA0616114895BFC0
S31508002ED0AB009B0004360C3607FA03F299403044DF
S31508002EE002F07EFE7FB929462046B8F1000F06D0CB
S31508002EF0BDE8F041FFF78ABFFFF7A6FFDDE7BDE8AB
S31508002F00F041FFF7A1BFBDE8F08100BFC472000819
S31508002F106F72000830C00350F8B506460F461546CE
S31508002F20002A6AD003F00304836823F4407383609D
S31508002F3003F089FEB26882EA042303F4407353401F
S31508002F40B36003F07BFE37B9B6F1B64F0DD12E202C
S31508002F50FEF7BAFD0746B3689A0717D5012C1BD0AA
S31508002F60022C27D064B9264B17E0264B9E4201D186
S31508002F702F20EDE740F22F11234802F0B0FDB36889
S31508002F804FF4B271204802F0AAFD08E0012C13D0D4
S31508002F90022CE7D11D4B00E01D4B9F42F0D91D4B7B
S31508002FA01B5D6B430AD140F27511BDE8F84016481F
S31508002FB002F095BD184BF0E7184BEEE7A3EBC504F6
S31508002FC0013C3C44B4FBF3F4013C0CD540F27B11C4
S31508002FD00D4802F084FD4FF4BE710B4802F07FFDE8
S31508002FE0B368B461F8BDB4F5007FF4D2B3689B0743
S31508002FF0F7D5002C08BF0124F3E740F21511D4E7F2
S3150800300080841E0000800650CC720008002D310115
S31508003010404B4C001F730008809FD5004054890020
S31508003020B0F1B64F38B504460D4607D0084B98425E
S3150800303004D040F29511074802F051FD043425B139
S3150800304004F580540123236038BD04F50054F9E7DC
S3150800305000800650CC720008B0F1B64F38B5044669
S315080030600D4607D0124B984204D04FF4D57111483B
S3150800307002F035FD0023104A236404F50053DA6391
S315080030806A7804F108037AB903F5805302221A60B4
S315080030902046D5E901122B7BFFF73EFF204629780B
S315080030A0BDE83840FFF7BCBF03F50053EEE700BFA5
S315080030B000800650CC720008FFFF1F00B0F1B64F23
S315080030C070B50AD0824B98421DD0824840F2012141
S315080030D002F005FD6FF0030070BD7F4B9968C26B67
S315080030E012F4C06F15D091050FD5FD225A7009222A
S315080030F01A700022026493F90110012900D15A704E
S3150800310093F90100E8E7754BE8E75605EFD5FE2287
S31508003110ECE71C78082C00F2D680DFE814F00900EA
S315080031201F004500530070007E009C00A700CB00DE
S315080031304C880A88E5060AD5120A02F0060242F009
S31508003140F002012119704263C1600120C4E702F050
S31508003150FE02A10748BF42F00102F2E7160608D5AB
S31508003160802100F50052D1634FF608721A800223B7
S3150800317018E05506E9D5402400F50052D4634A887C
S31508003180D40604D502221A700B784363DDE7960746
S315080031906AD507221A701B7901EBC3031B89012B19
S315080031A0D3D10823C360D0E71506D9D45406CCD5A5
S315080031B0402400F50052D4634A88920754D5032266
S315080031C01A708CE74C880A88E60643BF120A02F092
S315080031D0060242F0F00202F0FE02650709D51C79E4
S315080031E042F0010201EBC4010989012904BF082143
S315080031F0C160042119700123C3604263A5E7140660
S31508003200AED45206A1D5402400F50052D4634A88AC
S31508003210560729D507221A7097E71A795D8801EBB0
S31508003220C2042689AE420FD800240132D2B21A71DE
S315080032305C804C886507C2D4E40702D4012A7FF66D
S315080032404EAF08221A7092E76268691C5980525D6F
S3150800325042630622DFE7160682D455067FF575AF68
S31508003260402400F50052D4630522A9E794067FF5A9
S315080032706CAF20261A7900F5005401EBC2010A89C1
S31508003280456AE6635C88A24281BF4968661C5E801F
S315080032900D5559888A42D4D90424012AC46004D019
S315080032A0013A914201D10822C2601A78092A3FF4EC
S315080032B020AF4AE7D2057FF548AF4FF4807100F595
S315080032C00052D16313E74FF609321A8011E700BF9F
S315080032D000800650CC720008F41300200014002069
S315080032E0B0F1B64F38B504460D4607D121B940F2BC
S315080032F06A31264802F0F3FB254B13E0254B98422A
S315080033000DD040F26931214802F0E9FB25B940F2B7
S315080033106A311E4802F0E3FB6FF0030038BD00294E
S315080033202BD01D4B2269D00744BF2022E2606A8851
S31508003330910702D529890029EED0520702D52A8A93
S31508003340002AE9D04FF480721A6000229D601A7133
S31508003350C023E3606369DB0515D4202204F5005316
S31508003360DA630E4A2046DA634FF4FC6204F58053AA
S315080033701A64BDE83840FFF7A1BE40F26A31034837
S3150800338002F0ADFBCDE7636AE4E700BFCC72000844
S31508003390F41300200080065000140020FFFF1F00D1
S315080033A010B5152000F0E2FC0024FF22064B21464A
S315080033B05C6520209A625C60FEF75EFB2146BDE8EC
S315080033C010402120FEF758BB00000450072838B5E6
S315080033D004460D4603DD7721084802F080FB1F2CC2
S315080033E003D99121064802F07AFB064A064B002DBE
S315080033F008BF13460122A2401A6038BD237300088D
S3150800340077730008401004504020045010B5044655
S3150800341018B991211F4802F062FB23781B0613F0A6
S31508003420604F03D092211B4802F059FBE3780F2B1B
S3150800343003D99521174802F052FB01212020FEF7F7
S315080034401BFB01212120FEF717FB0122124B152039
S315080034505A60227812069A606178A27842EA014296
S315080034609A61FF229A6200229A631A644FF0004218
S315080034705A654FF0FF3203F500531A6500F0C6FC93
S315080034801520E17800F0D0FCBDE81040152000F0CA
S315080034908BBC00BF2373000800000450F8B5012652
S315080034A0C3B2072805460C46174606FA03F603DD97
S315080034B0DE21344802F013FB1CB9DF21314802F043
S315080034C00EFB236823F47C1323F00F031BB1E221C0
S315080034D02C4802F004FBA37A1B0413F47C0F03D0D8
S315080034E0E721284802F0FBFAE37A1B0513F07E6F02
S315080034F003D0E921234802F0F2FA237B5B0513F097
S31508003500FE5F03D0EB211F4802F0E9FA1E4B27F0B5
S3150800351003071E65AB00226803F1A04303F5882361
S315080035205A60302202FB05F0637B00F1A04000F5EB
S3150800353080200366E37AA27A1B0543EA0243227BCC
S3150800354043EA4253C365076703F086FB0F4B227AAB
S315080035505E6502B11E64627A02B19E632279A3791E
S3150800356043EA0243084A93616179E37943EA0143EE
S3150800357006498B61064B56639E64BDE8F84003F026
S3150800358066BB00BF237300080020045000100450D7
S315080035900000045010B50124C3B2072804FA03F446
S315080035A004DD40F27B11074802F099FA03F054FB58
S315080035B0054B5A6D22EA04025A659C62BDE8104022
S315080035C003F045BB237300080000045010B501241E
S315080035D0C3B2072804FA03F404DD40F299110A4835
S315080035E002F07DFA03F038FB084BDA6A224208D16A
S315080035F05B6B9C430CBF0124002403F028FB204688
S3150800360010BD0024F9E700BF23730008000004502A
S3150800361070B50125C3B20728044605FA03F504DD8B
S315080036204FF4E071094802F05AFA03F015FB30220C
S31508003630074B5E6B02FB04335C6E03F008FB3542F6
S315080036400ABFC4F30A100020013070BD23730008B6
S3150800365000000450F8B507460C461E4615464AB9FA
S3150800366040F25511314802F03AFA24B1402E09D1F8
S31508003670062328E021B94FF42070FEF725FA044600
S31508003680402E42D0402E09D87EB1202E17D04FF4B6
S31508003690CE71BDE8F840254802F021BA602EF6D171
S315080036A0B5EB940F3CD804230DE0B5EB141F04D9F1
S315080036B040F287111D4802F012FA102303E0B5EB19
S315080036C0D40F1CD808235D436B0803EB4413B3FBE4
S315080036D0F5F3174D203BB5EBC30F4FEAC30404D2ED
S315080036E040F2B311114802F0FAF9602207F50053C7
S315080036F09A602C4007F580539E60FC61F8BD4FF434
S31508003700C6710A4802F0EBF9DCE70623B4FBF3F3CB
S31508003710AB42ADD240F29111044802F0E0F9A7E7B6
S315080037204FF4CB71014802F0DAF9BCE7CB73000815
S31508003730F8FF7F0038B50C4B044698420D4604D076
S315080037404FF43971094802F0CAF9012204F5805389
S315080037505A60EB43934003F00A036361656115B948
S3150800376004F50054626038BD00C00550CB730008EC
S31508003770124B10B59842044604D040F25E411048F8
S3150800378002F0ADF9012104F58053596040F6AA63A9
S3150800379041F20502636100230A48A360E365E2601B
S315080037A004F500522361E361E36490640348A3656A
S315080037B0844204BF23656365516010BD00C005508F
S315080037C0CB730008FFFF01002F4B70B598420446E3
S315080037D00D4604D040F215312C4802F080F92046F7
S315080037E0FFF7C6FF012304F580567360AB7C1BB157
S315080037F0A36843F08043A360EB7C4BB1224B9C4209
S3150800380002BF2A7DA3F51033C3F8C8218023F365C8
S315080038102A8A6B7B20461343EA891343E3602B7B92
S31508003820D5E90112FFF716FF6B7D1BB1A36843F4B8
S315080038308033A360AB7D1BB1A36843F40043A36048
S31508003840EB7D2A7E1B07120502F4E00203F0E04333
S315080038501343A3656B7E9A1E012A4FF0020209D80C
S315080038600B49032BC1F8202709D10423F3652B78CC
S31508003870636170BD0749012BC1F82027F4E70422CC
S3150800388004F50053DA65F2E700C00550CB7300086B
S3150800389000D0035000E0035010B5044620B940F2AA
S315080038A03A21104802F01BF92378C3B1013BDBB279
S315080038B0022B06D80C4A32F813306278D340DB075D
S315080038C004D440F23D21074802F009F90122637841
S315080038D021789A4030235943044B5A5010BDFF2390
S315080038E0EBE700BF20740008DC74000840E00350D2
S315080038F0034BD3F82424D3F820041040704700BFA4
S3150800390000C003502DE9F041037804460D461646DB
S3150800391013B3013BDBB2022B06D82A4A32F813301E
S315080039206278D340DB0703D45D21274802F0D7F835
S31508003930264BD3F810331BB16021234802F0CFF889
S315080039400F2D0BD8DFE805F0363131313131313101
S315080039503131313131313131FF23E1E7B4211A48B0
S3150800396002F0BDF84FF00008204606B302F038FE14
S315080039700F2167782378072F03EB430388BF083F97
S315080039804FEA0313124895BFBF00BF0004330C3338
S3150800399008FA07F2B940184402F036F985B9204604
S315080039A056B1BDE8F04102F01BBEA846DCE7FFF7BA
S315080039B073FFDDE7A846DBE7BDE8F041FFF76CBF1C
S315080039C0BDE8F081DC7400087E74000800C003506E
S315080039D030C00350054B9A689107FCD45A68920781
S315080039E0F9D4DA69002AF6D1704700BF00800A5078
S315080039F010B5074C6368DB0704D44FF49F7105487C
S31508003A0002F06DF802F018FE0223236110BD00BF14
S31508003A1000800A50E274000808B5FFF7DBFF0122B0
S31508003A20024B03F580514A601A6108BD00800A50AE
S31508003A30044B10B55C68012C03D1FFF7D9FF024B84
S31508003A405C6010BD00800A5000A00A5038B5074DCA
S31508003A50FFF7C0FF6B680446012B03D1FFF7E8FFA9
S31508003A60FFF7B8FF2378EB6038BD00BF00800A5027
S31508003A7038B505460C4602F0E9FDBDB962682378FB
S31508003A8012B1127843EAC203627843EA4203A26893
S31508003A9012B1127843EA8213E27843EA8203226972
S31508003AA012B1127843EA4223014A936438BD00BF33
S31508003AB000800A5030B58D488BB003F0D8F820B195
S31508003AC04FF44E718A4802F00AF86C46894D0FCDBC
S31508003AD00FC42B68884A2360FF238DF80130D2F87B
S31508003AE04C3113F4802340F0F580D2F850218DF83C
S31508003AF001309DF801306C46FF2B08BF3F2368460E
S31508003B007E4D8DF80130FEF72BFB3220FEF78AFB3F
S31508003B100FCD0FC40FCD0FC495E8030084E803004A
S31508003B20754BD3F84C21120340F1B880A3F5FE4338
S31508003B301C88B4F5807F28BF8C248DF81940FEF7C1
S31508003B4009FB044484F308046D488DF81840FCF713
S31508003B50C3FF6846FEF7ECF93220FEF769FB6948B1
S31508003B60FEF78CFC6848FEF717FD684803F07FF8F7
S31508003B7020B140F2CB115E4801F0B1FF644C002041
S31508003B80FEF75CFBFEF730FC236F002023F00703EB
S31508003B9043F003032367FEF751FC236F5D4923F4C3
S31508003BA0744323675C4BD3F8FC2012F0807279D1FA
S31508003BB0D4F8803023F0030343F00103C4F88030BF
S31508003BC0C1F88020524CD4F8203123F0070343F083
S31508003BD00203C4F82031D4F8283123F0070343F050
S31508003BE00203C4F82831D4F8803123F0030343F0E4
S31508003BF00103C4F88031D4F8403123F0030343F0BD
S31508003C000203C4F84031D4F8603123F0030343F0CB
S31508003C100203C4F86031D4F8403223F0030343F0BA
S31508003C200203C4F84032D4F8003223F0070343F005
S31508003C300203C4F80032D4F8083223F0070343F02D
S31508003C400203C4F80832D4F8703223F0030343F0B1
S31508003C500103C4F87032D4F8203223F0070343F086
S31508003C600103C4F82032FEF74BF94FF0E02200209A
S31508003C70136943F004031361D4F8603223F0070391
S31508003C8043F00103C4F86032D4F8943223F00703F2
S31508003C9043F00103C4F894320BB030BDD3F8504159
S31508003CA0E4B24AE7D3F8FC2022F08072C3F8FC207D
S31508003CB0D4F8802022F0030242F00102C4F88020E2
S31508003CC00022C1F88020D3F8FC2042F08072C3F8A5
S31508003CD0FC2077E74FF07E6393F89C2093F99C309D
S31508003CE0002BFFF606AF8DF8012002E7D476000810
S31508003CF015760008907600080080E00FA476000884
S31508003D00C017530200B4C404C0EA2101D8760008DB
S31508003D10008000500090005000ED00E007B5094B08
S31508003D2018689A889B7900906846ADF804208DF843
S31508003D300630FEF7B9FD0C20FEF7EEFD002003B0B5
S31508003D405DF804FBCC76000813B50024064A6846DD
S31508003D50536F43F00103536700948DF80440FEF750
S31508003D60D7FC204602B010BD004000504C2810B5C4
S31508003D7004460DD801220A49630904F01F04A2402B
S31508003D80203341F82320BFF34F8FBFF36F8F10BD49
S31508003D9040F22511034801F0A2FE002CF7DBE9E703
S31508003DA000E100E0F87600084C2810B5044608D86B
S31508003DB001236109074A04F01F04A34042F8213091
S31508003DC010BD4FF49871044801F089FE002CF7DB0A
S31508003DD0EEE700BF00E100E0F87600084B2810B5D2
S31508003DE0044604D940F23B11064801F078FE064B1A
S31508003DF0621153F8220004F01F04E040C04300F0AB
S31508003E00010010BDF876000800E100E0002808DB94
S31508003E1001224309034900F01F008240603341F83C
S31508003E202320704700E100E038B500F110035C2B51
S31508003E3004460D4604D94FF4EF710E4801F04FFEC3
S31508003E400F2D04D940F2DF110A4801F048FE60B28E
S31508003E500028ACBF00F16040074B4FEA0515EDB2EC
S31508003E60ABBF00F5614000F00F0080F800531D5409
S31508003E7038BD00BFF876000814ED00E010B502F072
S31508003E80EBFE0A4B1A786AB901226FF004041A701D
S31508003E9002F0DDFE204605210134FFF7C5FF4C2C54
S31508003EA0F8D110BDBDE8104002F0D1BE9A15002029
S31508003EB010B5044602F0C7FE024B1C6002F0BEFEB7
S31508003EC0002010BD0C14002010B502F0BCFE034BF8
S31508003ED01C6802F0B3FE204610BD00BF0C1400207B
S31508003EE010B50020144601F0A4FE022804D018B12B
S31508003EF0C321024801F0F3FD204610BD757700087E
S31508003F00034B0222186800238068194601F08CB812
S31508003F10F81500203021037D02464B4303F1A043E8
S31508003F2003F58023D86E07491B6F884208D113F022
S31508003F30020006D0106A136D1B1A58425841704782
S31508003F40002070479B150020302337B5007D0DF102
S31508003F500701434303F1A04303F58023DD6E1C6F7D
S31508003F6002F0FAFA20B140F2F931084801F0B7FD3B
S31508003F709DF8070040B9064B9D4203D184F0020420
S31508003F80C4F3400003B030BD0120FBE7E777000823
S31508003F909B15002037B504460DF10701007D02F098
S31508003FA0DBFA20B140F24441114801F098FD9DF832
S31508003FB00730A3B1256DD4E9122313449D4201D8D5
S31508003FC0AA4204D940F24F41094801F088FDD4E9D4
S31508003FD0120303449D4218BF284603B030BD302261
S31508003FE0237D534303F1A04303F58023DD6EE2E707
S31508003FF0E77700082DE9F743D0E9043404F17C0794
S31508004000D0F80C90013B06461022002138469DB296
S31508004010D4F8748001F0EAFF104BC5F30A0543EAA9
S315080040200513C4E91F39012394F8780084F88C3005
S31508004030C4F884803A460A4B009604F16401FDF7F9
S31508004040F3F838B140F28D31064803B0BDE8F043C5
S3150800405001F045BD03B0BDE8F08300BF0000103095
S31508004060DD410008E77700082DE9F04300F138063E
S31508004070044685B010220021304601F0B7FF4FF400
S315080040804473534D207DC4E90F556387FDF7F2F855
S3150800409020B140F2CA514F4801F021FD10220021FB
S315080040A0304601F0A3FF4FF4447363873023207D25
S315080040B0C4E90F55434303F1A04303F58023DB6EA0
S315080040C0AB420BD1FDF7F6F8002876D040F2D35173
S315080040D0404805B0BDE8F04301F001BD0DF10B0104
S315080040E002F03AFA20B140F2D9513A4801F0F7FC09
S315080040F09DF80B30002B63D12046FFF74BFF03A931
S315080041000746207D02F04AFA20B140F2E1513148D3
S3150800411001F0E5FC039B002B04DC40F2E3512D483B
S3150800412001F0DDFC039B04F11808013B1022002175
S3150800413040469DB2D4F8109001F058FF3022237DF6
S31508004140C5F30A0553432D0145F04075C4E90659E0
S3150800415003F1A043276203F580231A6F94F824100D
S31508004160520862F3410184F82410196F94F8242048
S3150800417028F0030861F3000284F824201B6F626AA2
S315080041809B0863F39F0248F002036262636400942B
S3150800419032462146104B207DFDF746F820B140F205
S315080041A004610C4801F09BFC207DFDF783F820B1E3
S315080041B04FF4C161074801F092FC05B0BDE8F083F1
S315080041C094F844306FF3410384F84430DFE700BFC6
S315080041D09B150020E7770008235D000838B5556968
S315080041E0144695F88C3023B940F26A310A4801F032
S315080041F076FC002305F1900085F88C30FCF78EFCE0
S3150800420008B1FFF7F7FE63681BB100212046A268D4
S315080042109847002038BD00BFE777000838B5044640
S31508004220007DFDF727F820B140F22D41084801F03E
S3150800423056FC2046FFF76EFE0546207DFDF73AF848
S3150800424020B140F23241024801F049FC284638BD07
S31508004250E77700082DE9F04F9946002304468DB00C
S3150800426008910692C9F80030D9F80060069B9D1B94
S3150800427000F0C580089B9E1900F0C1802046FFF714
S31508004280CDFF8046002840F0BA802046FFF782FE20
S31508004290226D904240F2BC80801A854228BF0546AE
S315080042A094F896A0BAF1000F00F0F28002F0D4FC60
S315080042B0236D079020460993FFF746FE2F46099B74
S315080042C0834658198342D4F8981040F0BC80D4E944
S315080042D0122313448B4208BFC4F89820D4F89810C8
S315080042E08A4201D88B4204D840F242518A4801F0EA
S315080042F0F6FB079802F0ABFCDA46207DFCF7BAFF1E
S3150800430020B140F28241844801F0E9FB207D0DF19D
S315080043102F0102F021F920B140F286417E4801F0D2
S31508004320DEFB2046FFF736FE236D834698429DF84E
S315080043302F3040F2BC8023B140F28E41764801F01E
S31508004340CEFBA26C236DAEB2934240F0A8800993CF
S3150800435004F128082369102200214046079301F03A
S3150800436045FE3021079B013EE362099BC6F30A0618
S315080043702363237D36014B4328F0030803F1A0434A
S3150800438046F0407648F0020203F58023A6621A67D3
S31508004390236DD4E912122B440A44934208BF0B46F4
S315080043A09342236504D340F2DE415B4801F097FB54
S315080043B0236D9B4505D10123204684F85430FFF729
S315080043C053FE207DFCF776FF20B140F2F7415248B4
S315080043D001F085FB94F896303BB1BAF1000F04D092
S315080043E0236E112120465B689847D9F8003037B10B
S315080043F0069A3B449342C9F80030FFF435AFD9F822
S315080044000030002B14BF00201B200DB0BDE8F08F34
S31508004410D4E912310B449A4204D340F26A413E4829
S3150800442001F05DFBD4E912321344226D9B1A9D42BA
S3150800443028BF1D46002D7FF433AF40F2165136488B
S3150800444001F04DFB2CE701335A1E914210D1C4F8F6
S31508004450983013F8012C112A01D0132A14D1013FE0
S31508004460A2F111014A424A41D04684F89C2029E724
S3150800447013F8012C02F0FD01112906D1013FB8F10C
S31508004480000F3FF41FAFEBE7D04606F8012B19E7FC
S315080044902A463046216D01F03BFD2F462DE7238D38
S315080044A0C3F30A12164466F30E13238570E7207DBC
S315080044B093B93023584300F1A04000F58020426E9E
S315080044C0436EC2F30A1223F4FF432A4423F070030F
S315080044D043EA021343665BE7104B049403930023F5
S315080044E0CDE90153012300935A462369216801F057
S315080044F011FB20B140F2CB41074801F0F0FA302217
S31508004500237D534303F1A04303F580235A6E22F417
S3150800451080125A663CE700BFE7770008235D00086B
S315080045202DE9F84F90F8943004460D46002B40F0DC
S31508004530858090F89580DFF808918E18B54223D0CB
S3150800454094F896306BB12046FFF768FEF8B1D4F8B8
S315080045509820236D9A4204D040F2CD21484601F0B6
S31508004560BEFA94F89C30002BE8D0236E2F462A78A2
S315080045705B68B8F1000F59D1236E20465B6839781D
S31508004580013598470028D9D00020BDE8F88F02F0F9
S3150800459063FB0746207DFCF76DFE20B140F2D32170
S315080045A0274801F09CFA2046FFF7F4FCA26C00F1BC
S315080045B0FF3A924538BFE36C207D3CBF03F1FF33D9
S315080045C002EB030A94F854B0FCF774FE20B140F2EB
S315080045D0DF211B4801F083FAD4F89810BBF1000FCD
S315080045E022D0236D8B4204D04FF43971144801F060
S315080045F076FA384602F02BFBB3E7A26C9A4202D948
S31508004600E36C013B134499420BD013F80129112A94
S3150800461001D0132AF1D1A2F111035A425A4184F862
S315080046209C20C4F898A0E4E75346ECE70A2AA3D1ED
S315080046300D212046984700289ED0A5E70E20A4E71E
S31508004640E7770008F0B50C4615460646A022002175
S3150800465089B0204601F0CAFC2746AC46BCE80F00E4
S315080046600FC7DCF8003005F1140C3B6004F1640751
S31508004670BCE80F000FC7DCF80030EA6A3B60AB6A9B
S31508004680C4E9132395F83020A36484F8952095F897
S315080046903320C4F89830012384F8962084F89C3097
S315080046A084F85430AB6B2366324B34607360324BFC
S315080046B0B360324BF360324B7361324BB361324BAA
S315080046C03361FCF77DFD10B1304B98420FD10021C4
S315080046D007A8FCF7FDFC014648B9079B07A8237500
S315080046E0FCF7F6FC0346207D23B1FCF743FD1020BA
S315080046F009B0F0BD079B84F87830FCF7BBFD0028AD
S31508004700F5D1234B0494CDE90203E36C019301230D
S3150800471000932369A26C2168207D01F0FBF900282B
S31508004720E5D13022237D4FF48011534342F26402CF
S3150800473003F1A04303F580239950AB6B93F910005E
S31508004740FFF764FBAB6B93F91000FFF72DFB04F141
S31508004750900001F0C5F93046FFF7AAFB2046FFF79F
S3150800476083FC207DFCF7A6FD003818BF0120000158
S31508004770BEE700BF21450008935D000855420008C2
S31508004780175D00081D5D000895470008038000F0C6
S31508004790235D000870B50568044695F89460002EF8
S315080047A03BD101F019FBFFF78FFB844202D130465B
S315080047B0FFF77EFB2B6E93F91000FFF727FB2B6E96
S315080047C093F91000FFF7D2FA287D01F0A5FE20B173
S315080047D040F29721144801F082F9287DFCF7CAFCBB
S315080047E020B140F29B21104801F079F9FCF7A0FCB2
S315080047F038B10E4B984204D040F29F210A4801F086
S315080048006EF90023C4E90033C4E90533E3602B6E6F
S315080048102846BDE87040DB68184740F26621024822
S3150800482001F05DF90F2070BDE7770008058000F0FC
S31508004830F8B517461C46564A8B6B069D1A60554AAC
S315080048405A6000229A60544ADA600A462946FFF7F7
S31508004850F9FE0646002840F0948023680121C5F831
S31508004860A03063683A20C5F8A430637A85F8A93081
S31508004870237A85F8A830E37A85F8AB30A37A85F8E9
S31508004880AA30637B85F8AD30237B85F8AC30E37BB3
S3150800489085F8AF30A37B85F8AE30FDF7EDF8012338
S315080048A00422617A207AFEF7EDFA01230222E17AE0
S315080048B0A07AFEF7E7FA01216068FDF7DDF83E7099
S315080048C039462068FEF780FF1420617C334B01F1DE
S315080048D0390252019850607A227A03EB411342EA70
S315080048E00042C3F83827E17AA27A42EA0142C3F8BD
S315080048F0302785F8B0607B7E032B46D8DFE803F0C7
S315080049003943021C022385F8B03000230422E17BD8
S31508004910A07BFEF7B7FA0220617C204B01F1B902B1
S315080049205201985003EB411341F22C71E07BA27BB4
S3150800493042EA00425A501CE0012785F8B0300222AC
S315080049400023617B207BFEF79DFA617B227B637CDB
S3150800495042EA014241F228715B0103F1A04303F5E3
S3150800496070335A500422236803F58053DA65002F02
S31508004970CBD120680A4A00F5005305219A64FEF750
S31508004980D9FE3046F8BD0027D7E72326F9E700BF4A
S31508004990F55D00087F5E0008095E000800C0035048
S315080049A0FFFF0100F421014801F099B84F7800088B
S315080049B00346054A0549106803448B428CBF4FF0ED
S315080049C0FF301360704700BFF41500200000042074
S315080049D070B502F041F9144E05463478FCB9134B0C
S315080049E01C60134B1C60134B1C6000F047F8012039
S315080049F002F0E1F902F0BEF80F4B0246186020B942
S31508004A00284602F024F9232070BD234640F2E731F8
S31508004A100A4800F095F80A4B1860012333702846B7
S31508004A2002F015F90020EFE79E1500201814002063
S31508004A3014140020201400201C14002018FCFFFF6A
S31508004A4010140020012300B58DB08DF80F3001F049
S31508004A50A1FF00230146CDE90033074A0DF10F03F4
S31508004A6004A802F06FF918B99DF80F30002BFBD196
S31508004A700DB05DF804FB00BF3F6D000810B50024BB
S31508004A8086B01422214601A88DF8004001F0AEFA3E
S31508004A90012313488DF8043002F0E9F8BFF34F8F6D
S31508004AA06846FEF7D3FF204601A98DF80440FEF7B5
S31508004AB0DFFF20460F2101F0E9FD0F21204601F016
S31508004AC0F3FDFEF7A9FF01F0B7FD064B43209C61F5
S31508004AD0FFF79CF94320FFF767F906B010BD00BF42
S31508004AE0D476000800800A5010B5044601F0A2FCEE
S31508004AF04FF47A729042B0FBF2F105D23621BDE846
S31508004B0010400C4800F0EBBF0B4BB3FBF1F30B491D
S31508004B10884201D93C21F2E702FB04F0B0FBF3F02E
S31508004B20022806D9BDE810400323B0FBF3F0FBF7D3
S31508004B301FBB10BD1F79000840420F00E7CD9A3B06
S31508004B4053B94AB9002908BF00281CBF4FF0FF31E6
S31508004B504FF0FF3000F082B9ADF1080C6DE904CED4
S31508004B6000F006F8DDF804E0DDE9022304B070473A
S31508004B702DE9F04F099D0C46002B4DD18A420F4670
S31508004B8084469646B2FA82F360D94BB102FA03FE1E
S31508004B90C3F120029F4000FA03FC20FA02F21743F1
S31508004BA04FEA1E461FFA8EF44FEA1C42B7FBF6F18F
S31508004BB006FB117701FB04F042EA0742904208D946
S31508004BC01EEB020201F1FF3702D2904200F2318158
S31508004BD03946121A1FFA8CFCB2FBF6F006FB1022B5
S31508004BE000FB04F44CEA024C644508D91EEB0C0C95
S31508004BF000F1FF3202D2644500F21E81104640EAF7
S31508004C000140ACEB040C002125B12CFA03F3002279
S31508004C10C5E90032BDE8F08F8B4205D90DB1C5E96B
S31508004C20000100210846F5E7B3FA83F100294DD1C2
S31508004C30A342C0F0F380904280F0F08006462346F7
S31508004C400846002DE6D0C5E90063E3E7002B40F0EF
S31508004C50A3808A1A4FEA1E471FFA8EF60121B2FB75
S31508004C60F7F407FB14204FEA1C4242EA004206FB0F
S31508004C7004F090420FD91EEB020204F1FF382CBF54
S31508004C804FF001094FF00009904203D9B9F1000F1E
S31508004C9000F0CC804446121A1FFA8CFCB2FBF7F0DF
S31508004CA007FB102200FB06F64CEA024C664508D9BB
S31508004CB01EEB0C0C00F1FF3202D2664500F2B380FF
S31508004CC01046ACEB060C40EA04409DE7C1F120060D
S31508004CD08B4004FA01FE22FA06F720FA06FCF44095
S31508004CE08A401F434EEA0C0300FA01FE4FEA1748B2
S31508004CF04FEA13491FFA87FCB4FBF8F008FB104487
S31508004D0049EA044400FB0CF9A1450ED93C1900F107
S31508004D10FF3A2CBF4FF0010B4FF0000BA14503D90A
S31508004D20BBF1000F00F08B805046A4EB09041FFA74
S31508004D3083F9B4FBF8F308FB134403FB0CFC49EABC
S31508004D400444A44506D93C1903F1FF3801D2A44509
S31508004D507BD8434643EA0040A4EB0C04A0FB029828
S31508004D604445CC46434602D306D1CE4504D2013843
S31508004D70B9EB020C68EB0703002D6CD0BEEB0C02F6
S31508004D8064EB030422FA01F304FA06F6CC40002188
S31508004D901E43C5E900643DE702FA03FEC3F120019C
S31508004DA004FA03F200FA03FCCC404FEA1E4720FA45
S31508004DB001F11FFA8EF6B4FBF7F00A4307FB10441D
S31508004DC0110C41EA044100FB06F48C420ED91EEB95
S31508004DD0010100F1FF382CBF4FF001094FF000091F
S31508004DE08C4202D9B9F1000F2CD04046091B92B269
S31508004DF0B1FBF7F407FB141142EA014204FB06F182
S31508004E00914207D91EEB020204F1FF3801D2914202
S31508004E101ED84446521A44EA004120E7861A64EB33
S31508004E20030301200DE7F44402384AE7023C7244C2
S31508004E3031E702397244CCE6F4440238DFE6023838
S31508004E403C4472E702387144D0E7023B3C4481E7B0
S31508004E50023C7244DEE72946DCE600BF704700BF25
S31508004E6008B5064B044613B10021AFF30080044B86
S31508004E701B6803B19847204600F035FF0000000084
S31508004E805C15002070B50D4D00260D4C641BA41052
S31508004E90A64209D10B4D00260B4C01F0B1FF641B4D
S31508004EA0A410A64205D170BD55F8043B01369847B3
S31508004EB0EEE755F8043B01369847F2E760160020FE
S31508004EC06016002060160020641600200B46034971
S31508004ED002460868816800F0B7B900BFF8150020D7
S31508004EE0002310B504468360818119464366C28152
S31508004EF008228361C0E90033C0E904335C3001F05D
S31508004F0075F80D4B246263620C4BA3620C4BE3628B
S31508004F100C4B23630C4B9C4206D003F16802944267
S31508004F2002D0D0339C4205D104F15800BDE81040A8
S31508004F3001F064B810BD00BF2B5F00084D5F000884
S31508004F40855F0008A95F000824140020024A034967
S31508004F50034801F02DB800BF481600207D630008FD
S31508004F60FC15002041680C4B994210B5044601D047
S31508004F7001F004FAA168094B994202D0204601F0D3
S31508004F80FDF9E168064B994204D02046BDE8104079
S31508004F9001F0F4B910BD00BF241400208C140020C1
S31508004FA0F414002010B50B4B04210B4C0B4A204679
S31508004FB01A600022FFF794FF04F168000122092114
S31508004FC0FFF78EFF04F1D00002221221BDE810403F
S31508004FD0FFF786BF5C150020241400204D4F0008FB
S31508004FE0014801F00CB800BFA0150020014801F0E7
S31508004FF007B800BFA015002010B50446FFF7F0FF5C
S31508005000236A1BB1BDE81040FFF7F0BF044B2362CB
S31508005010044B1B68002BF5D1FFF7C4FFF2E700BF6E
S31508005020654F00085C1500202DE9F7431D46574BD0
S3150800503004460E461F68904627B13B6A13B93846A0
S31508005040FFF7DAFFB8F1020F06D0B8F1010F00F248
S315080050509980002DC0F29680636ED90705D4A3897E
S315080050609A0502D4A06D00F0CAFF2146384601F021
S3150800507085F9616B41B104F14403994202D038467F
S3150800508000F098F8002363630023A3616360A38993
S315080050901B0603D52169384600F08CF8A389B8F1B8
S315080050A0020F23F44A6323F00303A38160D001AB04
S315080050B06A462146384600F0A4FFA3891843A08112
S315080050C02DBB009D284600F069FB0646002851D1F5
S315080050D0DDF80090A9453FD14FF0FF35B4F90C3003
S315080050E043F00202A2810022A26004F14702226074
S315080050F0226101226261626ED60704D4980502D441
S31508005100A06D00F07DFF284603B0BDE8F083002EB1
S31508005110D8D03B6A13B93846FFF76EFFB8F1010FCE
S31508005120266002BFA38943F00103A381B4F90C30BA
S3150800513013F00802C4E904651ED0D90745BF00224A
S315080051406D42A560A26048BFA561626ED20701D410
S315080051509B0513D50025D6E7484600F01FFB0646F3
S315080051600028B9D0A3894D4643F08003A381D0E730
S315080051700025B3E7A946F5E7A260E6E7A06D00F0CB
S315080051803FFFE7E74FF0FF35BDE700BFF815002002
S3150800519038B50446064D0846114600222A601A46C6
S315080051A0FEF79EFE431C02D12B6803B1236038BD6F
S315080051B06015002038B50546002941D051F8043C51
S315080051C00C1F002BB8BFE41800F0D0FB1D4A13686B
S315080051D033B9636014602846BDE8384000F0CCBB9C
S315080051E0A34208D9206821188B4201BF19685B6859
S315080051F009182160EDE71A465B680BB1A342FAD994
S3150800520011685018A0420BD120680144501811604B
S315080052108342E0D118685B68084453601060DAE797
S3150800522002D90C232B60D6E7206821188B4202BFCF
S3150800523019685B680918636008BF21605460CAE78B
S3150800524038BD00BF681500202DE9F04F0D469DB00A
S3150800525014469846064618B1036A0BB9FFF7CCFE02
S315080052606B6ED90705D4AB899A0502D4A86D00F0F0
S31508005270C6FEAB891B0701D52B699BB92946304663
S3150800528000F0FAF870B16B6EDC0704D54FF0FF300A
S315080052901DB0BDE8F08FAB899805F7D4A86D00F06E
S315080052A0AFFEF3E70023CDF80C804FF00109DFF8D5
S315080052B0B481099320238DF8293030238DF82A30BC
S315080052C023469A4613F8012B0AB1252AF9D1BAEBD7
S315080052D0040B0BD05B4622462946304600F009FFF0
S315080052E0013000F0A780099A5A4409929AF80030CA
S315080052F0002B00F09F8000234FF0FF320AF1010ACD
S31508005300049307938DF853301A93CDE90523544631
S315080053100522544814F8011B01F058F8049AD8B924
S31508005320D10644BF20238DF85330130744BF2B23DF
S315080053308DF853309AF800302A2B15D0079A544620
S3150800534000204FF00A0C214611F8013B303B092B8F
S315080053504BD9B0B1079214E0A0EB0803A24609FAAC
S3150800536003F313430493D2E7039B191D1B68002B11
S315080053700391BBBF5B4242F0020207930793B8BF93
S31508005380049223782E2B0AD163782A2B32D1039BD9
S3150800539002341A1D1B6843EAE37303920593DFF888
S315080053A0D4A003222178504601F010F838B1A0EBBA
S315080053B00A004022049B013482401343049314F8E4
S315080053C0011B062228488DF8281000F0FFFF002848
S315080053D03FD0264B1BBB039B073323F00703083339
S315080053E00393099B3B4409936AE70CFB02320C467C
S315080053F00120A8E7002301344FF00A0C194605934B
S31508005400204610F8012B303A092A03D9002BC6D0BA
S315080054100591C4E70CFB012104460123F0E703AB21
S315080054202A4604A930460093114BAFF3008007467D
S31508005430781CD6D16B6ED90705D4AB899A0502D4E8
S31508005440A86D00F0DDFDAB895B063FF51FAF099837
S315080054501EE703AB2A4604A930460093044B00F026
S3150800546061F8E4E77E790008887900080000000002
S31508005470F36000088479000838B5294B05460C46C0
S31508005480186818B1036A0BB9FFF7B6FDB4F90C3002
S31508005490190722D4DA0607D409222A6043F0400302
S315080054A04FF0FF30A38133E0580712D5616B41B145
S315080054B004F14403994202D02846FFF77BFE0023F5
S315080054C06363A38923F02403A3810023636023690C
S315080054D02360A38943F00803A38123694BB9A389F1
S315080054E003F42073B3F5007F03D02146284600F065
S315080054F0ADFDB4F90C3013F001020AD00022A26007
