S00D000030342D4164632E7333374E
S31508000000001000202D060008115800081158000895
S31508000010115800081158000811580008115800080E
S3150800002011580008115800081158000811580008FE
S3150800003011580008115800081158000811580008EE
S3150800004011580008115800081158000811580008DE
S3150800005011580008115800081158000811580008CE
S315080000601158000839040008F35700081158000809
S3150800007011580008115800081158000811580008AE
S31508000080115800081158000811580008115800089E
S3150800009011580008E90D0008115800081158000801
S315080000A011580008290A0008090A0008115800080A
S315080000B0115800081158000811580008115800086E
S315080000C0115800081158000811580008115800085E
S315080000D0115800081158000811580008115800084E
S315080000E0115800081158000811580008115800083E
S315080000F0115800081158000811580008115800082E
S31508000100115800081158000811580008115800081D
S31508000110115800081158000811580008115800080D
S3150800012011580008115800081158000811580008FD
S3150800013011580008115800081158000811580008ED
S3150800014011580008115800081158000829690008B4
S3150800015011580008115800081158000811580008CD
S3150800016011580008115800081158000811580008BD
S31508000170013800D0FCE770470348044B834202D09D
S31508000180034B03B1184770471016002010160020BD
S3150800019000000000064B0749C91A891048BF0131FB
S315080001A0491003D0044B0BB101481847704700BFEC
S315080001B010160020101600200000000010B5064C8E
S315080001C0237843B9FFF7D8FF044B13B10448AFF3BC
S315080001D000800123237010BD3815002000000000A0
S315080001E0A873000808B5054B1BB105490548AFF3C8
S315080001F00080BDE80840FFF7CDBF00BF0000000043
S3150800020000100020A8730008A3F5803A704700BFC5
S31508000210174B002B08BF134B9D46FFF7F5FF002130
S315080002208B460F461348144A121A05F086FD0E4BE4
S31508000230002B00D098470D4B002B00D09847002084
S31508000240002104000D000D48002802D00C48AFF329
S31508000250008004F009FD2000290005F096FA04F054
S31508000260F1FC00BF000008000000000000000000CC
S315080002700010002000100020641500200000000077
S315080002800000000070B5264D92B008AC0FCD0FC423
S315080002900FCD00260FC495E803000323012584E843
S315080002A00300CDE90366CDE905668DF80E3007969D
S315080002B0029505F0A0FA05F09FFA1A4B1A4C186831
S315080002C01A4905F0A8FB29462A2001F04FF93246BB
S315080002D02046174902F046FC40F2BA4332468DF8EA
S315080002E019000B9300903346204612498DF8246076
S315080002F08DF821608DF8235002F066FC41F2010367
S315080003000A9008AA204605A9ADF8083002F0B4FC00
S31508000310204602AA03A902F0B1FBE56012B070BD3F
S315080003208C690008EC100020004000597869000824
S31508000330002D310180969800064B1B681A7A022A0E
S3150800034004D812B11B68044A13607047032AF9D00F
S31508000350704700BF641500201810002070B5244DA2
S31508000360A8B012AC0FCD0FC495E80700292384E87E
S315080003700700204A0024CDE903230523CDE90544D7
S315080003808DF8153006238DF817304FF48023CDE904
S3150800039009440B94089319AD08AECDE90E440794A9
S315080003A010940FCE0FC5144B0DAE2B60134B1EAD1C
S315080003B00D930FCE0FC52021114B12482B60124BFF
S315080003C012AA2393114B2694CDE92413104B19A98D
S315080003D02793104B009303AB04F038F9044618B181
S315080003E099210D4805F022FA204628B070BD00BFB5
S315080003F0EC69000800C0055024C00550020004003E
S315080004003CC00550D010002039150020000101001D
S31508000410781500201C100020B469000808B5FFF7FD
S315080004209DFF28B1BDE80840AD21024805F0FEB998
S3150800043008BD00BFB4690008014804F0C1B900BF8F
S31508000440D0100020012208B5074B1A700022074B6E
S315080004501A700422064B1A701F22064B1A7003F0F4
S3150800046041FC054B186008BD0216002059150020EE
S315080004700116002000160020EC10002008B50448DC
S3150800048006F0DDF905F08BF9BDE8084000F008B87C
S31508000490D8700008014806F0D2B900BFD870000825
S315080004A02DE9F047534E96B0354609AC0FCD0FC42B
S315080004B02B6806F1140523600EAC0FCD0FC495E822
S315080004C00F00DFF8488184E80F004B4806F0B7F9BB
S315080004D0404606F0B4F94FF48073484FADF83C3007
S315080004E0474B38460B9309A90EAB0D9302F00AF950
S315080004F004210225B6F834A00DEB01000122ADF85F
S3150800050004A000F0E3F9B6F836900022012102A80B
S31508000510ADF8089000F0DAF9368F0122042103A815
S31508000520ADF80C6000F0D2F90122042104A8354C7C
S31508000530ADF8105000F0CAF9334B4FF44870C4F8C0
S31508000540C8344FF00213C4F8C43403F58033C4F832
S31508000550CC341C23C4F8B43404F0B8F908A8ADF8B0
S31508000560205000F023FA142004F0B0F908A8ADF8DA
S31508000570205000F0EDF9232004F0A8F908A8ADF8FA
S31508000580205000F013FAB921384605F0C6F908A834
S31508000590ADF8205000F0DCF9002205A81146ADF8A8
S315080005A014A000F093F9002206A81146ADF8189099
S315080005B000F08CF90122002107A8ADF81C6000F0B4
S315080005C085F90122002108A8ADF8205000F07EF92F
S315080005D0384601F051FF00234046C4F8B434C4F845
S315080005E0C834C4F8C434C4F8CC3406F02BF916B0B1
S315080005F0BDE8F087086A0008D870000800000A50AD
S31508000600E070720000C0035002000100DC700008B0
S315080006100348044A0449121A921005F0FAB800BFB2
S3150800062070010008700100086415002008B5154B14
S3150800063083F30A8800F030F8FFF7EAFF124B1349F4
S315080006408B4212D30020124B12498B4218D3FFF764
S31508000650DFFD186850F82240586840F822400132F9
S3150800066098688242F5D30C33EAE70022F8E71C685B
S3150800067044F8220001325C68A242F8D30833E4E762
S315080006800022F8E700000020B0730008BC730008D9
S31508000690BC730008BC7300084FF48041124B134A20
S315080006A070B59A60D3F88820114D42F47002C3F8E9
S315080006B08820104A05F5005491664FF0FF322266ED
S315080006C00D4A62660222C3F8D020BFF34F8FBFF3EC
S315080006D06F8F4FF44036002003F0A6FA0020E6603C
S315080006E003F070FA2E6170BD00ED00E0000000080E
S315080006F00080004400900050F7FF3700014B186057
S31508000700704700BF90150020054B1860054B1B6FFE
S3150800071003F00703032B01D105F034BD704700BF72
S31508000720981500200080005038B504460D4601B1E2
S3150800073018B94521044805F079F8236813B92B60E0
S31508000740256038BD1C46F8E7426A000810B504461D
S3150800075018B95621044805F069F8206818B10368E5
S3150800076023600023036010BD426A0008002307B512
S315080007702948019306F063F84FF4407301220421D7
S315080007806846ADF8003000F0A1F80122234B052099
S31508000790C3F8442401A906F04DF8002839D1204BA6
S315080007A0D3F8F02042F00102C3F8F020D3F8FC2079
S315080007B042F08072C3F8FC201A4AA3F55D431A601A
S315080007C0019B194A03F5D52303F2FC43B3FBF2F365
S315080007D0164A013B13610223C2F8F0304FF48073C6
S315080007E0C2F804334FF06043114AC3F8B02F114AD8
S315080007F0C3F8802ED3F8002E42F48072C3F8002E78
S31508000800FF2283F82020D3F8002E22F48072C3F842
S31508000810002E03B05DF804FBD870000800D0035022
S3150800082000ED00E0FF030040F8590D00000004E069
S3150800083055CEACC5090001002DE9F04104460C254A
S315080008404FF00108124E0CB314F001000BD0002033
S3150800085024F0010405FB00625768002FF3D0916865
S31508000860C0B2B847EFE72246013020284FEA5202C5
S3150800087001D0D307F8D508FA00F20F2824EA0204B3
S31508000880E8D9103805FB0062B432E5E7BDE8F08127
S31508000890F010002008B50C4805F0D1FF192003F028
S315080008A0ABF928B1192003F0BFF9192003F08AF92A
S315080008B01A2003F0A1F928B11A2003F0B5F91A2075
S315080008C003F080F9002008BDD87000082DE9F04132
S315080008D00E461746044638B993211A4804F0A6FF6F
S315080008E022252846BDE8F0810F290CD8037883B164
S315080008F0013BDBB2022B06D8134A32F81330627872
S31508000900D340DB0707D497210E4804F08FFF212533
S31508000910E7E7FF23F3E70D4BD3F810532DB19B21DF
S31508000920084804F083FF0225DBE705F07DFF8046D3
S315080009303A462046314602F0F3FE404605F06FFF80
S31508000940CFE700BF986A0008F26A000800C00350A3
S3150800095038B5044628B91348E42104F067FF222075
S3150800096038BD037883B1013BDBB2022B06D80E4AA9
S3150800097032F813306278D340DB0707D40948E821F8
S3150800098004F054FF2120EBE7FF23F3E705F04CFFC3
S315080009900546204605F0CCFC284605F040FF002019
S315080009A0DEE700BF986A0008F26A000838B5044610
S315080009B028B91348FC2104F039FF222038BD0378F2
S315080009C08BB1013BDBB2022B06D80E4A32F8133044
S315080009D06278D340DB0708D409484FF4807104F0E5
S315080009E025FF2120EAE7FF23F2E705F01DFF05466C
S315080009F0204602F05FFE284605F011FF0020DDE7DD
S31508000A00986A0008F26A000808B502F07FFE054BEE
S31508000A1000F0553020F05020C3F82004BDE8084007
S31508000A20FFF70ABF00E0035008B502F06FFE054B5A
S31508000A3000F0AA3020F0A020C3F82004BDE8084042
S31508000A40FFF7FABE00E003502DE9F04F9A46564BE1
S31508000A5085B01B7806460F461546DDF83C909DF88E
S31508000A6044B0DDF85080002B00F09780072A00F28A
S31508000A7096800E9B002B00F09280B9F1000F00F0D3
S31508000A808E80129BB3F5006F00F38980012803D18D
S31508000A90109B002B00F08380444B03EB05131B7B54
S31508000AA0002B7ED0424C10220021684605F045F9FD
S31508000AB004EB45141022A7BB3946204605F03DF93C
S31508000AC043F210036380BBF1000F03D1E37843F0D0
S31508000AD00303E370364A0E9B02EB451CCCE90193EF
S31508000AE0129B6901581E9DF84C30C0F30A0003F0AA
S31508000AF003039B0643EA001E53582E48012E00EABC
S31508000B0003004EEA0003CDF800A0535017D0B8F101
S31508000B10000F2ED19CF8023068F304138CF80230CB
S31508000B2027E00021204605F008F94FF44473638056
S31508000B30BBF1000FCED1E37843F03003C9E71323A6
S31508000B400CF1100ECCF80C309CE80F008EE80F0064
S31508000B506FF00301DCF81C20109B61F39F02012F44
S31508000B60CCF81C20CCF8143003D1CCF81890CCF86B
S31508000B70043000270D4A290102EB051342F80180CB
S31508000B80159A28465A60694622469F605E7302F0A7
S31508000B9081FB384605B0BDE8F08F0748FAE70748F5
S31508000BA0F8E70748F6E700BF5A1500205813002053
S31508000BB0581200200F80FFF3028000F0018000F039
S31508000BC0078000F038B5124B05461B78DBB1E0B15B
S31508000BD005F02AFE0F4A00231146147B54B92B60F0
S31508000BE001251A0101EB03131D738C5005F017FE3E
S31508000BF0204638BD0133082B02F11002EDD105F06D
S31508000C000EFE0548F5E70548F3E70548F1E700BF96
S31508000C105A15002058130020048000F0028000F0C6
S31508000C20018000F038B505F0FFFD002305460B4AA4
S31508000C30147B6CB90133082B02F11002F8D102F0CB
S31508000C40ABFA074B28461C7005F0E9FD204603E081
S31508000C50284605F0E4FD034838BD00BF58130020B8
S31508000C605A150020058000F00D4B10B51B78044678
S31508000C7093B1072812D805F0D7FD0A4B03EB0413E6
S31508000C801A7B2AB100241C7305F0C9FD204610BD45
S31508000C9005F0C5FD0448FAE70448F8E70448F6E70E
S31508000CA05A15002058130020068000F0028000F034
S31508000CB0018000F0154B13B51868002301908DF8D4
S31508000CC0043005F0B1FD124B1C7824B105F0A7FDE0
S31508000CD0104802B010BD01221A7005F0A0FD0E4B97
S31508000CE001A81C731C7783F82C4083F83C4083F8D2
S31508000CF04C4083F85C4083F86C4083F87C400823BA
S31508000D008DF8073002F07EFA2046E2E7F86A000816
S31508000D105A150020038000F058130020F8B50D4D31
S31508000D202D7885B1072810DC0B4D060105EB00145C
S31508000D30277B67B1AB510025069BA560636002F06F
S31508000D40A9FA2846F8BD0548FCE70548FAE7054824
S31508000D50F8E700BF5A15002058130020028000F05B
S31508000D60018000F0078000F00A4A08B512785AB1E7
S31508000D7007280BD8084A02EB00131B7B43B1002156
S31508000D8002F020FA002008BD0448FCE70448FAE708
S31508000D900448F8E75A15002058130020028000F08E
S31508000DA0018000F0078000F00A4A08B512785AB1A7
S31508000DB007280BD8084A02EB00131B7B43B1012115
S31508000DC002F000FA002008BD0448FCE70448FAE7E8
S31508000DD00448F8E75A15002058130020028000F04E
S31508000DE0018000F0078000F0184B2DE9F0411F6DD7
S31508000DF05B6D1F4000D5FEE701260025144CDFF881
S31508000E005880374218D02368C8F85060A3B1A16843
S31508000E10284601316268A1609847637B012B0BD194
S31508000E2050B90C4B03EB45131A7B60F341021A7356
S31508000E301A7F60F341021A770135082D4FEA4606F4
S31508000E4004F11004DDD1BDE8F08100BF00000450B4
S31508000E50581300205812002000200450044BD3F8E1
S31508000E608420D206FBD4D3F88400C0F381107047DF
S31508000E700040005038B5104B0546D3F800310C46F3
S31508000E8003F00303022B0BD0032B0DD0012B0FD13C
S31508000E9005F092F9032305B1286004B1236038BD33
S31508000EA005F0DCF90923F6E705F08CF90823F2E7E3
S31508000EB001230020EFE700BF0080005038B5104B33
S31508000EC00546D3F840310C4603F00303022B0BD03A
S31508000ED0032B0DD0012B0FD105F092FC0A2305B187
S31508000EE0286004B1236038BD05F0B8F90923F6E790
S31508000EF005F089FC0C23F2E701230020EFE700BF89
S31508000F000080005038B5104B0546D3F860310C46C2
S31508000F1003F00303022B0BD0032B0DD0012B0FD1AB
S31508000F2005F06EFC0A2305B1286004B1236038BDBC
S31508000F3005F094F90923F6E705F065FC0C23F2E7BA
S31508000F4001230020EFE700BF0080005038B5104BA2
S31508000F500546D3F840320C4603F00303022B0BD0A8
S31508000F60032B0DD0012B0FD105F04AFC0A2305B13E
S31508000F70286004B1236038BD05F070F90923F6E747
S31508000F8005F041FC0C23F2E701230020EFE700BF40
S31508000F900080005038B5124B0546D3F880300C4611
S31508000FA003F00303022B0BD0032B0DD0012B0FD11B
S31508000FB005F0C8F80E2305B1286004B1236038BDD2
S31508000FC005F004F90723F6E705F0B6F80623F2E775
S31508000FD0044841F2142104F029FC00231846EAE7E4
S31508000FE000800050FC6A000838B51A4B0546D3F84D
S31508000FF020010C4600F00700062821D8DFE800F09B
S3150800100028040C1410181C0005F096F8052305B1E1
S31508001010286004B1236038BD05F0CEF80323F6E74F
S3150800102005F0D4F80723F2E705F0C2F80223EEE745
S3150800103005F082F80623EAE705F0BEF80423E6E79A
S31508001040054841F2912104F0F1FB00231846DEE73A
S315080010500123DCE700800050FC6A000838B5194B0C
S315080010600546D3F828310C4603F00703013B052B48
S3150800107020D8DFE803F003131B0F0B1705F05CF805
S31508001080052305B1286004B1236038BD05F054F87E
S315080010900623F6E705F09AF80723F2E705F08CF839
S315080010A00323EEE705F088F80423EAE705F080F85D
S315080010B00223E6E7044841F2990104F0B7FB00234E
S315080010C01846DEE700800050FC6A0008002337B5A2
S315080010D00193194B0546D3F820320C4603F0070353
S315080010E0042B1FD8DFE803F025030F14190000218D
S315080010F001A8FFF7B3FF12230DB1019A2A6004B1C4
S31508001100236003B030BD05F061F807230190F3E7CB
S3150800111005F076FB0A230190EEE705F09FF8092310
S315080011200190E9E741F25601044804F07FFB0023E9
S31508001130E2E70123E0E700BF00800050FC6A0008F0
S31508001140F7B50027144B0197D3F88041064604F0FB
S315080011500304022C0D4614D0032C0DD0012C14D1F7
S31508001160394601A8FFF740FF10240EB1019B3360F2
S3150800117005B12C6003B0F0BD05F028F807240190EE
S31508001180F3E705F015F80190EFE741F2E631034879
S3150800119004F04CFB3C46E8E700800050FC6A000877
S315080011A038B5164B0546D3F800020C4600F0070082
S315080011B0042819D8DFE800F020030B0F130005F008
S315080011C01FFB0A2305B1286004B1236038BD05F06A
S315080011D045F80923F6E705F016FB0C23F2E704F0B9
S315080011E0D1FF0F23800AEDE7054841F2A44104F038
S315080011F01DFB00231846E5E70123E3E700800050BE
S31508001200FC6A000838B5164B0546D3F808020C46A2
S3150800121000F00700042819D8DFE800F020030B0FB8
S31508001220130005F0EDFA0A2305B1286004B123601E
S3150800123038BD05F013F80923F6E705F0E4FA0C23A0
S31508001240F2E704F09FFF0F23800AEDE7054841F215
S31508001250DC4104F0EBFA00231846E5E70123E3E74F
S3150800126000800050FC6A0008002337B50193184B2C
S315080012700546D3F860320C4603F00703013B032BFF
S315080012801FD8DFE803F0020E1914002101A8FFF7A2
S31508001290ABFE10230DB1019A2A6004B1236003B096
S315080012A030BD002101A8FFF709FE1123F2E704F07B
S315080012B08DFF07230190EDE704F07AFF02230190E2
S315080012C0E8E741F2FD01034804F0B0FA0023E1E73C
S315080012D000800050FC6A0008002337B50193184BBC
S315080012E00546D3F894320C4603F00703013B032B5B
S315080012F01FD8DFE803F0020E1914002101A8FFF732
S3150800130073FE10230DB1019A2A6004B1236003B05D
S3150800131030BD002101A8FFF7D1FD1123F2E704F043
S3150800132055FF07230190EDE704F042FF02230190E1
S31508001330E8E741F23011034804F078FA0023E1E7C0
S3150800134000800050FC6A000873B500240F4B019416
S31508001350D3F87032064603F00303012B0D4607D077
S31508001360022B11D041F25B11094804F05FFA04E040
S31508001370214601A8FFF7A2FD11240EB1019B336097
S3150800138005B12C6002B070BD1524F6E70080005048
S31508001390FC6A000808B5334B98424FD027D8324B21
S315080013A0984245D017D8314B98423ED00AD838B122
S315080013B02F4B984239D041F2BB312E4804F036FA09
S315080013C0002034E02C4B98422FD02C4B9842F2D177
S315080013D02B4B586E2BE02B4B98422CD003F537132A
S315080013E003F5D8639842E6D1254B986F1FE0264B44
S315080013F098422FD00CD8254B984223D0244B98429C
S3150800140024D0244B9842D6D11D4BD3F884000EE045
S31508001410214B984222D003F5740303F510539842E2
S31508001420C9D1174BD3F8980001E0154B986D08BD44
S31508001430134B186FFBE7124B586FF8E7104BD3F8AE
S315080014408000F4E70E4BD3F88800F0E70C4BD3F88E
S315080014508C00ECE70A4BD3F89000E8E7084BD3F882
S315080014609400E4E780BA8C01405DC60080841E00C3
S3150800147040420F00FC6A000800093D00C0CF6A0020
S315080014800080E00F0024F400007E560380D5430256
S31508001490006CDC020048E8010090D003B0F5207F1C
S315080014A010B52ED009D8B0F5007F24D003D868B17E
S315080014B0B0F5C07F0AD000241BE0B0F5607FFAD1F2
S315080014C0124BD3F88040C4F3011412E00F4B1C6F83
S315080014D0230B13F00E0FC4F303340AD0072C08D0DD
S315080014E00F2C06D0032C04D04FF42271084804F0C0
S315080014F09DF9601C10BD054BD3F89040C4F30464F5
S31508001500F7E7024B1C6FC4F38024F2E70080005013
S31508001510FC6A00084FF4803238B5104B04469A66C8
S3150800152000200D46FFF7BAFF41F671320C4B6043B7
S31508001530DC69DA635A6804F4803422F440125DB92F
S315080015400849884294BF00200120000502435A60DA
S315080015500CB10022DA6338BD0349F2E70090005067
S3150800156000000350005A6202002D310138B54309C4
S3150800157004460D460ED140F235310D4804F056F9B1
S31508001580002304F01F0485B103F580530122A2400D
S315080015901A6038BD012B04D0022B04D040F2433127
S315080015A0EBE7044BEDE7044BEBE703F50053EDE7F8
S315080015B0FC6A00086480005068800050002130B53D
S315080015C0B0F5807F85B00446CDE9001100F0D380E0
S315080015D03DD85E2833D85E2833D8DFE800F0483295
S315080015E032323232323232323232323232323232CD
S315080015F0323232323232323232323232323248AD2C
S3150800160048ADBDBDBDBDBDADC7516EDD51ADADADBE
S315080016103232323232323232ADADAD81E7AD3232AC
S315080016203232323232323232323232BD484848E20F
S315080016305151EC9066C232323232329848008028D4
S315080016406AD040F2A441604804F0F0F867E0B0F5CB
S31508001650D06F00F0A18035D8B0F5607F77D01AD862
S31508001660B0F5007F5ED005D8B0F5C07FE9D104F0AB
S3150800167089FD53E0B0F5207F5ED0B0F5407FE0D11C
S3150800168004F080FD04464FF42070FFF707FFB4FB13
S31508001690F0F4640859E0B0F5B06F67D00AD8B0F531
S315080016A0806F59D0B0F5A06FCBD100216846FFF7FF
S315080016B00DFD34E0B0F5C06FC3D100216846FFF7D1
S315080016C0FDFB2CE0B0F5106F6BD00ED8B0F5086FA7
S315080016D076D0B6D8B0F5E06F68D0B0F5F06FB0D177
S315080016E000216846FFF70EFC19E0B0F5406F38D0C8
S315080016F00AD8B0F5206F5ED0B0F5286FA1D10021C9
S315080017006846FFF721FE0AE0B0F5486F99D1002137
S315080017106846FFF7E1FD02E004F014FD009000982A
S3150800172005B030BD04F00EFD05462046FFF7B6FEAF
S31508001730B5FBF0F50095F2E704F024FD04464FF4F6
S315080017402070FFF7ABFEB4FBF0F40094E7E701A8BE
S31508001750FFF720FC019DE8E700216846FFF744FCF7
S31508001760DDE700216846FFF779FCD8E700216846DF
S31508001770FFF7E6FCD3E74FF0E02302911B695B070E
S3150800178005D504F0FFFC0290029B0093C7E703A966
S3150800179002A8FFF793FBF7E700216846FFF700FD6D
S315080017A0BDE700216846FFF72DFDB8E7002168462A
S315080017B0FFF7CCFBB3E700216846FFF755FDAEE718
S315080017C06846FFF757FBAAE7FC6A000808B58020B9
S315080017D0FFF7F4FE034B98429EBF4FF48032024B4C
S315080017E01A6708BD005A620200A000501FB50346DA
S315080017F00020B3F5807F019000F0C58063D85D2B8B
S3150800180054D84C2B06D82D2B46D8232B2AD840F251
S315080018108951A7E04D3B102BF9D801A252F823F0C5
S315080018207D1900080F1800080F1800080F1800087F
S31508001830271900080F1800080F180008D7190008FC
S3150800184045190008EB180008CD1900080F180008FC
S315080018500F1800080F1800080F1800080F180008BE
S31508001860E1190008243B092BD1D801A252F823F02C
S315080018707D1900087D1900087D1900087D190008E2
S315080018807D1900080F1800086D1900080F180008C0
S3150800189007190008B31900083D2B00F085803E2B78
S315080018A0B5D1002001A9FFF751FB63E0802BAED12B
S315080018B04E4B1B6F03F00703013B032B50D8DFE8A1
S315080018C003F04D46494BB3F5F06F6DD020D8B3F50C
S315080018D0B06F4BD00ED8B3F5607F73D097D3B3F5FE
S315080018E0806F4BD0B3F5A06F91D1002001A9FFF707
S315080018F0EDFB3FE0B3F5D06F5BD0B3F5E06FD0D02A
S31508001900B3F5C06F83D1002001A9FFF7D7FA31E0FC
S31508001910B3F5206F5FD00BD8B3F5086F4ED0B3F58B
S31508001920106F7FF474AF002001A9FFF76BFC21E06C
S31508001930B3F5406F4AD0B3F5486F51D0B3F5286F69
S315080019407FF465AF002001A9FFF7FEFC12E005232E
S3150800195001930FE00323FBE70823F9E70223F7E7E0
S3150800196040F2D641224803F061FF03E0002001A9B6
S31508001970FFF7E6FB019805B05DF804FB002001A916
S31508001980FFF732FBF6E74FF0E02302901B695B078F
S3150800199005D504F0F7FB0D230393039BD8E703A9AA
S315080019A002A8FFF78BFAF8E7002001A9FFF7AAFAC1
S315080019B0E0E7002001A9FFF7F3FBDBE701A9FFF742
S315080019C059FAD7E701A9FFF7E5FAD3E7002001A9F5
S315080019D0FFF744FBCEE7002001A9FFF745FCC9E75E
S315080019E0002001A9FFF778FCC4E700BF008000507B
S315080019F0FC6A00084FF48032074B0849586E03F515
S31508001A0080535A664B6A23F001034B62C3035CBFDB
S31508001A10034B5A66704700BF0080005000C007504D
S31508001A2000A0005038B5036804460F2B04D940F6C9
S31508001A308A317C4803F0FAFE63680F2B04D940F616
S31508001A408D31784803F0F2FEA3680F2B04D94FF4C2
S31508001A503961744803F0EAFE237B0F2B04D940F65C
S31508001A609331704803F0E2FE637B0F2B04D940F6EE
S31508001A7096316C4803F0DAFEA37B3F2B04D940F677
S31508001A809931684803F0D2FEE37B3F2B04D940F630
S31508001A909C31644803F0CAFE2369032B04D940F637
S31508001AA09F31604803F0C2FE6369032B04D940F6F0
S31508001AB0A2315C4803F0BAFEE369032B04D940F669
S31508001AC0A531584803F0B2FE8020FFF78FFE0328A1
S31508001AD000F083804FF48012534B4FF0A0615A6692
S31508001AE045F60E02514BC3F88020514A91624FF4D5
S31508001AF0803102F5805291629A6DD203FCD4996DB9
S31508001B0011F08041FBD1D4E90002120542EA0062D5
S31508001B10E07B0243207B42EA0042607B42EA0032D5
S31508001B20A07B42EA80121A619869D4E90452120627
S31508001B3042EA856200F000400243A07EE57E024349
S31508001B40207E42EA0042607E42EA00229A611A6AD0
S31508001B50E06922F00F0242EA8502364D00283DD19F
S31508001B601A6294F82420996A94F82000D200294031
S31508001B7042EA40120A4394F8211042EA011242F45A
S31508001B8080329A622C49294A936D31EA0303FBD1C4
S31508001B904FF08071264881621369A56823F47003A3
S31508001BA043EA055313614FF00043836194F82230EA
S31508001BB00BB9224B996294F823303BB94FF4803223
S31508001BC01E4B9A62194A936D5B00FCD494F8253033
S31508001BD01BB1164B1A4AC3F8802038BD024342F09F
S31508001BE0080202281A6208D119614FF4085299614D
S31508001BF014484FF47F4103F04EFE0C4994F8223006
S31508001C008A6A94F820001B062A4043EA40131343C5
S31508001C1094F8242043EAC20394F8232043EA0243B3
S31508001C208B62D3E7FC6A0008009000500040005A17
S31508001C300050005AC7FFFEFE030001000060005A6C
S31508001C40F1A7FFFF3440005A014B93F90000704793
S31508001C5003160020436810B5072B044604D940F63E
S31508001C60E6512A4803F0E2FDA368032B04D940F69F
S31508001C70E851264803F0DAFD2378032B04D940F609
S31508001C80EA51224803F0D2FD94F90130002B04DA18
S31508001C9040F6EC511D4803F0C9FD4FF400011C4AFB
S31508001CA0637851664FF4D151022002F5B832516279
S31508001CB018494F2B48604FF0010028BF4F2301F504
S31508001CC0805148601169C903FCD4217843EA01238D
S31508001CD05361D4E901131B0143EA0123617B0B43DA
S31508001CE0217B43EA41039360E37BA17B1B0143EA23
S31508001CF04113617C0B43217C43EA41035360A37C77
S31508001D0013B16FF4D153536210BD00BFFC6A0008CB
S31508001D100090005000100250014B1880704700BF19
S31508001D20FE150020014B1880704700BFFC150020E7
S31508001D304FF4800208B5184B5A660223174A5360B7
S31508001D40936813F48033FBD1012822D104F034FAC6
S31508001D50134B984215D003F5122303F5F8639842FE
S31508001D6013D0104B00EB8002400AB3FBF0F3520A83
S31508001D700A49CA620B6301234B620022074B5A6069
S31508001D8008BD45F67A13084AF2E745F61A03074AE4
S31508001D90EEE75362F1E700BF0090005000400250A2
S31508001DA000F0490264666666D8B80500BBCF050030
S31508001DB0B0F5207F38B577D00ED8B0F5007F61D062
S31508001DC003D890B3B0F5C07F2FD04FF44671BDE865
S31508001DD038403D4803F02ABDB0F5607FF5D13B4A4F
S31508001DE04C1ED2F8FC5015F080751EBFD2F8FC3098
S31508001DF023F08073C2F8FC30032C04D940F2F72193
S31508001E00314803F013FD324AD2F8803023F030030C
S31508001E1043EA0413C2F8803035B12C4AD2F8FC30B4
S31508001E2043F08073C2F8FC3038BD4C1E012C0AD929
S31508001E30102903D8274BCB40DB0704D440F2CB212B
S31508001E40214803F0F3FC03F035FD03F041FD4FF4A0
S31508001E508031214B1E4A1967136F23F4704343EAF6
S31508001E600433136704F08EF90446FEF7F7FFC0F152
S31508001E700201204603F026FD00F048F8BDE8384088
S31508001E80FFF7A4BC4C1E1F2C04D94FF443710E480F
S31508001E9003F0CCFC0E4AD2F8903023F0F85343EA0C
S31508001EA00463C2F89030BFE74C1E012C04D940F2F7
S31508001EB01231054803F0BAFC054A136F23F4806310
S31508001EC043EA84231367AFE7FC6A000800ED00E0E5
S31508001ED000800050100101000090005008B5012153
S31508001EE0022000F099F94FF42070FFF7D7FA054B56
S31508001EF0187003F0DFFC03F0EBFC4FF48032024B62
S31508001F001A6708BD5B1500200090005008B54FF40D
S31508001F10C070FFF753FBBDE808400449884294BFE8
S31508001F20012102214FF42070FFF742BF80F0FA0228
S31508001F3038B5044604F026F90546FEF78FFFC0F1CA
S31508001F400201284603F0BEFC0121002000F0B8F982
S31508001F502CB1FFF7DBFFBDE83840FFF737BC034B72
S31508001F604FF420701978FFF723FFF4E75B1500207C
S31508001F702DE9F0410546FFF70DFA431E03330446E3
S31508001F8004D940F6E2113B4803F050FC4FF4C02256
S31508001F90394B5A6603F598335A68012A04D13749EA
S31508001FA04A605A689207FCD48020FFF71FFC052870
S31508001FB007D103F07FFC03F08BFC4FF480322E4BE5
S31508001FC01A672F4B24F040749D4239D02D4B9D4201
S31508001FD039D004F0B1F88542064603D901212846CE
S31508001FE000F06EF9284FFB6813F0060FFBD1D7F8FF
S31508001FF00880BC60BB68634013F4F81F26D12846E6
S31508002000FEF77CFB8020FFF7F1FB052814D104F0CE
S31508002010B9F8A842044604D940F63B21154803F00E
S3150800202005FCFEF71BFFC0F10201204603F04AFC3F
S31508002030FFF76CFFFFF7CAFBAE4213D2BDE8F0818B
S3150800204044F00074C5E744F08074C2E740F62A21DC
S31508002050084803F0EBFB8020C7F80880FFF7C6FBAB
S31508002060052805D0BDE8F0410121002000F028B977
S315080020703546CCE7FC6A00080090005000E00150A5
S3150800208040420F0080841E00000001504E4B70B580
S315080020909842054673D041D8A3F5B703A3F558630C
S315080020A0984265D033D8494B494E984251D017D8F3
S315080020B0002877D041F2DE11464803F0B7FB40F618
S315080020C08671444803F0B2FB4FF40022404B5A662F
S315080020D03E4B9D4276D000243F4A954236D05DE07D
S315080020E03D4B984227D03D4B9842E3D13C4BD3F821
S315080020F0A040621E033224F040744CD940F6867123
S31508002100344803F093FB4FF400237366E4E7354B3A
S315080021109842CFD1324BD3F8BC402CE0324B984290
S3150800212031D0324B984232D0314B9842C2D12C4BE7
S31508002130D3F8C8401FE02A4BD3F8A040621E0332EA
S3150800214024F04074DAD84FF40023736644F08074A0
S3150800215024E0234BD3F8A040621E033224F04074D7
S315080021602AD84FF400237366234643F0007415E01B
S315080021701B4BD3F8B840621E154E0332BBE7184B0B
S31508002180D3F8C040F7E7164BD3F8CC40F3E7144B27
S31508002190D3F8D040EFE74FF4002373664FF0B4420C
S315080021A0946070BD40F686710A4803F03FFB4FF411
S315080021B000232C467366F1E740F68671054803F05E
S315080021C035FBCEE70023D0E7C0EA210140420F00E5
S315080021D000900050FC6A000880841E0000093D003B
S315080021E00080E00F0024F4000048E801005A62026B
S315080021F080BA8C01024A536B0342FCD1704700BF78
S3150800220000400950034A0179D36E23F030030B438B
S31508002210D366704700400050F8B50446244BD3F8FF
S315080022208420D006FBD4D3F88430C3F381139C42B0
S315080022303CD003F087FF012C05460BD11D4B984275
S3150800224004D940F29B711C4803F0F0FA0121284694
S3150800225003F038FB04F0DFFA4FF00072174B07461D
S315080022605A66204603F039FB4FF48063104E621E0F
S3150800227093403367736E9A0103D4D6F884309B066D
S315080022800AD5384604F0C2FA022C0FD12846BDE812
S31508002290F840002103F016BBD6F884309906E9D534
S315080022A040F2B371044803F0C1FAE3E7F8BD00BF92
S315080022B000400050005A62024F6B00080060005050
S315080022C010B50C4608B903F03DFF074B21461B78AD
S315080022D03BB1064B984204D80120BDE81040FFF7F1
S315080022E09BBF0220F9E700BF5C150020005A620276
S315080022F04FF0004238B5244B244C5A664AF6CD3383
S31508002300656C014605F00105236428BB0120FFF72B
S3150800231071FF6368DB0715D51D4B586008461D4BD2
S31508002320226BD2070CD4984208D1072415B1174B53
S31508002330194A1A6403F0D2FA204638BD0130EFE78D
S315080023409842F2D00024F1E70132236B13F0080318
S3150800235005D08A42F8D1E8E700220E49F5E78A4215
S31508002360E3D020210A4A91620121A2F580525160E8
S315080023700649084A886A800603D49342D5D00133B1
S31508002380F8E79342DDE700BF00900050004009508F
S315080023900060095040420F003254FFFF4FF00042E0
S315080023A038B5164B01465A664AF6CD33144C154ACB
S315080023B0656C236443780B205B0043F00103D36309
S315080023C0FFF718FF63688A7823F4F87343EA021361
S315080023D06360CA784B7943EA0223A3600A798B794A
S315080023E043EA022323610878FFF782FFEB0744BF1D
S315080023F0054B236403F072FA012038BD00900050A3
S3150800240000400950004000503254FFFF0F2870B5B5
S31508002410044605D940F67461124803F007FA0F24FA
S315080024204FF00042104B11495D6E03F580535A6612
S315080024304AF6CD334E6C80200B64FFF7DBFE0B6A41
S3150800244023F00F0323430B62F30744BF084B0B64C7
S31508002450002DA2BF4FF00042064B5A6603F03EFA23
S3150800246070BD00BF4F6B0008008000500040095047
S315080024703254FFFF00A0005010B503F034FA0423CD
S3150800248000F5805100F500520B6113610B61136171
S315080024900B6113610B611361202341F20201036191
S315080024A00023C360836041614FF4A0218361836583
S315080024B041620549C36103628362C362436303657C
S315080024C0D164036310BD00BFFF3F0D0338B5174B3A
S315080024D0044698420D4607D0154B984204D040F260
S315080024E06911144803F0A2F925B92046BDE8384019
S315080024F003F0F9B9012204F580535A6040F6FF71DA
S31508002500204605F00F0203F0EAF9A263782103F0EA
S31508002510E6F905F001036A0748BF43F00203A26C17
S3150800252002F003029A42FAD138BD00BF0000015BEF
S3150800253000000A50A26B0008F8B505460C46164678
S3150800254022B940F227216B4803F070F96A4B9D4285
S3150800255002D19CB956240DE0684B9D4247D040F203
S315080025602A21644803F062F944B940F27931614896
S3150800257003F05CF92046FFF721F80446AB68D80754
S3150800258045D5B44204D24FF40D715A4803F04EF9BA
S31508002590B4FBF6F46F68013CFF2C07F0010704D979
S315080025A04FF40F71534803F041F924064FB328211D
S315080025B0284603F094F9AB6C99071CD1AB6CDA0783
S315080025C01BD4AE6C16F0020619D140F249214948CF
S315080025D003F02CF9284603F086F92B69314623F0D7
S315080025E07F4323432B61BDE8F840FFF76FBF002CFC
S315080025F0C4D15724BEE70526ECE70926EAE70626EE
S31508002600E8E72B6923F07F4323432B61F8BD6B680A
S31508002610012B04D04FF41771364803F007F9AB6D58
S31508002620DB07AB6848BF760003F0E003402B42D0D7
S3150800263009D893B1202B1AD040F29E21BDE8F84064
S315080026402C4803F0F3B8602B42D0802BF4D106EB6C
S315080026504603A34247D801230DE0B6EB141F04D95D
S315080026604FF42171234803F0E1F8102303E0B6EB99
S31508002670D40F1AD8082373436401B4FBF3F4204F2C
S31508002680203CB7EBC40F4FEAC40604D240F2A92196
S31508002690184803F0CBF828463E40012103F01FF9FD
S315080026A02E63BDE8F84003F01AB940F289211148B3
S315080026B003F0BCF8DEE70623B4FBF3F3B34201D319
S315080026C00623D8E740F28E210A4803F0AFF8F7E769
S315080026D0B6EB940F01D80423CDE740F293210548C1
S315080026E003F0A4F8F7E74FF42671024803F09EF8C2
S315080026F0B1E700BFA26B00080000015B00000A50AA
S31508002700F8FF7F00F8B5774B044698420E4606D088
S31508002710754B984203D0E221744803F087F81EB936
S31508002720E421724803F082F8727BB3687AB1704A82
S31508002730934203D9E6216D4803F078F83369C3B1AB
S31508002740DB7BB3B1E921694803F070F811E0694A07
S31508002750934203D9EC21654803F068F8336943B11D
S315080027601A7F32B1B168644A5B7F914278D9042BEB
S3150800277078D86368356923B140F6FF71204603F0BF
S31508002780AEF82046FFF778FE2269737BB17B22F00C
S3150800279087020B43134343F080032361002D63D064
S315080027A02369297F23F0F80343EAC1132978EA7BD2
S315080027B00B43297943EA4113697A43EA011343EA49
S315080027C082132361E068D5E9053720F0F0403B43E2
S315080027D020F470200343287B697B43EA802343EA7D
S315080027E0C133E360A368F07B23F00303034343F09C
S315080027F00103A3606B88A06803F4C0430343A36086
S31508002800A368687943EA8023A360AB79EF79606AA5
S315080028101B013F0203F0700307F4E06720F47720FA
S3150800282020F4EE603B430343287A000300F4E040BB
S315080028300343687F000400F47020034363626369FE
S31508002840307B23F00F03034363616B89A36141BBAC
S31508002850C2B1244B9C422ED0234B9C423CD011E063
S31508002860042B86D8F3216EE7A368F27B23F00303D3
S31508002870134343F00103A3606369327B23F00F031C
S31508002880134363612046D6E90112FFF755FE204639
S315080028903178FFF71BFEA36CDB4313F4405FFAD1D4
S315080028A0F8BD104B9C420CD1AB7B144903F00F03C7
S315080028B04B67002AE6D02B7C104A03F00F031367F8
S315080028C0E0E7094B9C42DDD1AB7B0C4903F00F03D3
S315080028D0C1F88030002AD5D02B7C084A03F00F03B4
S315080028E0D367CFE70000015B00000A50A26B00081F
S315080028F0002D3101809698003F4B4C000090035004
S31508002900032838B504460D4605D8094B33F8103068
S31508002910CB40DB0704D440F28541064802F086FF27
S31508002920302301225C43044BAA401A5138BD00BF2C
S31508002930A26C0008F86B000840D00350032838B58D
S3150800294004460D4605D8094B33F81030CB40DB0753
S3150800295004D440F25641064802F068FF30230122AB
S315080029605C43044BAA401A5138BD00BFA26C00084C
S31508002970F86B000840E0035003282DE9F0410446AF
S315080029800D461746984605D81D4B33F81030CB40F0
S31508002990DB0704D44FF4B0711A4802F047FF37B189
S315080029A029462046B8F1000F20D0FFF7A9FF0F21CE
S315080029B0072D04EB440688BFA5F108034FEA06165F
S315080029C0114895BFAB009B0004360C3607FA03F294
S315080029D09940304402F0ABFF7FB929462046B8F14A
S315080029E0000F06D0BDE8F041FFF78ABFFFF7A6FF44
S315080029F0DDE7BDE8F041FFF7A1BFBDE8F08100BF04
S31508002A00A26C00084D6C000830C003504369DA0117
S31508002A10FCD4012300F50050024A436053689B0723
S31508002A20FCD470470040005938B5124B044698420A
S31508002A300D4604D040F297210F4802F0F7FE012216
S31508002A4004F5805361685A60EB786A785B0443EA58
S31508002A5002232A781343AA78120402F48032134315
S31508002A60C4F89830CB0704D42046BDE83840FFF7B1
S31508002A70CDBF38BD00400059AA6C00081E4B70B582
S31508002A80984204460E46154604D040F25F211B487C
S31508002A9002F0CCFE2046FFF7B9FF3378727803F0D0
S31508002AA0070343EAC203F278294643EA0223B278C7
S31508002AB02046120102F0700213432367E26A337953
S31508002AC022F48B321B0222F4807203F4E063134370
S31508002AD0B27943EA02437279120302F4805213432D
S31508002AE0E362FFF7A1FF012204F580535A60F379E8
S31508002AF003B1E26070BD00BF00400059AA6C00082F
S31508002B00144B10B598420C4604D040F26A3112486C
S31508002B1002F08CFE74B92A20FEF750FD0446B0B1C7
S31508002B200E4B984206D90B4B9B68C3F302730133CD
S31508002B30B0FBF3F40A4B04F5742404F23F24B4FB07
S31508002B40F3F4601E7F2828BF7F20C0B210BD012481
S31508002B50F0E700BF00400059AA6C0008005A62025C
S31508002B6040420F0038B5154B0D469842144604D01E
S31508002B7040F2A531124802F059FE35B940F2A631A5
S31508002B800F4802F053FEB4B1FFDE0E4B9D4228BF3C
S31508002B901D461CB92A20FEF711FD04462C44013CAB
S31508002BA0B4FBF5F0AC4228BF00F1FF30032828BF7C
S31508002BB00320C0B238BD2546ECE700BF00400059E7
S31508002BC0AA6C0008005A6202F8B51F46194B0E4651
S31508002BD09842144604D040F2DF31174802F026FE28
S31508002BE026B94FF47871144802F020FEFFB1134D50
S31508002BF0134B012F08BF1D46B54228BF35461CB9E1
S31508002C002A20FEF7DBFC04469DF8183040F2FF3018
S31508002C100133B4FBF3F46B1E1C44B4FBF5F3AC426E
S31508002C2028BF03F1FF33984228BF1846F8BD054D63
S31508002C30E2E700BF00400059AA6C0008404B4C0070
S31508002C40002D31018096980013B5044601A800F0BE
S31508002C50FDFB042C04D8064B33F8140002B010BD53
S31508002C60044840F28C4102F0E1FD0020F6E700BF7F
S31508002C70FE6C0008AA6C00082DE9F04F2DED048BB8
S31508002C800646DFF840C38DB006AF0C461546BCE8CD
S31508002C900F000FC79CE80300BE4B87E803009E425F
S31508002CA003D0EC21BC4802F0C1FDBC4F00223946D6
S31508002CB03046FFF757FF94F80580804538BF8046B1
S31508002CC03046FFF7A3FE20795FFA88F850B92A2024
S31508002CD0FEF774FCB842014628BFB0FBF8F130464F
S31508002CE0FFF70EFFE3784FEA08721B0102F0E04295
S31508002CF003F0300313430004227800F4FE00034374
S31508002D000AB143F0020362780AB143F00403A278D9
S31508002D100AB143F00803B360E38822893361638903
S31508002D2043EA024333629B4B9E4200F01F82012313
S31508002D3006F5805673600DB0BDEC048BBDE8F08FC8
S31508002D409749C5E0D1F88041012B4FEA14442CD9A4
S31508002D50022B00F074814FF4F6718F4802F066FD7D
S31508002D609DE0D1F88441012BA4B2F1D8002B40F0A4
S31508002D700881D1F88C11091449001CE0D1F8844166
S31508002D80012B4FEA1444E3D8002B40F0FD80D1F81C
S31508002D908C11091401EB41010DE0D1F88041012B9A
S31508002DA0A4B2D5D8DFED7F7A09E0002B40F0E680A3
S31508002DB0D1F88C11091407EE901AF8EEE77A220476
S31508002DC00BF1B24202F58042926C24F4C041C2F380
S31508002DD0820C4FF001020CF1010E02FA0EF209EE16
S31508002DE0102A4FEA8141B8EEC99AF6EE008A6E4A71
S31508002DF048BF41F00041BCF1000F40F0E580002BD0
S31508002E0040F0C580D2F88C311BB207EE103AB8EE06
S31508002E10C77A37EE878A002840F0F98005A803911B
S31508002E2000F014FBDFED617A68EE277A0399DFED8F
S31508002E30606A86EE897ADFED5F6A27EE267AF1EE1A
S31508002E40006AB1F1004F07EEA67A0BD0DFED5A7A89
S31508002E5006EE104A77EE276ABAEEE86A56EE267A42
S31508002E60B0EE677AB5EEC07AF1EE10FACBBFB1EEE6
S31508002E70477A78EEC78A37EE687AFDEEE87AC8BFF1
S31508002E80FDEEC77A17EE903AB3F5003FC0F2CE8052
S31508002E906FEA51416FEA41413E4A3B01D1503F0139
S31508002EA007F1B247C9F3090307F580477B600AF1C2
S31508002EB0010A1435BAF1020F3FF439AF2B78AF681F
S31508002EC0002B3FF43DAF3D493D4A012B18BF114643
S31508002ED0304C00222046CDF800800393FFF774FE9D
S31508002EE004EB0A14A16C039B21F0435121F41D1134
S31508002EF021F443511FFA87F921F03F0103F0030734
S31508002F000F43697881454FEA810101F01C0147EAC0
S31508002F100107A97838BF81464901C9B20F43E97844
S31508002F202879090301F4E0413943070407F4E02747
S31508002F3039432F7C4FEA0A1B7F0507F4600739439C
S31508002F406F793F0707F040573943A164A46C1649C7
S31508002F50C4F30234013C0AF10507042C3FF61DAF01
S31508002F600FF2040C5CF824F09B2D00089B2D00083A
S31508002F70452D0008632D00087D2D0008D1F8941111
S31508002F8018E7D1F89411F6E6D1F8941101E7D2F8CA
S31508002F90943139E700400059AA6C0008005A6202C9
S31508002FA080969800000000000080E00F3D3B843FBB
S31508002FB0000080430000204400000049002D310134
S31508002FC0404B4C00086D0008ABB9D2F890311BB2E3
S31508002FD007EE103AB8EEC77A77EE677A69EE286A8E
S31508002FE0644B87EEA67AD3F888311BB207EE903A7F
S31508002FF0F8EEE77A0DE7D2F898311BB207EE103AE9
S31508003000B8EEC77A37EE677A77EE877AE6E7D5EDD0
S31508003010037ADFED596AF8EE677A87EEA67AF7EE55
S31508003020046AC6EE877A67EE887A00E713F5003FEA
S31508003030AABFC3F3110341F4003119432CE7FFF784
S3150800304003FE07EE900A9FED4C7AF8EE677A0BF1CD
S31508003050B24303F580439B6C0CAAC3F3421302EBFD
S31508003060830387EE875A13ED067AFCEEC77A17EEC6
S31508003070903AF7EE006A5C2B1CBF77EE267A87EE4D
S31508003080276A07EE904ADFED3D5AF8EE677A08BFE1
S315080030909FED3B6A67EEA57A67EE867A9FED396AF9
S315080030A067EE867AF5EEC07AB6EE006AF1EE10FAA9
S315080030B04CBF77EEC67A77EE867A0BF1B24202F506
S315080030C08042136DFDEEE77A0023136517EE903AFA
S315080030D017EE900A13F4004F136DDFED2B4A18BF55
S315080030E043F000431365294B116D03EA80430B43F4
S315080030F01365204B9FED264AD3F88811D3F88831FB
S31508003100116D1BB207EE903AF8EEE77A77EEA47ADD
S31508003110C4EE074A37EE267AC4EE876AF7EE044A03
S3150800312084EE857A67EE277AB1EE007A47EE876AEB
S3150800313007EE104ADFED177AB8EEC77A76EEA76A79
S3150800314065EEC75A46EEA57AF5EEC07AF1EE10FAA4
S315080031504CBF77EEC67A77EE867AFDEEE77A17EEFB
S31508003160903AC3F311030B43136598E64FF0000A30
S31508003170A0E600BF0080E00F00007A440000003897
S31508003180E71B753F00000047000000000000FC7FB9
S31508003190000080480000004910B5152000F0F4FC36
S315080031A00024FF22064B21465C6520209A625C605B
S315080031B0FEF7DCF92146BDE810402120FEF7D6B916
S315080031C000000450072838B504460D4603DD77216C
S315080031D0084802F02BFB1F2C03D99121064802F060
S315080031E025FB064A064B002D08BF13460122A240BE
S315080031F01A6038BD206D0008746D00084010045030
S315080032004020045010B5044618B991211F4802F011
S315080032100DFB23781B0613F0604F03D092211B4841
S3150800322002F004FBE3780F2B03D99521174802F027
S31508003230FDFA01212020FEF799F901212120FEF748
S3150800324095F90122124B15205A60227812069A60C7
S315080032506178A27842EA01429A61FF229A620022C4
S315080032609A631A644FF000425A654FF0FF3203F52D
S3150800327000531A6500F0D8FC1520E17800F0E2FC4E
S31508003280BDE81040152000F09DBC00BF206D000869
S3150800329000000450F8B50126C3B2072805460C46B7
S315080032A0174606FA03F603DDDE21344802F0BEFAB5
S315080032B01CB9DF21314802F0B9FA236823F47C13DC
S315080032C023F00F031BB1E2212C4802F0AFFAA37AD0
S315080032D01B0413F47C0F03D0E721284802F0A6FA52
S315080032E0E37A1B0513F07E6F03D0E921234802F029
S315080032F09DFA237B5B0513F0FE5F03D0EB211F4885
S3150800330002F094FA1E4B27F003071E65AB002268ED
S3150800331003F1A04303F588235A60302202FB05F027
S31508003320637B00F1A04000F580200366E37AA27A69
S315080033301B0543EA0243227B43EA4253C3650767F8
S3150800334003F072FA0F4B227A5E6502B11E64627A46
S3150800335002B19E632279A37943EA0243084A93613C
S315080033606179E37943EA014306498B61064B566363
S315080033709E64BDE8F84003F052BA00BF206D00080D
S3150800338000200450001004500000045010B5012419
S31508003390C3B2072804FA03F404DD40F27B11074898
S315080033A002F044FA03F040FA054B5A6D22EA040289
S315080033B05A659C62BDE8104003F031BA206D0008DA
S315080033C00000045010B50124C3B2072804FA03F418
S315080033D004DD40F299110A4802F028FA03F024FAAB
S315080033E0084BDA6A224208D15B6B9C430CBF012466
S315080033F0002403F014FA204610BD0024F9E700BFA4
S31508003400206D00080000045070B50125C3B20728D6
S31508003410044605FA03F504DD4FF4E071094802F0A5
S3150800342005FA03F001FA3022074B5E6B02FB043300
S315080034305C6E03F0F4F935420ABFC4F30A100020A3
S31508003440013070BD206D0008000004504FF4803232
S31508003450064B5A6603F5E6239B69C3F38512827009
S3150800346003F03F021B0B4270037070470090005038
S31508003470F8B507460C461E4615464AB940F2551198
S31508003480314802F0D3F924B1402E09D1062328E0A9
S3150800349021B94FF42070FEF791F80446402E42D029
S315080034A0402E09D87EB1202E17D04FF4CE71BDE834
S315080034B0F840254802F0BAB9602EF6D1B5EB940F5C
S315080034C03CD804230DE0B5EB141F04D940F287114C
S315080034D01D4802F0ABF9102303E0B5EBD40F1CD856
S315080034E008235D436B0803EB4413B3FBF5F3174D51
S315080034F0203BB5EBC30F4FEAC30404D240F2B31125
S31508003500114802F093F9602207F500539A602C409F
S3150800351007F580539E60FC61F8BD4FF4C6710A48F2
S3150800352002F084F9DCE70623B4FBF3F3AB42ADD231
S3150800353040F29111044802F079F9A7E74FF4CB71EC
S31508003540014802F073F9BCE7C86D0008F8FF7F0070
S3150800355038B50C4B044698420D4604D04FF43971E1
S31508003560094802F063F9012204F580535A60EB43D7
S31508003570934003F00A036361656115B904F50054C5
S31508003580626038BD00C00550C86D0008124B10B502
S315080035909842044604D040F25E41104802F046F9CB
S315080035A0012104F58053596040F6AA6341F20502E9
S315080035B0636100230A48A360E365E26004F50052EC
S315080035C02361E361E36490640348A365844204BF0E
S315080035D023656365516010BD00C00550C86D0008BD
S315080035E0FFFF01002F4B70B5984204460D4604D0E4
S315080035F040F215312C4802F019F92046FFF7C6FFAC
S31508003600012304F580567360AB7C1BB1A36843F0B5
S315080036108043A360EB7C4BB1224B9C4202BF2A7DC0
S31508003620A3F51033C3F8C8218023F3652A8A6B7B78
S3150800363020461343EA891343E3602B7BD5E901123D
S31508003640FFF716FF6B7D1BB1A36843F48033A360B5
S31508003650AB7D1BB1A36843F40043A360EB7D2A7ED0
S315080036601B07120502F4E00203F0E0431343A365C7
S315080036706B7E9A1E012A4FF0020209D80B49032BCA
S31508003680C1F8202709D10423F3652B78636170BD3F
S315080036900749012BC1F82027F4E7042204F5005353
S315080036A0DA65F2E700C00550C86D000800D003507F
S315080036B000E0035010B5044620B940F23A211048FC
S315080036C002F0B4F82378C3B1013BDBB2022B06D86B
S315080036D00C4A32F813306278D340DB0704D440F240
S315080036E03D21074802F0A2F80122637821789A4022
S315080036F030235943044B5A5010BDFF23EBE700BF54
S315080037001D6E0008D86E000840E00350034BD3F83E
S315080037102424D3F820041040704700BF00C003508B
S315080037202DE9F041037804460D46164613B3013BCE
S31508003730DBB2022B06D82A4A32F813306278D34015
S31508003740DB0703D45D21274802F070F8264BD3F82F
S3150800375010331BB16021234802F068F80F2D0BD8EF
S31508003760DFE805F03631313131313131313131313E
S3150800377031313131FF23E1E7B4211A4802F056F816
S315080037804FF00008204606B302F0D2FD0F216778F5
S315080037902378072F03EB430388BF083F4FEA031339
S315080037A0124895BFBF00BF0004330C3308FA07F26E
S315080037B0B940184402F0CFF885B9204656B1BDE89D
S315080037C0F04102F0B5BDA846DCE7FFF773FFDDE779
S315080037D0A846DBE7BDE8F041FFF76CBFBDE8F0811E
S315080037E0D86E00087B6E000800C0035030C0035036
S315080037F0054B9A689107FCD45A689207F9D4DA6996
S31508003800002AF6D1704700BF00800A5010B5074C51
S315080038106368DB0704D44FF49F71054802F006F885
S3150800382002F0B2FD0223236110BD00BF00800A50DA
S31508003830DE6E000808B5FFF7DBFF0122024B03F531
S3150800384080514A601A6108BD00800A50044B10B5C1
S315080038505C68012C03D1FFF7D9FF024B5C6010BDF1
S3150800386000800A5000A00A5038B5074DFFF7C0FF80
S315080038706B680446012B03D1FFF7E8FFFFF7B8FF93
S315080038802378EB6038BD00BF00800A5038B505467E
S315080038900C4602F083FDBDB96268237812B112782E
S315080038A043EAC203627843EA4203A26812B1127875
S315080038B043EA8213E27843EA8203226912B1127854
S315080038C043EA4223014A936438BD00BF00800A5088
S315080038D030B58D488BB002F0B2FF20B14FF44E716F
S315080038E08A4801F0A3FF6C46894D0FCD0FC42B689B
S315080038F0884A2360FF238DF80130D2F84C3113F43F
S31508003900802340F0F580D2F850218DF801309DF8DB
S3150800391001306C46FF2B08BF3F2368467E4D8DF865
S315080039200130FEF797F93220FEF7F6F90FCD0FC4EE
S315080039300FCD0FC495E8030084E80300754BD3F850
S315080039404C21120340F1B880A3F5FE431C88B4F558
S31508003950807F28BF8C248DF81940FEF775F904443A
S3150800396084F308046D488DF81840FCF7CDFE6846C8
S31508003970FEF758F83220FEF7D5F96948FEF7F8FA47
S315080039806848FEF783FB684802F059FF20B140F209
S31508003990CB115E4801F04AFF644C0020FEF7C8F9D7
S315080039A0FEF79CFA236F002023F0070343F0030376
S315080039B02367FEF7BDFA236F5D4923F47443236733
S315080039C05C4BD3F8FC2012F0807279D1D4F88030A1
S315080039D023F0030343F00103C4F88030C1F88020C4
S315080039E0524CD4F8203123F0070343F00203C4F8FD
S315080039F02031D4F8283123F0070343F00203C4F832
S31508003A002831D4F8803123F0030343F00103C4F8C6
S31508003A108031D4F8403123F0030343F00203C4F89D
S31508003A204031D4F8603123F0030343F00203C4F8AD
S31508003A306031D4F8403223F0030343F00203C4F89C
S31508003A404032D4F8003223F0070343F00203C4F8E7
S31508003A500032D4F8083223F0070343F00203C4F80F
S31508003A600832D4F8703223F0030343F00103C4F894
S31508003A707032D4F8203223F0070343F00103C4F868
S31508003A802032FDF7B7FF4FF0E0220020136943F01C
S31508003A9004031361D4F8603223F0070343F00103EB
S31508003AA0C4F86032D4F8943223F0070343F00103D4
S31508003AB0C4F894320BB030BDD3F85041E4B24AE7AB
S31508003AC0D3F8FC2022F08072C3F8FC20D4F88020BA
S31508003AD022F0030242F00102C4F880200022C1F855
S31508003AE08020D3F8FC2042F08072C3F8FC2077E7E8
S31508003AF04FF07E6393F89C2093F99C30002BFFF6D9
S31508003B0006AF8DF8012002E7D07000081170000892
S31508003B108C7000080080E00FA0700008C0175302E0
S31508003B2000B4C404C0EA2101D47000080080005023
S31508003B300090005000ED00E007B5094B18689A8818
S31508003B409B7900906846ADF804208DF80630FEF79C
S31508003B5025FC0C20FEF75AFC002003B05DF804FB98
S31508003B60C870000813B50024064A6846536F43F028
S31508003B700103536700948DF80440FEF743FB204683
S31508003B8002B010BD004000504C2810B504460DD8B0
S31508003B9001220A49630904F01F04A240203341F8B0
S31508003BA02320BFF34F8FBFF36F8F10BD40F225114F
S31508003BB0034801F03BFE002CF7DBE9E700E100E0F3
S31508003BC0EC7000084C2810B5044608D80123610992
S31508003BD0074A04F01F04A34042F8213010BD4FF4F1
S31508003BE09871044801F022FE002CF7DBEEE700BFCF
S31508003BF000E100E0EC7000084B2810B5044604D933
S31508003C0040F23B11064801F011FE064B621153F8CB
S31508003C10220004F01F04E040C04300F0010010BD7C
S31508003C20EC70000800E100E0002808DB01224309E7
S31508003C30034900F01F008240603341F82320704793
S31508003C4000E100E038B500F110035C2B04460D4690
S31508003C5004D94FF4EF710E4801F0E8FD0F2D04D991
S31508003C6040F2DF110A4801F0E1FD60B20028ACBF5E
S31508003C7000F16040074B4FEA0515EDB2ABBF00F502
S31508003C80614000F00F0080F800531D5438BD00BF96
S31508003C90EC70000814ED00E010B502F0C5FD0A4B03
S31508003CA01A786AB901226FF004041A7002F0B7FD97
S31508003CB0204605210134FFF7C5FF4C2CF8D110BD6D
S31508003CC0BDE8104002F0ABBD5D15002010B50446F6
S31508003CD002F0A1FD024B1C6002F098FD002010BD09
S31508003CE0D813002010B502F096FD034B1C6802F0AD
S31508003CF08DFD204610BD00BFD813002010B500204A
S31508003D00144601F03DFE022804D018B1C32102482A
S31508003D1001F08CFD204610BD69710008034B022294
S31508003D20186800238068194601F070B8A0150020AD
S31508003D303021037D02464B4303F1A04303F580235C
S31508003D40D86E07491B6F884208D113F0020006D0C7
S31508003D50106A136D1B1A5842584170470020704765
S31508003D605E150020302337B5007D0DF1070143436A
S31508003D7003F1A04303F58023DD6E1C6F02F094FA6D
S31508003D8020B140F2F931084801F050FD9DF80700CE
S31508003D9040B9064B9D4203D184F00204C4F34000A7
S31508003DA003B030BD0120FBE7DB7100085E1500207B
S31508003DB037B504460DF10701007D02F075FA20B10A
S31508003DC040F24441114801F031FD9DF80730A3B196
S31508003DD0256DD4E9122313449D4201D8AA4204D979
S31508003DE040F24F41094801F021FDD4E9120303448A
S31508003DF09D4218BF284603B030BD3022237D534369
S31508003E0003F1A04303F58023DD6EE2E7DB710008CA
S31508003E102DE9F743D0E9043404F17C07D0F80C9077
S31508003E20013B06461022002138469DB2D4F874801C
S31508003E3001F083FF104BC5F30A0543EA0513C4E9ED
S31508003E401F39012394F8780084F88C30C4F88480EC
S31508003E503A460A4B009604F16401FCF75FFF38B155
S31508003E6040F28D31064803B0BDE8F04301F0DEBCF0
S31508003E7003B0BDE8F08300BF00001030F93F00082A
S31508003E80DB7100082DE9F04300F13806044685B0D9
S31508003E9010220021304601F050FF4FF44473534D71
S31508003EA0207DC4E90F556387FCF75EFF20B140F219
S31508003EB0CA514F4801F0BAFC10220021304601F0E1
S31508003EC03CFF4FF4447363873023207DC4E90F55C4
S31508003ED0434303F1A04303F58023DB6EAB420BD1CA
S31508003EE0FCF762FF002876D040F2D351404805B06F
S31508003EF0BDE8F04301F09ABC0DF10B0102F0D4F9CC
S31508003F0020B140F2D9513A4801F090FC9DF80B30A7
S31508003F10002B63D12046FFF74BFF03A90746207DF8
S31508003F2002F0E4F920B140F2E151314801F07EFC9B
S31508003F30039B002B04DC40F2E3512D4801F076FC8C
S31508003F40039B04F11808013B1022002140469DB24C
S31508003F50D4F8109001F0F1FE3022237DC5F30A054E
S31508003F6053432D0145F04075C4E9065903F1A043B2
S31508003F70276203F580231A6F94F82410520862F317
S31508003F80410184F82410196F94F8242028F00308B6
S31508003F9061F3000284F824201B6F626A9B0863F3AE
S31508003FA09F0248F002036262636400943246214627
S31508003FB0104B207DFCF7B2FE20B140F204610C489C
S31508003FC001F034FC207DFCF7EFFE20B14FF4C1610F
S31508003FD0074801F02BFC05B0BDE8F08394F844309F
S31508003FE06FF3410384F84430DFE700BF5E15002015
S31508003FF0DB710008715A000838B55569144695F8FA
S315080040008C3023B940F26A310A4801F00FFC0023CC
S3150800401005F1900085F88C30FCF798FB08B1FFF79E
S31508004020F7FE63681BB100212046A2689847002066
S3150800403038BD00BFDB71000838B50446007DFCF7C3
S3150800404093FE20B140F22D41084801F0EFFB2046CF
S31508004050FFF76EFE0546207DFCF7A6FE20B140F26E
S315080040603241024801F0E2FB284638BDDB71000800
S315080040702DE9F04F9946002304468DB00891069223
S31508004080C9F80030D9F80060069B9D1B00F0C58072
S31508004090089B9E1900F0C1802046FFF7CDFF804699
S315080040A0002840F0BA802046FFF782FE226D904233
S315080040B040F2BC80801A854228BF054694F896A02F
S315080040C0BAF1000F00F0F28002F0AEFB236D079004
S315080040D020460993FFF746FE2F46099B8346581943
S315080040E08342D4F8981040F0BC80D4E912231344D4
S315080040F08B4208BFC4F89820D4F898108A4201D891
S315080041008B4204D840F242518A4801F08FFB079847
S3150800411002F085FBDA46207DFCF726FE20B140F248
S315080041208241844801F082FB207D0DF12F0102F0C7
S31508004130BBF820B140F286417E4801F077FB204665
S31508004140FFF736FE236D834698429DF82F3040F2DE
S31508004150BC8023B140F28E41764801F067FBA26C21
S31508004160236DAEB2934240F0A880099304F1280863
S315080041702369102200214046079301F0DEFD302115
S31508004180079B013EE362099BC6F30A062363237D68
S3150800419036014B4328F0030803F1A04346F0407666
S315080041A048F0020203F58023A6621A67236DD4E954
S315080041B012122B440A44934208BF0B4693422365C6
S315080041C004D340F2DE415B4801F030FB236D9B458A
S315080041D005D10123204684F85430FFF753FE207D8D
S315080041E0FCF7E2FD20B140F2F741524801F01EFB10
S315080041F094F896303BB1BAF1000F04D0236E112122
S3150800420020465B689847D9F8003037B1069A3B4490
S315080042109342C9F80030FFF435AFD9F80030002BC7
S3150800422014BF00201B200DB0BDE8F08FD4E9123171
S315080042300B449A4204D340F26A413E4801F0F6FA2A
S31508004240D4E912321344226D9B1A9D4228BF1D469B
S31508004250002D7FF433AF40F21651364801F0E6FAE6
S315080042602CE701335A1E914210D1C4F8983013F83E
S31508004270012C112A01D0132A14D1013FA2F11101F0
S315080042804A424A41D04684F89C2029E713F8012C73
S3150800429002F0FD01112906D1013FB8F1000F3FF4E4
S315080042A01FAFEBE7D04606F8012B19E72A4630463A
S315080042B0216D01F0D4FC2F462DE7238DC3F30A1296
S315080042C0164466F30E13238570E7207D93B93023D1
S315080042D0584300F1A04000F58020426E436EC2F3B9
S315080042E00A1223F4FF432A4423F0700343EA021315
S315080042F043665BE7104B049403930023CDE901530F
S31508004300012300935A462369216801F0AAFA20B1CD
S3150800431040F2CB41074801F089FA3022237D534306
S3150800432003F1A04303F580235A6E22F480125A66DD
S315080043303CE700BFDB710008715A00082DE9F84F09
S3150800434090F8943004460D46002B40F0858090F88E
S315080043509580DFF808918E18B54223D094F89630E8
S315080043606BB12046FFF768FEF8B1D4F89820236DA4
S315080043709A4204D040F2CD21484601F057FA94F803
S315080043809C30002BE8D0236E2F462A785B68B8F15C
S31508004390000F59D1236E20465B6839780135984756
S315080043A00028D9D00020BDE8F88F02F03DFA07466C
S315080043B0207DFCF7D9FC20B140F2D321274801F033
S315080043C035FA2046FFF7F4FCA26C00F1FF3A924555
S315080043D038BFE36C207D3CBF03F1FF3302EB030AD1
S315080043E094F854B0FCF7E0FC20B140F2DF211B48FA
S315080043F001F01CFAD4F89810BBF1000F22D0236DF7
S315080044008B4204D04FF43971144801F00FFA38463C
S3150800441002F005FAB3E7A26C9A4202D9E36C013BB3
S31508004420134499420BD013F80129112A01D0132AF3
S31508004430F1D1A2F111035A425A4184F89C20C4F8DA
S3150800444098A0E4E75346ECE70A2AA3D10D212046B3
S31508004450984700289ED0A5E70E20A4E7DB71000840
S31508004460F0B50C4615460646A022002189B020461E
S3150800447001F063FC2746AC46BCE80F000FC7DCF822
S31508004480003005F1140C3B6004F16407BCE80F002A
S315080044900FC7DCF80030EA6A3B60AB6AC4E913234D
S315080044A095F83020A36484F8952095F83320C4F84D
S315080044B09830012384F8962084F89C3084F8543088
S315080044C0AB6B2366324B34607360324BB360324B4E
S315080044D0F360324B7361324BB361324B3361FCF795
S315080044E0E9FB10B1304B98420FD1002107A8FCF721
S315080044F069FB014648B9079B07A82375FCF762FBC9
S315080045000346207D23B1FCF7AFFB102009B0F0BDB0
S31508004510079B84F87830FCF727FC0028F5D1234B55
S315080045200494CDE90203E36C019301230093236904
S31508004530A26C2168207D01F094F90028E5D130228B
S31508004540237D4FF48011534342F2640203F1A043E2
S3150800455003F580239950AB6B93F91000FFF764FBC2
S31508004560AB6B93F91000FFF72DFB04F1900001F0F7
S315080045705EF93046FFF7AAFB2046FFF783FC207D4D
S31508004580FCF712FC003818BF01200001BEE700BF87
S315080045903D430008E15A000871400008655A0008C2
S315080045A06B5A0008B1450008038000F0715A0008EC
S315080045B070B50568044695F89460002E3BD101F065
S315080045C0B2FAFFF78FFB844202D13046FFF77EFB33
S315080045D02B6E93F91000FFF727FB2B6E93F910004B
S315080045E0FFF7D2FA287D01F03FFE20B140F297216D
S315080045F0144801F01BF9287DFCF736FB20B140F280
S315080046009B21104801F012F9FCF70CFB38B10E4B50
S31508004610984204D040F29F210A4801F007F9002386
S31508004620C4E90033C4E90533E3602B6E2846BDE8C8
S315080046307040DB68184740F26621024801F0F6F838
S315080046400F2070BDDB710008058000F0F8B517462D
S315080046501C46564A8B6B069D1A60554A5A600022BC
S315080046609A60544ADA600A462946FFF7F9FE064672
S31508004670002840F0948023680121C5F8A0306368BB
S315080046803A20C5F8A430637A85F8A930237A85F8E4
S31508004690A830E37A85F8AB30A37A85F8AA30637B2D
S315080046A085F8AD30237B85F8AC30E37B85F8AF30F1
S315080046B0A37B85F8AE30FCF759FF01230422617A03
S315080046C0207AFEF759F901230222E17AA07AFEF749
S315080046D053F901216068FCF749FF3E7039462068A6
S315080046E0FEF780FF1420617C334B01F13902520139
S315080046F09850607A227A03EB411342EA0042C3F8E3
S315080047003827E17AA27A42EA0142C3F8302785F8C7
S31508004710B0607B7E032B46D8DFE803F03943021CE2
S31508004720022385F8B03000230422E17BA07BFEF744
S3150800473023F90220617C204B01F1B90252019850FD
S3150800474003EB411341F22C71E07BA27B42EA004263
S315080047505A501CE0012785F8B03002220023617BFD
S31508004760207BFEF709F9617B227B637C42EA0142E2
S3150800477041F228715B0103F1A04303F570335A50E7
S315080047800422236803F58053DA65002FCBD120680D
S315080047900A4A00F5005305219A64FEF7D9FE304609
S315080047A0F8BD0027D7E72326F9E700BF435B0008D3
S315080047B0CD5B0008575B000800C00350FFFF0100EF
S315080047C0F421014801F032B8437200080346054A4D
S315080047D00549106803448B428CBF4FF0FF301360C5
S315080047E0704700BF9C1500200000042070B502F039
S315080047F01BF8144E05463478FCB9134B1C60134B52
S315080048001C60134B1C6000F02BF8012002F083F8A3
S3150800481001F098FF0F4B0246186020B9284601F0B0
S31508004820FEFF232070BD234640F2E7310A4800F018
S3150800483079F80A4B186001233370284601F0EFFF18
S315080048400020EFE761150020E4130020E0130020A4
S31508004850EC130020E813002018FCFFFFDC130020EF
S3150800486010B5002486B01422214601A88DF8004010
S3150800487001F063FA012313488DF8043001F0DFFFD5
S31508004880BFF34F8F6846FEF7EFFF204601A98DF864
S315080048900440FEF7FBFF20460F2101F09FFD0F2184
S315080048A0204601F0A9FDFEF7C5FF01F06DFD064B98
S315080048B043209C61FFF7B8F94320FFF783F906B058
S315080048C010BD00BFD070000800800A5010B504461D
S315080048D001F058FC4FF47A729042B0FBF2F105D21F
S315080048E03621BDE810400C4800F0A0BF0B4BB3FBC7
S315080048F0F1F30B49884201D93C21F2E702FB04F0A7
S31508004900B0FBF3F0022806D9BDE810400323B0FB3C
S31508004910F3F0FBF72DBC10BD1373000840420F00DF
S31508004920E7CD9A3B53B94AB9002908BF00281CBFEE
S315080049304FF0FF314FF0FF3000F082B9ADF1080CAF
S315080049406DE904CE00F006F8DDF804E0DDE902239F
S3150800495004B070472DE9F04F099D0C46002B4DD148
S315080049608A420F4684469646B2FA82F360D94BB11C
S3150800497002FA03FEC3F120029F4000FA03FC20FA64
S3150800498002F217434FEA1E461FFA8EF44FEA1C42FC
S31508004990B7FBF6F106FB117701FB04F042EA074282
S315080049A0904208D91EEB020201F1FF3702D290426B
S315080049B000F231813946121A1FFA8CFCB2FBF6F066
S315080049C006FB102200FB04F44CEA024C644508D9A5
S315080049D01EEB0C0C00F1FF3202D2644500F21E8178
S315080049E0104640EA0140ACEB040C002125B12CFA34
S315080049F003F30022C5E90032BDE8F08F8B4205D9E2
S31508004A000DB1C5E9000100210846F5E7B3FA83F1BF
S31508004A1000294DD1A342C0F0F380904280F0F08087
S31508004A20064623460846002DE6D0C5E90063E3E7B7
S31508004A30002B40F0A3808A1A4FEA1E471FFA8EF60B
S31508004A400121B2FBF7F407FB14204FEA1C4242EAA5
S31508004A50004206FB04F090420FD91EEB020204F155
S31508004A60FF382CBF4FF001094FF00009904203D9D7
S31508004A70B9F1000F00F0CC804446121A1FFA8CFCDC
S31508004A80B2FBF7F007FB102200FB06F64CEA024CD5
S31508004A90664508D91EEB0C0C00F1FF3202D26645BA
S31508004AA000F2B3801046ACEB060C40EA04409DE7E2
S31508004AB0C1F120068B4004FA01FE22FA06F720FA15
S31508004AC006FCF4408A401F434EEA0C0300FA01FE36
S31508004AD04FEA17484FEA13491FFA87FCB4FBF8F068
S31508004AE008FB104449EA044400FB0CF9A1450ED919
S31508004AF03C1900F1FF3A2CBF4FF0010B4FF0000BA9
S31508004B00A14503D9BBF1000F00F08B805046A4EBFA
S31508004B1009041FFA83F9B4FBF8F308FB134403FBF3
S31508004B200CFC49EA0444A44506D93C1903F1FF38AC
S31508004B3001D2A4457BD8434643EA0040A4EB0C04C3
S31508004B40A0FB02984445CC46434602D306D1CE453F
S31508004B5004D20138B9EB020C68EB0703002D6CD0C0
S31508004B60BEEB0C0264EB030422FA01F304FA06F620
S31508004B70CC4000211E43C5E900643DE702FA03FE66
S31508004B80C3F1200104FA03F200FA03FCCC404FEA11
S31508004B901E4720FA01F11FFA8EF6B4FBF7F00A4316
S31508004BA007FB1044110C41EA044100FB06F48C4251
S31508004BB00ED91EEB010100F1FF382CBF4FF0010999
S31508004BC04FF000098C4202D9B9F1000F2CD04046AB
S31508004BD0091B92B2B1FBF7F407FB141142EA014232
S31508004BE004FB06F1914207D91EEB020204F1FF38D5
S31508004BF001D291421ED84446521A44EA004120E79F
S31508004C00861A64EB030301200DE7F44402384AE7E9
S31508004C10023C724431E702397244CCE6F444023865
S31508004C20DFE602383C4472E702387144D0E7023BBB
S31508004C303C4481E7023C7244DEE72946DCE600BFD5
S31508004C40704700BF08B5064B044613B10021AFF301
S31508004C500080044B1B6803B19847204600F0EAFE23
S31508004C60000000002815002070B50D4D00260D4CDB
S31508004C70641BA410A64209D10B4D00260B4C01F06B
S31508004C806FFE641BA410A64205D170BD55F8043BFF
S31508004C9001369847EEE755F8043B01369847F2E7A0
S31508004CA00816002008160020081600200C160020FA
S31508004CB00B46034902460868816800F0B7B900BF89
S31508004CC0A0150020002310B504468360818119468B
S31508004CD04366C28108228361C0E90033C0E9043310
S31508004CE05C3001F02AF80D4B246263620C4BA36218
S31508004CF00C4BE3620C4B23630C4B9C4206D003F12E
S31508004D006802944202D0D0339C4205D104F158007F
S31508004D10BDE8104001F019B810BD00BF795C000865
S31508004D209B5C0008D35C0008F75C0008F0130020C1
S31508004D30024A0349034800F0E2BF00BFF01500200D
S31508004D40CB600008A415002041680C4B994210B5A9
S31508004D50044601D001F0B9F9A168094B994202D07D
S31508004D60204601F0B2F9E168064B994204D0204684
S31508004D70BDE8104001F0A9B910BD00BFF01300202E
S31508004D8058140020C014002010B50B4B04210B4CFE
S31508004D900B4A20461A600022FFF794FF04F16800C8
S31508004DA001220921FFF78EFF04F1D0000222122109
S31508004DB0BDE81040FFF786BF28150020F013002035
S31508004DC0314D0008014800F0C1BF00BF631500203F
S31508004DD0014800F0BCBF00BF6315002010B50446AB
S31508004DE0FFF7F0FF236A1BB1BDE81040FFF7F0BFDD
S31508004DF0044B2362044B1B68002BF5D1FFF7C4FF55
S31508004E00F2E700BF494D0008281500202DE9F743B1
S31508004E101D46574B04460E461F68904627B13B6A07
S31508004E2013B93846FFF7DAFFB8F1020F06D0B8F122
S31508004E30010F00F29980002DC0F29680636ED907A3
S31508004E4005D4A3899A0502D4A06D00F07FFF2146F8
S31508004E50384601F03AF9616B41B104F144039942CD
S31508004E6002D0384600F098F8002363630023A36154
S31508004E706360A3891B0603D52169384600F08CF8C0
S31508004E80A389B8F1020F23F44A6323F00303A3812D
S31508004E9060D001AB6A462146384600F059FFA3891F
S31508004EA01843A0812DBB009D284600F069FB0646E5
S31508004EB0002851D1DDF80090A9453FD14FF0FF35C4
S31508004EC0B4F90C3043F00202A2810022A26004F178
S31508004ED047022260226101226261626ED60704D40B
S31508004EE0980502D4A06D00F032FF284603B0BDE84D
S31508004EF0F083002ED8D03B6A13B93846FFF76EFF09
S31508004F00B8F1010F266002BFA38943F00103A3810C
S31508004F10B4F90C3013F00802C4E904651ED0D907A9
S31508004F2045BF00226D42A560A26048BFA561626EBA
S31508004F30D20701D49B0513D50025D6E7484600F0CD
S31508004F401FFB06460028B9D0A3894D4643F08003C7
S31508004F50A381D0E70025B3E7A946F5E7A260E6E70F
S31508004F60A06D00F0F4FEE7E74FF0FF35BDE700BFA0
S31508004F70A015002038B50446064D084611460022FD
S31508004F802A601A46FEF7BAFE431C02D12B6803B103
S31508004F90236038BD2C15002038B50546002941D0B8
S31508004FA051F8043C0C1F002BB8BFE41800F0D0FBE6
S31508004FB01D4A136833B9636014602846BDE8384053
S31508004FC000F0CCBBA34208D9206821188B4201BF48
S31508004FD019685B6809182160EDE71A465B680BB12A
S31508004FE0A342FAD911685018A0420BD1206801448F
S31508004FF0501811608342E0D118685B680844536012
S315080050001060DAE702D90C232B60D6E7206821184E
S315080050108B4202BF19685B680918636008BF216084
S315080050205460CAE738BD00BF341500202DE9F04F9B
S315080050300D469DB014469846064618B1036A0BB944
S31508005040FFF7CCFE6B6ED90705D4AB899A0502D457
S31508005050A86D00F07BFEAB891B0701D52B699BB9B0
S315080050602946304600F0FAF870B16B6EDC0704D5B5
S315080050704FF0FF301DB0BDE8F08FAB899805F7D427
S31508005080A86D00F064FEF3E70023CDF80C804FF01E
S315080050900109DFF8B481099320238DF829303023DC
S315080050A08DF82A3023469A4613F8012B0AB1252A89
S315080050B0F9D1BAEB040B0BD05B462246294630469B
S315080050C000F0BEFE013000F0A780099A5A44099202
S315080050D09AF80030002B00F09F8000234FF0FF3233
S315080050E00AF1010A049307938DF853301A93CDE910
S315080050F0052354460522544814F8011B01F00DF8FF
S31508005100049AD8B9D10644BF20238DF85330130723
S3150800511044BF2B238DF853309AF800302A2B15D02C
S31508005120079A544600204FF00A0C214611F8013B15
S31508005130303B092B4BD9B0B1079214E0A0EB08031A
S31508005140A24609FA03F313430493D2E7039B191DF6
S315080051501B68002B0391BBBF5B4242F00202079318
S315080051600793B8BF049223782E2B0AD163782A2B8B
S3150800517032D1039B02341A1D1B6843EAE373039278
S315080051800593DFF8D4A003222178504600F0C5FF26
S3150800519038B1A0EB0A004022049B01348240134335
S315080051A0049314F8011B062228488DF8281000F0ED
S315080051B0B4FF00283FD0264B1BBB039B073323F0C5
S315080051C0070308330393099B3B4409936AE70CFBDF
S315080051D002320C460120A8E7002301344FF00A0CDE
S315080051E019460593204610F8012B303A092A03D9A7
S315080051F0002BC6D00591C4E70CFB01210446012308
S31508005200F0E703AB2A4604A930460093114BAFF3E7
S3150800521000800746781CD6D16B6ED90705D4AB89B2
S315080052209A0502D4A86D00F092FDAB895B063FF59E
S315080052301FAF09981EE703AB2A4604A93046009318
S31508005240044B00F061F8E4E7727300087C73000809
S3150800525000000000415E00087873000838B5294B45
S3150800526005460C46186818B1036A0BB9FFF7B6FD70
S31508005270B4F90C30190722D4DA0607D409222A60B1
S3150800528043F040034FF0FF30A38133E0580712D5AF
S31508005290616B41B104F14403994202D02846FFF7F5
S315080052A07BFE00236363A38923F02403A3810023E1
S315080052B0636023692360A38943F00803A3812369F4
S315080052C04BB9A38903F42073B3F5007F03D02146B5
S315080052D0284600F062FDB4F90C3013F001020AD03A
S315080052E00022A26062695242A261226942B913F0A1
S315080052F08000C5D138BD990758BF6269A260F4E736
S315080053000020F7E7A01500202DE9FF470F7E9146FC
S3150800531080460C46782F9A460C9E01F1430207D820
S31508005320622F0AD8002F00F0DD80582F00F0C380C6
S3150800533004F1420684F842703AE0A7F16303152B9C
S31508005340F6D801A151F823F0A1530008B553000877
S31508005350315300083153000831530008315300080F
S31508005360B55300083153000831530008315300087B
S3150800537031530008CB5400084354000883540008EE
S315080053803153000831530008ED5400083153000822
S315080053904354000831530008315300088B54000861
S315080053A033681A1D1B68326004F1420684F84230DD
S315080053B00123A8E031682368081D30601E0601D560
S315080053C00D6803E05D06FBD5B1F90050002D616854
S315080053D078DA2D200029A16084F843002DDA6D4281
S315080053E05D480A231646B5FBF3F103FB1157C75D63
S315080053F006F8017D2F460D46BB42F4D9082B0BD182
S315080054002368DF0708D5236961689942DEBF302320
S3150800541006F8013C06F1FF36921B22614B4603AAA9
S3150800542021464046CDF800A000F05AFD01306FD164
S315080054304FF0FF3004B0BDE8F08723F00403236083
S31508005440CDE721683368080653F8045B02D4490699
S3150800545048BFADB26F2F33603F4814BF0A230823F5
S31508005460002184F843106668002EA660BADB21681E
S3150800547021F004012160002DB4D1002EB2D11646C8
S31508005480BCE7236843F02003236078273348236862
S3150800549084F845701F06316851F8045B02D45F062C
S315080054A048BFADB23160D90744BF43F0200323603B
S315080054B01DB11023D4E72848E9E7236823F0200321
S315080054C02360F6E724480A23CDE733682568181DC4
S315080054D0616930602E061B6801D5196002E068060E
S315080054E0FBD5198000231646236197E73368002108
S315080054F01A1D32601E686268304600F00EFE08B15A
S31508005500801B606063682361002384F8433085E765
