S019000030392D54696D65722D696E746572727570742E7333372A
S3150800000000100020850500084D4A00084D4A0008E2
S315080000104D4A00084D4A00084D4A00084D4A000856
S315080000204D4A00084D4A00084D4A00084D4A000846
S315080000304D4A00084D4A00084D4A00084D4A000836
S315080000404D4A00084D4A00084D4A00084D4A000826
S315080000504D4A00084D4A00084D4A00084D4A000816
S315080000604D4A000891030008334A00084D4A000823
S315080000704D4A00084D4A00084D4A00084D4A0008F6
S315080000804D4A00084D4A00084D4A00084D4A0008E6
S315080000904D4A0008410D00084D4A00084D4A00081F
S315080000A04D4A000881090008610900084D4A000800
S315080000B04D4A00084D4A00084D4A00084D4A0008B6
S315080000C04D4A00084D4A00084D4A00084D4A0008A6
S315080000D04D4A00084D4A00084D4A00084D4A000896
S315080000E04D4A00084D4A00084D4A00084D4A000886
S315080000F04D4A00084D4A00084D4A00084D4A000876
S315080001004D4A00084D4A00084D4A00084D4A000865
S315080001104D4A00084D4A00084D4A00084D4A000855
S315080001204D4A00084D4A00084D4A00084D4A000845
S315080001304D4A00084D4A00084D4A00084D4A000835
S315080001404D4A00084D4A00084D4A0008BD580008A7
S315080001504D4A00084D4A00084D4A00084D4A000815
S315080001604D4A00084D4A00084D4A00084D4A000805
S31508000170013800D0FCE770470348044B834202D09D
S31508000180034B03B1184770471416002014160020B5
S3150800019000000000064B0749C91A891048BF0131FB
S315080001A0491003D0044B0BB101481847704700BFEC
S315080001B014160020141600200000000010B5064C86
S315080001C0237843B9FFF7D8FF044B13B10448AFF3BC
S315080001D000800123237010BD3815002000000000A0
S315080001E05C62000808B5054B1BB105490548AFF325
S315080001F00080BDE80840FFF7CDBF00BF0000000043
S31508000200001000205C620008A3F5803A704700BF22
S31508000210174B002B08BF134B9D46FFF7F5FF002130
S315080002208B460F461348144A121A04F073FE0E4BF7
S31508000230002B00D098470D4B002B00D09847002084
S31508000240002104000D000D48002802D00C48AFF329
S31508000250008004F0DDF82000290004F0B6FB04F065
S31508000260C5F800BF000008000000000000000000FC
S315080002700010002000100020681500200000000073
S3150800028000000000014B1B78704700BF391500209D
S31508000290064B1B681A7A022A04D812B11B68044A4C
S315080002A013607047032AF9D0704700BF681500200D
S315080002B01810002070B5244DA8B012AC0FCD0FC48D
S315080002C095E80700292384E80700204A0024CDE999
S315080002D003230523CDE905448DF8153006238DF84B
S315080002E017304FF48023CDE909440B94089319ADD0
S315080002F008AECDE90E44079410940FCE0FC5144BE3
S315080003000DAE2B60134B1EAD0D930FCE0FC52021DE
S31508000310114B12482B60124B12AA2393114B2694A9
S31508000320CDE92413104B19A92793104B009303AB5F
S3150800033003F060FD044618B199210D4804F094FBBA
S31508000340204628B070BD00BF4C59000800C00550B3
S3150800035024C00550020004003CC00550D0100020FF
S315080003603A150020000101007C1500201C10002011
S315080003701859000808B5FFF79DFF28B1BDE80840E1
S31508000380AD21024804F070BB08BD00BF185900082B
S31508000390014803F0E9BD00BFD0100020012208B5CE
S315080003A0074B1A700022074B1A700422064B1A7064
S315080003B01F22064B1A7003F069F8054B186008BD32
S315080003C0061600205A1500200516002004160020DF
S315080003D0EC10002008B5044805F0FBF904F0FFFA14
S315080003E0BDE8084000F008B8C05F0008014805F0FD
S315080003F0F0B900BFC05F00082DE9F047534E96B02C
S31508000400354609AC0FCD0FC42B6806F114052360D9
S315080004100EAC0FCD0FC495E80F00DFF8488184E8CD
S315080004200F004B4805F0D5F9404605F0D2F94FF4D0
S315080004308073484FADF83C30474B38460B9309A9B3
S315080004400EAB0D9302F00AF904210225B6F834A082
S315080004500DEB01000122ADF804A000F0E3F9B6F8AF
S3150800046036900022012102A8ADF8089000F0DAF9CA
S31508000470368F0122042103A8ADF80C6000F0D2F9EA
S315080004800122042104A8354CADF8105000F0CAF931
S31508000490334B4FF44870C4F8C8344FF00213C4F80D
S315080004A0C43403F58033C4F8CC341C23C4F8B434FC
S315080004B003F0E0FD08A8ADF8205000F023FA142058
S315080004C003F0D8FD08A8ADF8205000F0EDF9232078
S315080004D003F0D0FD08A8ADF8205000F013FAB921B2
S315080004E0384604F038FB08A8ADF8205000F0DCF9CF
S315080004F0002205A81146ADF814A000F093F90022D1
S3150800050006A81146ADF8189000F08CF901220021D2
S3150800051007A8ADF81C6000F085F90122002108A89B
S31508000520ADF8205000F07EF9384601F051FF00235F
S315080005304046C4F8B434C4F8C834C4F8C434C4F85B
S31508000540CC3405F049F916B0BDE8F08768590008BB
S31508000550C05F000800000A50E070720000C0035037
S3150800056002000100C45F00080348044A0449121A3D
S31508000570921004F06CBA00BF700100087001000800
S315080005806815002008B5154B83F30A8800F030F883
S31508000590FFF7EAFF124B13498B4212D30020124B86
S315080005A012498B4218D3FFF733FE186850F82240D9
S315080005B0586840F82240013298688242F5D30C33D5
S315080005C0EAE70022F8E71C6844F8220001325C6872
S315080005D0A242F8D30833E4E70022F8E70000002037
S315080005E064620008706200087062000870620008A1
S315080005F04FF48041124B134A70B59A60D3F888209D
S31508000600114D42F47002C3F88820104A05F50054CB
S3150800061091664FF0FF3222660D4A62660222C3F8DF
S31508000620D020BFF34F8FBFF36F8F4FF440360020B3
S3150800063002F0CEFE0020E66002F098FE2E6170BD44
S3150800064000ED00E000000008008000440090005023
S31508000650F7FF3700014B1860704700BF941500205C
S31508000660054B1860054B1B6F03F00703032B01D1DD
S3150800067004F052BD704700BF9C1500200080005052
S3150800068038B504460D4601B118B94521044804F0A9
S31508000690EBF9236813B92B60256038BD1C46F8E7CB
S315080006A0A259000810B5044618B95621044804F0A2
S315080006B0DBF9206818B1036823600023036010BDC6
S315080006C0A2590008002307B52948019305F081F8C7
S315080006D04FF44073012204216846ADF8003000F05B
S315080006E0A1F80122234B0520C3F8442401A905F0EB
S315080006F06BF8002839D1204BD3F8F02042F00102DC
S31508000700C3F8F020D3F8FC2042F08072C3F8FC202E
S315080007101A4AA3F55D431A60019B194A03F5D523C6
S3150800072003F2FC43B3FBF2F3164A013B13610223BF
S31508000730C2F8F0304FF48073C2F804334FF06043C8
S31508000740114AC3F8B02F114AC3F8802ED3F8002EE9
S3150800075042F48072C3F8002EFF2283F82020D3F8D3
S31508000760002E22F48072C3F8002E03B05DF804FB55
S31508000770C05F000800D0035000ED00E0FF03004012
S31508000780F8590D00000004E055CEACC5090001007B
S315080007902DE9F04104460C254FF00108124E0CB322
S315080007A014F001000BD0002024F0010405FB0062C0
S315080007B05768002FF3D09168C0B2B847EFE72246D2
S315080007C0013020284FEA520201D0D307F8D508FA9B
S315080007D000F20F2824EA0204E8D9103805FB006263
S315080007E0B432E5E7BDE8F081F010002008B50C4802
S315080007F004F0EFFF192002F0D3FD28B1192002F00A
S31508000800E7FD192002F0B2FD1A2002F0C9FD28B151
S315080008101A2002F0DDFD1A2002F0A8FD002008BD0E
S31508000820C05F00082DE9F0410E461746044638B960
S3150800083093211A4804F018F922252846BDE8F081C4
S315080008400F290CD8037883B1013BDBB2022B06D8FB
S31508000850134A32F813306278D340DB0707D497215E
S315080008600E4804F001F92125E7E7FF23F3E70D4BCE
S31508000870D3F810532DB19B21084804F0F5F802254A
S31508000880DBE704F09BFF80463A462046314602F0F5
S315080008901BFB404604F08DFFCFE700BFF859000860
S315080008A0525A000800C0035038B5044628B9134800
S315080008B0E42104F0D9F8222038BD037883B1013B3E
S315080008C0DBB2022B06D80E4A32F813306278D340D0
S315080008D0DB0707D40948E82104F0C6F82120EBE72E
S315080008E0FF23F3E704F06AFF0546204604F0EAFC16
S315080008F0284604F05EFF0020DEE700BFF85900082E
S31508000900525A000838B5044628B91348FC2104F0A1
S31508000910ABF8222038BD03788BB1013BDBB2022B42
S3150800092006D80E4A32F813306278D340DB0708D46B
S3150800093009484FF4807104F097F82120EAE7FF236D
S31508000940F2E704F03BFF0546204602F087FA284600
S3150800095004F02FFF0020DDE7F8590008525A000876
S3150800096008B502F0A7FA054B00F0553020F05020E4
S31508000970C3F82004BDE80840FFF70ABF00E00350AB
S3150800098008B502F097FA054B00F0AA3020F0A0202F
S31508000990C3F82004BDE80840FFF7FABE00E003509C
S315080009A02DE9F04F9A46564B85B01B7806460F46FA
S315080009B01546DDF83C909DF844B0DDF85080002BD4
S315080009C000F09780072A00F296800E9B002B00F015
S315080009D09280B9F1000F00F08E80129BB3F5006F7C
S315080009E000F38980012803D1109B002B00F0838037
S315080009F0444B03EB05131B7B002B7ED0424C102285
S31508000A000021684604F086FA04EB45141022A7BBB9
S31508000A103946204604F07EFA43F210036380BBF1A0
S31508000A20000F03D1E37843F00303E370364A0E9BC5
S31508000A3002EB451CCCE90193129B6901581E9DF8EF
S31508000A404C30C0F30A0003F003039B0643EA001E7A
S31508000A5053582E48012E00EA03004EEA0003CDF84B
S31508000A6000A0535017D0B8F1000F2ED19CF80230D1
S31508000A7068F304138CF8023027E00021204604F0BE
S31508000A8049FA4FF444736380BBF1000FCED1E37883
S31508000A9043F03003C9E713230CF1100ECCF80C30E1
S31508000AA09CE80F008EE80F006FF00301DCF81C20AD
S31508000AB0109B61F39F02012FCCF81C20CCF8143050
S31508000AC003D1CCF81890CCF8043000270D4A290138
S31508000AD002EB051342F80180159A28465A606946C2
S31508000AE022469F605E7301F0BBFF384605B0BDE83D
S31508000AF0F08F0748FAE70748F8E70748F6E700BF20
S31508000B005B15002058130020581200200F80FFF3B1
S31508000B10028000F0018000F0078000F038B5124B23
S31508000B2005461B78DBB1E0B104F048FE0F4A002306
S31508000B301146147B54B92B6001251A0101EB0313E6
S31508000B401D738C5004F035FE204638BD0133082B42
S31508000B5002F11002EDD104F02CFE0548F5E7054830
S31508000B60F3E70548F1E700BF5B150020581300209E
S31508000B70048000F0028000F0018000F038B504F02F
S31508000B801DFE002305460B4A147B6CB90133082B5E
S31508000B9002F11002F8D101F0E5FE074B28461C7059
S31508000BA004F007FE204603E0284604F002FE034848
S31508000BB038BD00BF581300205B150020058000F0E3
S31508000BC00D4B10B51B78044693B1072812D804F0CC
S31508000BD0F5FD0A4B03EB04131A7B2AB100241C7398
S31508000BE004F0E7FD204610BD04F0E3FD0448FAE7EB
S31508000BF00448F8E70448F6E75B1500205813002078
S31508000C00068000F0028000F0018000F0154B13B555
S31508000C101868002301908DF8043004F0CFFD124BBC
S31508000C201C7824B104F0C5FD104802B010BD01229D
S31508000C301A7004F0BEFD0E4B01A81C731C7783F8CE
S31508000C402C4083F83C4083F84C4083F85C4083F89A
S31508000C506C4083F87C4008238DF8073001F0B8FE15
S31508000C602046E2E7585A00085B150020038000F08A
S31508000C7058130020F8B50D4D2D7885B1072810DCDE
S31508000C800B4D060105EB0014277B67B1AB51002518
S31508000C90069BA560636001F0E3FE2846F8BD05489B
S31508000CA0FCE70548FAE70548F8E700BF5B150020AA
S31508000CB058130020028000F0018000F0078000F041
S31508000CC00A4A08B512785AB107280BD8084A02EB1F
S31508000CD000131B7B43B1002101F05AFE002008BD1A
S31508000CE00448FCE70448FAE70448F8E75B150020DF
S31508000CF058130020028000F0018000F0078000F001
S31508000D000A4A08B512785AB107280BD8084A02EBDE
S31508000D1000131B7B43B1012101F03AFE002008BDF8
S31508000D200448FCE70448FAE70448F8E75B1500209E
S31508000D3058130020028000F0018000F0078000F0C0
S31508000D40184B2DE9F0411F6D5B6D1F4000D5FEE77E
S31508000D5001260025144CDFF85880374218D023683E
S31508000D60C8F85060A3B1A168284601316268A1603D
S31508000D709847637B012B0BD150B90C4B03EB4513FA
S31508000D801A7B60F341021A731A7F60F341021A77DD
S31508000D900135082D4FEA460604F11004DDD1BDE8F9
S31508000DA0F08100BF0000045058130020581200209C
S31508000DB000200450044BD3F88420D206FBD4D3F881
S31508000DC08400C0F3811070470040005038B5104BBE
S31508000DD00546D3F800310C4603F00303022B0BD06B
S31508000DE0032B0DD0012B0FD104F0B0F9032305B165
S31508000DF0286004B1236038BD04F0FAF90923F6E740
S31508000E0004F0AAF90823F2E701230020EFE700BF60
S31508000E100080005038B5104B0546D3F840310C46D3
S31508000E2003F00303022B0BD0032B0DD0012B0FD19C
S31508000E3004F0B0FC0A2305B1286004B1236038BD6C
S31508000E4004F0D6F90923F6E704F0A7FC0C23F2E729
S31508000E5001230020EFE700BF0080005038B5104B93
S31508000E600546D3F860310C4603F00303022B0BD07A
S31508000E70032B0DD0012B0FD104F08CFC0A2305B1EE
S31508000E80286004B1236038BD04F0B2F90923F6E7F7
S31508000E9004F083FC0C23F2E701230020EFE700BFF0
S31508000EA00080005038B5104B0546D3F840320C4642
S31508000EB003F00303022B0BD0032B0DD0012B0FD10C
S31508000EC004F068FC0A2305B1286004B1236038BD24
S31508000ED004F08EF90923F6E704F05FFC0C23F2E729
S31508000EE001230020EFE700BF0080005038B5124B01
S31508000EF00546D3F880300C4603F00303022B0BD0CB
S31508000F00032B0DD0012B0FD104F0E6F80E2305B103
S31508000F10286004B1236038BD04F022F90723F6E7F8
S31508000F2004F0D4F80623F2E7044841F2142103F04A
S31508000F309BFD00231846EAE7008000505C5A00082B
S31508000F4038B51A4B0546D3F820010C4600F00700C1
S31508000F50062821D8DFE800F028040C1410181C0015
S31508000F6004F0B4F8052305B1286004B1236038BD40
S31508000F7004F0ECF80323F6E704F0F2F80723F2E7A7
S31508000F8004F0E0F80223EEE704F0A0F80623EAE707
S31508000F9004F0DCF80423E6E7054841F2912103F062
S31508000FA063FD00231846DEE70123DCE700800050D6
S31508000FB05C5A000838B5194B0546D3F828310C4653
S31508000FC003F00703013B052B20D8DFE803F00313E2
S31508000FD01B0F0B1704F07AF8052305B1286004B136
S31508000FE0236038BD04F072F80623F6E704F0B8F873
S31508000FF00723F2E704F0AAF80323EEE704F0A6F8BD
S315080010000423EAE704F09EF80223E6E7044841F2DF
S31508001010990103F029FD00231846DEE700800050F9
S315080010205C5A0008002337B50193194B0546D3F8D7
S3150800103020320C4603F00703042B1FD8DFE803F021
S3150800104025030F141900002101A8FFF7B3FF122387
S315080010500DB1019A2A6004B1236003B030BD04F0D3
S315080010607FF807230190F3E704F094FB0A23019025
S31508001070EEE704F0BDF809230190E9E741F25601CD
S31508001080044803F0F1FC0023E2E70123E0E700BF90
S31508001090008000505C5A0008F7B50027144B0197EA
S315080010A0D3F88041064604F00304022C0D4614D0FA
S315080010B0032C0DD0012C14D1394601A8FFF740FFA7
S315080010C010240EB1019B336005B12C6003B0F0BD4E
S315080010D004F046F807240190F3E704F033F801908A
S315080010E0EFE741F2E631034803F0BEFC3C46E8E789
S315080010F0008000505C5A000838B5164B0546D3F8F0
S3150800110000020C4600F00700042819D8DFE800F0B2
S3150800111020030B0F130004F03DFB0A2305B12860DA
S3150800112004B1236038BD04F063F80923F6E704F038
S3150800113034FB0C23F2E703F0EFFF0F23800AEDE7F9
S31508001140054841F2A44103F08FFC00231846E5E761
S315080011500123E3E7008000505C5A000838B5164BB7
S315080011600546D3F808020C4600F00700042819D8EB
S31508001170DFE800F020030B0F130004F00BFB0A2333
S3150800118005B1286004B1236038BD04F031F809239D
S31508001190F6E704F002FB0C23F2E703F0BDFF0F238A
S315080011A0800AEDE7054841F2DC4103F05DFC0023C7
S315080011B01846E5E70123E3E7008000505C5A00087B
S315080011C0002337B50193184B0546D3F860320C4611
S315080011D003F00703013B032B1FD8DFE803F0020ED9
S315080011E01914002101A8FFF7ABFE10230DB1019ACF
S315080011F02A6004B1236003B030BD002101A8FFF7BF
S3150800120009FE1123F2E703F0ABFF07230190EDE790
S3150800121003F098FF02230190E8E741F2FD01034835
S3150800122003F022FC0023E1E7008000505C5A000826
S31508001230002337B50193184B0546D3F894320C466C
S3150800124003F00703013B032B1FD8DFE803F0020E68
S315080012501914002101A8FFF773FE10230DB1019A96
S315080012602A6004B1236003B030BD002101A8FFF74E
S31508001270D1FD1123F2E703F073FF07230190EDE791
S3150800128003F060FF02230190E8E741F230110348BA
S3150800129003F0EAFB0023E1E7008000505C5A0008EF
S315080012A073B500240F4B0194D3F87032064603F049
S315080012B00303012B0D4607D0022B11D041F25B1117
S315080012C0094803F0D1FB04E0214601A8FFF7A2FD77
S315080012D011240EB1019B336005B12C6002B070BDBC
S315080012E01524F6E7008000505C5A000808B5334B11
S315080012F098424FD027D8324B984245D017D8314B11
S3150800130098423ED00AD838B12F4B984239D041F28C
S31508001310BB312E4803F0A8FB002034E02C4B984242
S315080013202FD02C4B9842F2D12B4B586E2BE02B4BDF
S3150800133098422CD003F5371303F5D8639842E6D1C3
S31508001340254B986F1FE0264B98422FD00CD8254B7B
S31508001350984223D0244B984224D0244B9842D6D185
S315080013601D4BD3F884000EE0214B984222D003F59A
S31508001370740303F510539842C9D1174BD3F8980054
S3150800138001E0154B986D08BD134B186FFBE7124B20
S31508001390586FF8E7104BD3F88000F4E70E4BD3F8F4
S315080013A08800F0E70C4BD3F88C00ECE70A4BD3F82F
S315080013B09000E8E7084BD3F89400E4E780BA8C017C
S315080013C0405DC60080841E0040420F005C5A00083B
S315080013D000093D00C0CF6A000080E00F0024F40039
S315080013E0007E560380D54302006CDC020048E80103
S315080013F00090D003B0F5207F10B52ED009D8B0F5EF
S31508001400007F24D003D868B1B0F5C07F0AD0002485
S315080014101BE0B0F5607FFAD1124BD3F88040C4F3D5
S31508001420011412E00F4B1C6F230B13F00E0FC4F3BD
S3150800143003340AD0072C08D00F2C06D0032C04D06E
S315080014404FF42271084803F00FFB601C10BD054BD2
S31508001450D3F89040C4F30464F7E7024B1C6FC4F357
S315080014608024F2E7008000505C5A00084FF480326E
S3150800147038B5104B04469A6600200D46FFF7BAFFAA
S3150800148041F671320C4B6043DC69DA635A6804F43E
S31508001490803422F440125DB90849884294BF00207E
S315080014A00120000502435A600CB10022DA6338BDF8
S315080014B00349F2E70090005000000350005A620208
S315080014C0002D310138B5430904460D460ED140F2C8
S315080014D035310D4803F0C8FA002304F01F0485B11E
S315080014E003F580530122A2401A6038BD012B04D0AF
S315080014F0022B04D040F24331EBE7044BEDE7044BF3
S31508001500EBE703F50053EDE75C5A000864800050EA
S3150800151068800050002130B5B0F5807F85B004465C
S31508001520CDE9001100F0D3803DD85E2833D85E2877
S3150800153033D8DFE800F048323232323232323232D1
S31508001540323232323232323232323232323232326D
S3150800155032323232323248AD48ADBDBDBDBDBDAD09
S31508001560C7516EDD51ADADAD323232323232323222
S31508001570ADADAD81E7AD323232323232323232324D
S31508001580323232BD484848E25151EC9066C2323296
S3150800159032323298480080286AD040F2A441604826
S315080015A003F062FA67E0B0F5D06F00F0A18035D895
S315080015B0B0F5607F77D01AD8B0F5007F5ED005D831
S315080015C0B0F5C07FE9D103F0A7FD53E0B0F5207F61
S315080015D05ED0B0F5407FE0D103F09EFD04464FF49F
S315080015E02070FFF707FFB4FBF0F4640859E0B0F584
S315080015F0B06F67D00AD8B0F5806F59D0B0F5A06F34
S31508001600CBD100216846FFF70DFD34E0B0F5C06F79
S31508001610C3D100216846FFF7FDFB2CE0B0F5106F3B
S315080016206BD00ED8B0F5086F76D0B6D8B0F5E06FA7
S3150800163068D0B0F5F06FB0D100216846FFF70EFC10
S3150800164019E0B0F5406F38D00AD8B0F5206F5ED0F3
S31508001650B0F5286FA1D100216846FFF721FE0AE000
S31508001660B0F5486F99D100216846FFF7E1FD02E021
S3150800167003F032FD0090009805B030BD03F02CFD54
S3150800168005462046FFF7B6FEB5FBF0F50095F2E7EE
S3150800169003F042FD04464FF42070FFF7ABFEB4FB9F
S315080016A0F0F40094E7E701A8FFF720FC019DE8E7BE
S315080016B000216846FFF744FCDDE700216846FFF78E
S315080016C079FCD8E700216846FFF7E6FCD3E74FF038
S315080016D0E02302911B695B0705D503F01DFD029007
S315080016E0029B0093C7E703A902A8FFF793FBF7E756
S315080016F000216846FFF700FDBDE700216846FFF7B1
S315080017002DFDB8E700216846FFF7CCFBB3E70021BB
S315080017106846FFF755FDAEE76846FFF757FBAAE7A9
S315080017205C5A000808B58020FFF7F4FE034B984280
S315080017309EBF4FF48032024B1A6708BD005A6202F8
S3150800174000A000501FB503460020B3F5807F019026
S3150800175000F0C58063D85D2B54D84C2B06D82D2BAA
S3150800176046D8232B2AD840F28951A7E04D3B102BA7
S31508001770F9D801A252F823F0D5180008671700080F
S3150800178067170008671700087F180008671700081A
S31508001790671700082F1900089D1800084318000845
S315080017A02519000867170008671700086717000853
S315080017B0671700086717000839190008243B092B22
S315080017C0D1D801A252F823F0D5180008D518000878
S315080017D0D5180008D5180008D51800086717000896
S315080017E0C5180008671700085F1800080B190008D5
S315080017F03D2B00F085803E2BB5D1002001A9FFF7CF
S3150800180051FB63E0802BAED14E4B1B6F03F00703F1
S31508001810013B032B50D8DFE803F04D46494BB3F59F
S31508001820F06F6DD020D8B3F5B06F4BD00ED8B3F5A6
S31508001830607F73D097D3B3F5806F4BD0B3F5A06FA5
S3150800184091D1002001A9FFF7EDFB3FE0B3F5D06F7A
S315080018505BD0B3F5E06FD0D0B3F5C06F83D100206D
S3150800186001A9FFF7D7FA31E0B3F5206F5FD00BD89F
S31508001870B3F5086F4ED0B3F5106F7FF474AF002040
S3150800188001A9FFF76BFC21E0B3F5406F4AD0B3F529
S31508001890486F51D0B3F5286F7FF465AF002001A9D2
S315080018A0FFF7FEFC12E0052301930FE00323FBE795
S315080018B00823F9E70223F7E740F2D641224803F066
S315080018C0D3F803E0002001A9FFF7E6FB019805B06D
S315080018D05DF804FB002001A9FFF732FBF6E74FF09D
S315080018E0E02302901B695B0705D503F015FC0D2361
S315080018F00393039BD8E703A902A8FFF78BFAF8E737
S31508001900002001A9FFF7AAFAE0E7002001A9FFF7DE
S31508001910F3FBDBE701A9FFF759FAD7E701A9FFF7B8
S31508001920E5FAD3E7002001A9FFF744FBCEE700203C
S3150800193001A9FFF745FCC9E7002001A9FFF778FCD4
S31508001940C4E700BF008000505C5A00084FF480329C
S31508001950074B0849586E03F580535A664B6A23F0BD
S3150800196001034B62C3035CBF034B5A66704700BF53
S315080019700080005000C0075000A0005038B503682A
S3150800198004460F2B04D940F68A317C4803F06CF8DC
S3150800199063680F2B04D940F68D31784803F064F854
S315080019A0A3680F2B04D94FF43961744803F05CF827
S315080019B0237B0F2B04D940F69331704803F054F873
S315080019C0637B0F2B04D940F696316C4803F04CF82C
S315080019D0A37B3F2B04D940F69931684803F044F8B5
S315080019E0E37B3F2B04D940F69C31644803F03CF86E
S315080019F02369032B04D940F69F31604803F034F875
S31508001A006369032B04D940F6A2315C4803F02CF82D
S31508001A10E369032B04D940F6A531584803F024F8A6
S31508001A208020FFF78FFE032800F083804FF4801292
S31508001A30534B4FF0A0615A6645F60E02514BC3F858
S31508001A408020514A91624FF4803102F580529162AA
S31508001A509A6DD203FCD4996D11F08041FBD1D4E97B
S31508001A600002120542EA0062E07B0243207B42EA5A
S31508001A700042607B42EA0032A07B42EA80121A6189
S31508001A809869D4E90452120642EA856200F00040D9
S31508001A900243A07EE57E0243207E42EA0042607E43
S31508001AA042EA00229A611A6AE06922F00F0242EAC3
S31508001AB08502364D00283DD11A6294F82420996A89
S31508001AC094F82000D200294042EA40120A4394F8CA
S31508001AD0211042EA011242F480329A622C49294ABC
S31508001AE0936D31EA0303FBD14FF08071264881627A
S31508001AF01369A56823F4700343EA055313614FF08D
S31508001B000043836194F822300BB9224B996294F80A
S31508001B1023303BB94FF480321E4B9A62194A936DB3
S31508001B205B00FCD494F825301BB1164B1A4AC3F84F
S31508001B30802038BD024342F0080202281A6208D102
S31508001B4019614FF40852996114484FF47F4102F025
S31508001B50C0FF0C4994F822308A6A94F820001B06C4
S31508001B602A4043EA4013134394F8242043EAC20365
S31508001B7094F8232043EA02438B62D3E75C5A0008B1
S31508001B80009000500040005A0050005AC7FFFEFE61
S31508001B90030001000060005AF1A7FFFF3440005A15
S31508001BA0014B93F90000704707160020436810B5EB
S31508001BB0072B044604D940F6E6512A4802F054FF9A
S31508001BC0A368032B04D940F6E851264802F04CFFD7
S31508001BD02378032B04D940F6EA51224802F044FF41
S31508001BE094F90130002B04DA40F6EC511D4802F056
S31508001BF03BFF4FF400011C4A637851664FF4D151FC
S31508001C00022002F5B832516218494F2B48604FF04E
S31508001C10010028BF4F2301F5805148601169C903A7
S31508001C20FCD4217843EA01235361D4E901131B014B
S31508001C3043EA0123617B0B43217B43EA410393601B
S31508001C40E37BA17B1B0143EA4113617C0B43217CA7
S31508001C5043EA41035360A37C13B16FF4D153536233
S31508001C6010BD00BF5C5A00080090005000100250DA
S31508001C70014B1880704700BF02160020014B1880E0
S31508001C80704700BF001600204FF4800208B5184BB5
S31508001C905A660223174A5360936813F48033FBD1BC
S31508001CA0012822D103F052FA134B984215D003F5B6
S31508001CB0122303F5F863984213D0104B00EB800209
S31508001CC0400AB3FBF0F3520A0A49CA620B630123BE
S31508001CD04B620022074B5A6008BD45F67A13084A3C
S31508001CE0F2E745F61A03074AEEE75362F1E700BF43
S31508001CF0009000500040025000F049026466666693
S31508001D00D8B80500BBCF0500B0F5207F38B577D029
S31508001D100ED8B0F5007F61D003D890B3B0F5C07F78
S31508001D202FD04FF44671BDE838403D4802F09CBEBE
S31508001D30B0F5607FF5D13B4A4C1ED2F8FC5015F041
S31508001D4080751EBFD2F8FC3023F08073C2F8FC30D1
S31508001D50032C04D940F2F721314802F085FE324AB5
S31508001D60D2F8803023F0300343EA0413C2F88030F7
S31508001D7035B12C4AD2F8FC3043F08073C2F8FC30F7
S31508001D8038BD4C1E012C0AD9102903D8274BCB4045
S31508001D90DB0704D440F2CB21214802F065FE02F0AD
S31508001DA0A7FE02F0B3FE4FF48031214B1E4A196795
S31508001DB0136F23F4704343EA0433136703F0ACF953
S31508001DC00446FEF7F7FFC0F10201204602F098FE2E
S31508001DD000F048F8BDE83840FFF7A4BC4C1E1F2C9D
S31508001DE004D94FF443710E4802F03EFE0E4AD2F86B
S31508001DF0903023F0F85343EA0463C2F89030BFE703
S31508001E004C1E012C04D940F21231054802F02CFE72
S31508001E10054A136F23F4806343EA84231367AFE705
S31508001E205C5A000800ED00E0008000501001010037
S31508001E300090005008B50121022000F099F94FF4EE
S31508001E402070FFF7D7FA054B187002F051FE02F022
S31508001E505DFE4FF48032024B1A6708BD5C15002000
S31508001E600090005008B54FF4C070FFF753FBBDE86B
S31508001E7008400449884294BF012102214FF420708A
S31508001E80FFF742BF80F0FA0238B5044603F044F97A
S31508001E900546FEF78FFFC0F10201284602F030FE24
S31508001EA00121002000F0B8F92CB1FFF7DBFFBDE8EF
S31508001EB03840FFF737BC034B4FF420701978FFF70B
S31508001EC023FFF4E75C1500202DE9F0410546FFF7EE
S31508001ED00DFA431E0333044604D940F6E2113B4883
S31508001EE002F0C2FD4FF4C022394B5A6603F5983307
S31508001EF05A68012A04D137494A605A689207FCD4BD
S31508001F008020FFF71FFC052807D102F0F1FD02F03B
S31508001F10FDFD4FF480322E4B1A672F4B24F0407488
S31508001F209D4239D02D4B9D4239D003F0CFF88542DA
S31508001F30064603D90121284600F06EF9284FFB68AA
S31508001F4013F0060FFBD1D7F80880BC60BB68634066
S31508001F5013F4F81F26D12846FEF77CFB8020FFF7EE
S31508001F60F1FB052814D103F0D7F8A842044604D992
S31508001F7040F63B21154802F077FDFEF71BFFC0F13E
S31508001F800201204602F0BCFDFFF76CFFFFF7CAFB13
S31508001F90AE4213D2BDE8F08144F00074C5E744F0C0
S31508001FA08074C2E740F62A21084802F05DFD8020C9
S31508001FB0C7F80880FFF7C6FB052805D0BDE8F0413D
S31508001FC00121002000F028B93546CCE75C5A000804
S31508001FD00090005000E0015040420F0080841E002F
S31508001FE0000001504E4B70B59842054673D041D853
S31508001FF0A3F5B703A3F55863984265D033D8494B80
S31508002000494E984251D017D8002877D041F2DE11B0
S31508002010464802F029FD40F68671444802F024FD40
S315080020204FF40022404B5A663E4B9D4276D0002420
S315080020303F4A954236D05DE03D4B984227D03D4B0E
S315080020409842E3D13C4BD3F8A040621E033224F0F9
S3150800205040744CD940F68671344802F005FD4FF4B9
S3150800206000237366E4E7354B9842CFD1324BD3F859
S31508002070BC402CE0324B984231D0324B984232D099
S31508002080314B9842C2D12C4BD3F8C8401FE02A4B9B
S31508002090D3F8A040621E033224F04074DAD84FF415
S315080020A00023736644F0807424E0234BD3F8A040E1
S315080020B0621E033224F040742AD84FF40023736654
S315080020C0234643F0007415E01B4BD3F8B840621E54
S315080020D0154E0332BBE7184BD3F8C040F7E7164B4B
S315080020E0D3F8CC40F3E7144BD3F8D040EFE74FF4DE
S315080020F0002373664FF0B442946070BD40F6867153
S315080021000A4802F0B1FC4FF400232C467366F1E747
S3150800211040F68671054802F0A7FCCEE70023D0E713
S31508002120C0EA210140420F00009000505C5A0008A6
S3150800213080841E0000093D000080E00F0024F400A2
S315080021400048E801005A620280BA8C01024A536BC1
S315080021500342FCD1704700BF00400950034A017989
S31508002160D36E23F030030B43D3667047004000500C
S31508002170F8B50446244BD3F88420D006FBD4D3F80C
S315080021808430C3F381139C423CD002F0A5FF012C96
S3150800219005460BD11D4B984204D940F29B711C4849
S315080021A002F062FC0121284602F0AAFC03F0FDFABF
S315080021B04FF00072174B07465A66204602F0ABFCF2
S315080021C04FF48063104E621E93403367736E9A0114
S315080021D003D4D6F884309B060AD5384603F0E0FACD
S315080021E0022C0FD12846BDE8F840002102F088BC31
S315080021F0D6F884309906E9D540F2B371044802F05E
S3150800220033FCE3E7F8BD00BF00400050005A620205
S31508002210AF5A00080060005010B50C4608B902F025
S315080022205BFF074B21461B783BB1064B984204D807
S315080022300120BDE81040FFF79BBF0220F9E700BF69
S315080022405D150020005A62024FF0004238B5244B53
S31508002250244C5A664AF6CD33656C014605F00105ED
S31508002260236428BB0120FFF771FF6368DB0715D5D8
S315080022701D4B586008461D4B226BD2070CD498425A
S3150800228008D1072415B1174B194A1A6402F044FC01
S31508002290204638BD0130EFE79842F2D00024F1E736
S315080022A00132236B13F0080305D08A42F8D1E8E718
S315080022B000220E49F5E78A42E3D020210A4A9162B4
S315080022C00121A2F5805251600649084A886A8006AB
S315080022D003D49342D5D00133F8E79342DDE700BF34
S315080022E000900050004009500060095040420F001D
S315080022F03254FFFF4FF0004238B5164B01465A6676
S315080023004AF6CD33144C154A656C236443780B2082
S315080023105B0043F00103D363FFF718FF63688A780D
S3150800232023F4F87343EA02136360CA784B7943EAE5
S315080023300223A3600A798B7943EA0223236108788A
S31508002340FFF782FFEB0744BF054B236402F0E4FB6B
S31508002350012038BD00900050004009500040005050
S315080023603254FFFF0F2870B5044605D940F674614C
S31508002370124802F079FB0F244FF00042104B114926
S315080023805D6E03F580535A664AF6CD334E6C80204F
S315080023900B64FFF7DBFE0B6A23F00F0323430B6284
S315080023A0F30744BF084B0B64002DA2BF4FF0004251
S315080023B0064B5A6602F0B0FB70BD00BFAF5A000864
S315080023C000800050004009503254FFFF00A0005022
S315080023D010B502F0A6FB042300F5805100F5005263
S315080023E00B6113610B6113610B6113610B6113615F
S315080023F0202341F2020103610023C3608360416127
S315080024004FF4A0218361836541620549C361036274
S315080024108362C36243630365D164036310BD00BF6F
S31508002420FF3F0D0338B5174B044698420D4607D0B3
S31508002430154B984204D040F26911144802F014FB77
S3150800244025B92046BDE8384002F06BBB012204F5E9
S3150800245080535A6040F6FF71204605F00F0202F0DD
S315080024605CFBA263782102F058FB05F001036A07BA
S3150800247048BF43F00203A26C02F003029A42FAD163
S3150800248038BD00BF0000015B00000A50025B00086F
S31508002490F8B505460C46164622B940F227216B4880
S315080024A002F0E2FA6A4B9D4202D19CB956240DE02D
S315080024B0684B9D4247D040F22A21644802F0D4FA7C
S315080024C044B940F27931614802F0CEFA2046FFF766
S315080024D021F80446AB68D80745D5B44204D24FF470
S315080024E00D715A4802F0C0FAB4FBF6F46F68013C65
S315080024F0FF2C07F0010704D94FF40F71534802F077
S31508002500B3FA24064FB32821284602F006FBAB6C23
S3150800251099071CD1AB6CDA071BD4AE6C16F0020611
S3150800252019D140F24921494802F09EFA284602F09C
S31508002530F8FA2B69314623F07F4323432B61BDE824
S31508002540F840FFF76FBF002CC4D15724BEE7052615
S31508002550ECE70926EAE70626E8E72B6923F07F4336
S3150800256023432B61F8BD6B68012B04D04FF4177118
S31508002570364802F079FAAB6DDB07AB6848BF7600E0
S3150800258003F0E003402B42D009D893B1202B1AD090
S3150800259040F29E21BDE8F8402C4802F065BA602B4F
S315080025A042D0802BF4D106EB4603A34247D8012339
S315080025B00DE0B6EB141F04D94FF42171234802F03D
S315080025C053FA102303E0B6EBD40F1AD80823734343
S315080025D06401B4FBF3F4204F203CB7EBC40F4FEA79
S315080025E0C40604D240F2A921184802F03DFA28464A
S315080025F03E40012102F091FA2E63BDE8F84002F050
S315080026008CBA40F28921114802F02EFADEE7062339
S31508002610B4FBF3F3B34201D30623D8E740F28E2185
S315080026200A4802F021FAF7E7B6EB940F01D804231B
S31508002630CDE740F29321054802F016FAF7E74FF482
S315080026402671024802F010FAB1E700BF025B0008E3
S315080026500000015B00000A50F8FF7F00F8B5774BD1
S31508002660044698420E4606D0754B984203D0E2219E
S31508002670744802F0F9F91EB9E421724802F0F4F937
S31508002680727BB3687AB1704A934203D9E6216D48E2
S3150800269002F0EAF93369C3B1DB7BB3B1E9216948D2
S315080026A002F0E2F911E0694A934203D9EC21654840
S315080026B002F0DAF9336943B11A7F32B1B168644A74
S315080026C05B7F914278D9042B78D86368356923B142
S315080026D040F6FF71204602F020FA2046FFF778FE02
S315080026E02269737BB17B22F087020B43134343F0C5
S315080026F080032361002D63D02369297F23F0F80323
S3150800270043EAC1132978EA7B0B43297943EA411343
S31508002710697A43EA011343EA82132361E068D5E93B
S31508002720053720F0F0403B4320F470200343287B14
S31508002730697B43EA802343EAC133E360A368F07BFD
S3150800274023F00303034343F00103A3606B88A068E7
S3150800275003F4C0430343A360A368687943EA80236C
S31508002760A360AB79EF79606A1B013F0203F070033F
S3150800277007F4E06720F4772020F4EE603B43034338
S31508002780287A000300F4E0400343687F000400F45D
S315080027907020034363626369307B23F00F030343AE
S315080027A063616B89A36141BBC2B1244B9C422ED0A5
S315080027B0234B9C423CD011E0042B86D8F3216EE7CC
S315080027C0A368F27B23F00303134343F00103A360DA
S315080027D06369327B23F00F03134363612046D6E90E
S315080027E00112FFF755FE20463178FFF71BFEA36C52
S315080027F0DB4313F4405FFAD1F8BD104B9C420CD171
S31508002800AB7B144903F00F034B67002AE6D02B7CF9
S31508002810104A03F00F031367E0E7094B9C42DDD12A
S31508002820AB7B0C4903F00F03C1F88030002AD5D0E2
S315080028302B7C084A03F00F03D367CFE70000015B40
S3150800284000000A50025B0008002D310180969800AE
S315080028503F4B4C0000900350032838B504460D46FC
S3150800286005D8094B33F81030CB40DB0704D440F2C7
S315080028708541064802F0F8F8302301225C43044BF0
S31508002880AA401A5138BD00BF025C0008585B000810
S3150800289040D00350032838B504460D4605D8094BE1
S315080028A033F81030CB40DB0704D440F256410648D3
S315080028B002F0DAF8302301225C43044BAA401A518D
S315080028C038BD00BF025C0008585B000840E00350B2
S315080028D003282DE9F04104460D461746984605D8C3
S315080028E01D4B33F81030CB40DB0704D44FF4B071DE
S315080028F01A4802F0B9F837B129462046B8F1000F50
S3150800290020D0FFF7A9FF0F21072D04EB440688BF47
S31508002910A5F108034FEA0616114895BFAB009B00C0
S3150800292004360C3607FA03F29940304402F01DF9D2
S315080029307FB929462046B8F1000F06D0BDE8F04118
S31508002940FFF78ABFFFF7A6FFDDE7BDE8F041FFF70F
S31508002950A1BFBDE8F08100BF025C0008AD5B0008BE
S3150800296030C0035010B5152000F0E2FC0024FF2209
S31508002970064B21465C6520209A625C60FEF7A2FD44
S315080029802146BDE810402120FEF79CBD00000450FA
S31508002990072838B504460D4603DD7721084802F0B6
S315080029A063F81F2C03D99121064802F05DF8064A00
S315080029B0064B002D08BF13460122A2401A6038BDF7
S315080029C00A5C00085E5C0008401004504020045071
S315080029D010B5044618B991211F4802F045F8237826
S315080029E01B0613F0604F03D092211B4802F03CF8F7
S315080029F0E3780F2B03D99521174802F035F8012102
S31508002A002020FEF75FFD01212120FEF75BFD012254
S31508002A10124B15205A60227812069A606178A278BD
S31508002A2042EA01429A61FF229A6200229A631A6474
S31508002A304FF000425A654FF0FF3203F500531A650E
S31508002A4000F0C6FC1520E17800F0D0FCBDE8104087
S31508002A50152000F08BBC00BF0A5C0008000004507B
S31508002A60F8B50126C3B2072805460C46174606FAE6
S31508002A7003F603DDDE21344801F0F6FF1CB9DF2139
S31508002A80314801F0F1FF236823F47C1323F00F0388
S31508002A901BB1E2212C4801F0E7FFA37A1B0413F4CB
S31508002AA07C0F03D0E721284801F0DEFFE37A1B05F7
S31508002AB013F07E6F03D0E921234801F0D5FF237B6D
S31508002AC05B0513F0FE5F03D0EB211F4801F0CCFF36
S31508002AD01E4B27F003071E65AB00226803F1A043CF
S31508002AE003F588235A60302202FB05F0637B00F168
S31508002AF0A04000F580200366E37AA27A1B0543EA24
S31508002B000243227B43EA4253C365076702F056FE37
S31508002B100F4B227A5E6502B11E64627A02B19E6329
S31508002B202279A37943EA0243084A93616179E379F2
S31508002B3043EA014306498B61064B56639E64BDE82A
S31508002B40F84002F036BE00BF0A5C000800200450B8
S31508002B50001004500000045010B50124C3B2072821
S31508002B6004FA03F404DD40F27B11074801F07CFF08
S31508002B7002F024FE054B5A6D22EA04025A659C624D
S31508002B80BDE8104002F015BE0A5C000800000450BB
S31508002B9010B50124C3B2072804FA03F404DD40F291
S31508002BA099110A4801F060FF02F008FE084BDA6A3C
S31508002BB0224208D15B6B9C430CBF0124002402F01F
S31508002BC0F8FD204610BD0024F9E700BF0A5C00089E
S31508002BD00000045070B50125C3B20728044605FA5B
S31508002BE003F504DD4FF4E071094801F03DFF02F0FA
S31508002BF0E5FD3022074B5E6B02FB04335C6E02F088
S31508002C00D8FD35420ABFC4F30A100020013070BD52
S31508002C100A5C000800000450F8B507460C461E4634
S31508002C2015464AB940F25511314801F01DFF24B145
S31508002C30402E09D1062328E021B94FF42070FEF76B
S31508002C4069FC0446402E42D0402E09D87EB1202E7B
S31508002C5017D04FF4CE71BDE8F840254801F004BFFF
S31508002C60602EF6D1B5EB940F3CD804230DE0B5EBF6
S31508002C70141F04D940F287111D4801F0F5FE1023F0
S31508002C8003E0B5EBD40F1CD808235D436B0803EBB0
S31508002C904413B3FBF5F3174D203BB5EBC30F4FEACF
S31508002CA0C30404D240F2B311114801F0DDFE6022DC
S31508002CB007F500539A602C4007F580539E60FC6127
S31508002CC0F8BD4FF4C6710A4801F0CEFEDCE70623CC
S31508002CD0B4FBF3F3AB42ADD240F29111044801F0D4
S31508002CE0C3FEA7E74FF4CB71014801F0BDFEBCE770
S31508002CF0B25C0008F8FF7F0038B50C4B04469842D2
S31508002D000D4604D04FF43971094801F0ADFE012291
S31508002D1004F580535A60EB43934003F00A0363615A
S31508002D20656115B904F50054626038BD00C00550E8
S31508002D30B25C0008124B10B59842044604D040F223
S31508002D405E41104801F090FE012104F58053596058
S31508002D5040F6AA6341F20502636100230A48A360AC
S31508002D60E365E26004F500522361E361E36490647D
S31508002D700348A365844204BF23656365516010BD9B
S31508002D8000C00550B25C0008FFFF01002F4B70B56C
S31508002D90984204460D4604D040F215312C4801F0FD
S31508002DA063FE2046FFF7C6FF012304F580567360CD
S31508002DB0AB7C1BB1A36843F08043A360EB7C4BB1AB
S31508002DC0224B9C4202BF2A7DA3F51033C3F8C821C3
S31508002DD08023F3652A8A6B7B20461343EA891343CB
S31508002DE0E3602B7BD5E90112FFF716FF6B7D1BB15C
S31508002DF0A36843F48033A360AB7D1BB1A36843F497
S31508002E000043A360EB7D2A7E1B07120502F4E0024D
S31508002E1003F0E0431343A3656B7E9A1E012A4FF025
S31508002E20020209D80B49032BC1F8202709D104232C
S31508002E30F3652B78636170BD0749012BC1F820271C
S31508002E40F4E7042204F50053DA65F2E700C00550FA
S31508002E50B25C000800D0035000E0035010B50446E9
S31508002E6020B940F23A21104801F0FEFD2378C3B19B
S31508002E70013BDBB2022B06D80C4A32F813306278D3
S31508002E80D340DB0704D440F23D21074801F0ECFDAE
S31508002E900122637821789A4030235943044B5A50CB
S31508002EA010BDFF23EBE700BF075D0008C25D000801
S31508002EB040E00350034BD3F82424D3F820041040F1
S31508002EC0704700BF00C003502DE9F041037804465F
S31508002ED00D46164613B3013BDBB2022B06D82A4A27
S31508002EE032F813306278D340DB0703D45D212748D4
S31508002EF001F0BAFD264BD3F810331BB160212348E5
S31508002F0001F0B2FD0F2D0BD8DFE805F0363131316F
S31508002F10313131313131313131313131FF23E1E76D
S31508002F20B4211A4801F0A0FD4FF00008204606B368
S31508002F3002F0C8F90F2167782378072F03EB4303BC
S31508002F4088BF083F4FEA0313124895BFBF00BF006A
S31508002F5004330C3308FA07F2B940184401F019FE95
S31508002F6085B9204656B1BDE8F04102F0ABB9A8468E
S31508002F70DCE7FFF773FFDDE7A846DBE7BDE8F041CE
S31508002F80FFF76CBFBDE8F081C25D0008655D00080B
S31508002F9000C0035030C00350054B9A689107FCD413
S31508002FA05A689207F9D4DA69002AF6D1704700BF41
S31508002FB000800A5010B5074C6368DB0704D44FF449
S31508002FC09F71054801F050FD02F0A8F9022323611C
S31508002FD010BD00BF00800A50C85D000808B5FFF79D
S31508002FE0DBFF0122024B03F580514A601A6108BDD6
S31508002FF000800A50044B10B55C68012C03D1FFF71A
S31508003000D9FF024B5C6010BD00800A5000A00A5030
S3150800301038B5074DFFF7C0FF6B680446012B03D18F
S31508003020FFF7E8FFFFF7B8FF2378EB6038BD00BF6E
S3150800303000800A5038B505460C4602F079F9BDB944
S315080030406268237812B1127843EAC203627843EAC7
S315080030504203A26812B1127843EA8213E27843EA7D
S315080030608203226912B1127843EA4223014A936421
S3150800307038BD00BF00800A5030B58D488BB002F0CD
S31508003080A8FB20B14FF44E718A4801F0EDFC6C465E
S31508003090894D0FCD0FC42B68884A2360FF238DF80E
S315080030A00130D2F84C3113F4802340F0F580D2F881
S315080030B050218DF801309DF801306C46FF2B08BF72
S315080030C03F2368467E4D8DF80130FEF76FFD3220AE
S315080030D0FEF7CEFD0FCD0FC40FCD0FC495E8030044
S315080030E084E80300754BD3F84C21120340F1B880ED
S315080030F0A3F5FE431C88B4F5807F28BF8C248DF881
S315080031001940FEF74DFD044484F308046D488DF814
S315080031101840FDF7A5FA6846FEF730FC3220FEF7A0
S31508003120ADFD6948FEF7D0FE6848FEF75BFF6848C4
S3150800313002F04FFB20B140F2CB115E4801F094FC3F
S31508003140644C0020FEF7A0FDFEF774FE236F0020F6
S3150800315023F0070343F003032367FEF795FE236F67
S315080031605D4923F4744323675C4BD3F8FC2012F0C3
S31508003170807279D1D4F8803023F0030343F0010339
S31508003180C4F88030C1F88020524CD4F8203123F09E
S31508003190070343F00203C4F82031D4F8283123F09A
S315080031A0070343F00203C4F82831D4F8803123F02A
S315080031B0030343F00103C4F88031D4F8403123F007
S315080031C0030343F00203C4F84031D4F8603123F016
S315080031D0030343F00203C4F86031D4F8403223F005
S315080031E0030343F00203C4F84032D4F8003223F054
S315080031F0070343F00203C4F80032D4F8083223F078
S31508003200070343F00203C4F80832D4F8703223F0F7
S31508003210030343F00103C4F87032D4F8203223F0D4
S31508003220070343F00103C4F82032FEF78FFB4FF083
S31508003230E0220020136943F004031361D4F86032D6
S3150800324023F0070343F00103C4F86032D4F894323C
S3150800325023F0070343F00103C4F894320BB030BDE2
S31508003260D3F85041E4B24AE7D3F8FC2022F0807242
S31508003270C3F8FC20D4F8802022F0030242F00102B1
S31508003280C4F880200022C1F88020D3F8FC2042F040
S315080032908072C3F8FC2077E74FF07E6393F89C2092
S315080032A093F99C30002BFFF606AF8DF8012002E754
S315080032B0B85F0008FB5E0008745F00080080E00F36
S315080032C0885F0008C017530200B4C404C0EA21018D
S315080032D0BC5F0008008000500090005000ED00E040
S315080032E007B5094B18689A889B7900906846ADF827
S315080032F004208DF80630FEF7FDFF0C20FFF732F8A4
S31508003300002003B05DF804FBB05F000813B5002485
S31508003310064A6846536F43F00103536700948DF8D5
S315080033200440FEF71BFF204602B010BD00400050C7
S315080033304C2810B504460DD801220A49630904F041
S315080033401F04A240203341F82320BFF34F8FBFF359
S315080033506F8F10BD40F22511034801F085FB002C44
S31508003360F7DBE9E700E100E0D45F00084C2810B578
S31508003370044608D801236109074A04F01F04A3403C
S3150800338042F8213010BD4FF49871044801F06CFBE7
S31508003390002CF7DBEEE700BF00E100E0D45F000891
S315080033A04B2810B5044604D940F23B11064801F0F3
S315080033B05BFB064B621153F8220004F01F04E04041
S315080033C0C04300F0010010BDD45F000800E100E032
S315080033D0002808DB01224309034900F01F00824048
S315080033E0603341F82320704700E100E038B500F16A
S315080033F010035C2B04460D4604D94FF4EF710E48B2
S3150800340001F032FB0F2D04D940F2DF110A4801F012
S315080034102BFB60B20028ACBF00F16040074B4FEAB7
S315080034200515EDB2ABBF00F5614000F00F0080F85E
S3150800343000531D5438BD00BFD45F000814ED00E0EA
S3150800344010B502F0BBF90A4B1A786AB901226FF077
S3150800345004041A7002F0ADF9204605210134FFF77D
S31508003460C5FF4C2CF8D110BDBDE8104002F0A1B93B
S315080034705E15002010B5044602F097F9024B1C6051
S3150800348002F08EF9002010BDD813002010B502F006
S315080034908CF9034B1C6802F083F9204610BD00BF67
S315080034A0D813002010B50020144601F087FB022827
S315080034B004D018B1C321024801F0D6FA204610BD3F
S315080034C051600008034B02221868002380681946D9
S315080034D001F066B8A41500203021037D02464B434F
S315080034E003F1A04303F58023D86E07491B6F884272
S315080034F008D113F0020006D0106A136D1B1A584241
S3150800350058417047002070475F150020302337B5B3
S31508003510007D0DF10701434303F1A04303F5802322
S31508003520DD6E1C6F01F08AFE20B140F2F9310848C1
S3150800353001F09AFA9DF8070040B9064B9D4203D15F
S3150800354084F00204C4F3400003B030BD0120FBE759
S31508003550C36000085F15002037B504460DF1070162
S31508003560007D01F06BFE20B140F24441114801F0A4
S315080035707BFA9DF80730A3B1256DD4E912231344CD
S315080035809D4201D8AA4204D940F24F41094801F0A8
S315080035906BFAD4E9120303449D4218BF284603B0C8
S315080035A030BD3022237D534303F1A04303F5802326
S315080035B0DD6EE2E7C36000082DE9F743D0E904347D
S315080035C004F17C07D0F80C90013B06461022002136
S315080035D038469DB2D4F8748001F09CFC104BC5F3B4
S315080035E00A0543EA0513C4E91F39012394F878004C
S315080035F084F88C30C4F884803A460A4B009604F165
S315080036006401FDF737FB38B140F28D31064803B047
S31508003610BDE8F04301F028BA03B0BDE8F08300BF67
S3150800362000001030A1370008C36000082DE9F043F8
S3150800363000F13806044685B010220021304601F014
S3150800364069FC4FF44473534D207DC4E90F556387D5
S31508003650FDF736FB20B140F2CA514F4801F004FA93
S3150800366010220021304601F055FC4FF4447363875D
S315080036703023207DC4E90F55434303F1A04303F5E6
S315080036808023DB6EAB420BD1FDF73AFB002876D0E0
S3150800369040F2D351404805B0BDE8F04301F0E4B923
S315080036A00DF10B0101F0CAFD20B140F2D9513A489B
S315080036B001F0DAF99DF80B30002B63D12046FFF7AD
S315080036C04BFF03A90746207D01F0DAFD20B140F241
S315080036D0E151314801F0C8F9039B002B04DC40F2A4
S315080036E0E3512D4801F0C0F9039B04F11808013B8A
S315080036F01022002140469DB2D4F8109001F00AFC31
S315080037003022237DC5F30A0553432D0145F0407544
S31508003710C4E9065903F1A043276203F580231A6F0B
S3150800372094F82410520862F3410184F82410196FA2
S3150800373094F8242028F0030861F3000284F8242072
S315080037401B6F626A9B0863F39F0248F0020362627A
S315080037506364009432462146104B207DFDF78AFAB1
S3150800376020B140F204610C4801F07EF9207DFDF796
S31508003770C7FA20B14FF4C161074801F075F905B0E1
S31508003780BDE8F08394F844306FF3410384F844307D
S31508003790DFE700BF5F150020C36000084B4C000838
S315080037A038B55569144695F88C3023B940F26A3114
S315080037B00A4801F059F9002305F1900085F88C3084
S315080037C0FCF770FF08B1FFF7F7FE63681BB100212D
S315080037D02046A2689847002038BD00BFC36000088D
S315080037E038B50446007DFDF76BFA20B140F22D414D
S315080037F0084801F039F92046FFF76EFE0546207D98
S31508003800FDF77EFA20B140F23241024801F02CF968
S31508003810284638BDC36000082DE9F04F99460023B5
S3150800382004468DB008910692C9F80030D9F80060B0
S31508003830069B9D1B00F0C580089B9E1900F0C18061
S315080038402046FFF7CDFF8046002840F0BA80204684
S31508003850FFF782FE226D904240F2BC80801A8542B4
S3150800386028BF054694F896A0BAF1000F00F0F2803A
S3150800387001F0A4FF236D079020460993FFF746FE43
S315080038802F46099B834658198342D4F8981040F06E
S31508003890BC80D4E9122313448B4208BFC4F898208D
S315080038A0D4F898108A4201D88B4204D840F2425183
S315080038B08A4801F0D9F8079801F07BFFDA46207D9F
S315080038C0FDF7FEF920B140F28241844801F0CCF8B8
S315080038D0207D0DF12F0101F0B1FC20B140F28641A7
S315080038E07E4801F0C1F82046FFF736FE236D834671
S315080038F098429DF82F3040F2BC8023B140F28E41A9
S31508003900764801F0B1F8A26C236DAEB2934240F04E
S31508003910A880099304F1280823691022002140464B
S31508003920079301F0F7FA3021079B013EE362099BF2
S31508003930C6F30A062363237D36014B4328F00308A2
S3150800394003F1A04346F0407648F0020203F58023CF
S31508003950A6621A67236DD4E912122B440A449342CD
S3150800396008BF0B469342236504D340F2DE415B4809
S3150800397001F07AF8236D9B4505D10123204684F88A
S315080039805430FFF753FE207DFDF7BAF920B140F217
S31508003990F741524801F068F894F896303BB1BAF10D
S315080039A0000F04D0236E112120465B689847D9F88A
S315080039B0003037B1069A3B449342C9F80030FFF409
S315080039C035AFD9F80030002B14BF00201B200DB0EE
S315080039D0BDE8F08FD4E912310B449A4204D340F281
S315080039E06A413E4801F040F8D4E912321344226D88
S315080039F09B1A9D4228BF1D46002D7FF433AF40F227
S31508003A001651364801F030F82CE701335A1E914218
S31508003A1010D1C4F8983013F8012C112A01D0132AB2
S31508003A2014D1013FA2F111014A424A41D04684F815
S31508003A309C2029E713F8012C02F0FD01112906D173
S31508003A40013FB8F1000F3FF41FAFEBE7D04606F889
S31508003A50012B19E72A463046216D01F0EDF92F466C
S31508003A602DE7238DC3F30A12164466F30E13238536
S31508003A7070E7207D93B93023584300F1A04000F544
S31508003A808020426E436EC2F30A1223F4FF432A448F
S31508003A9023F0700343EA021343665BE7104B049472
S31508003AA003930023CDE90153012300935A46236962
S31508003AB0216800F0F4FF20B140F2CB41074800F03E
S31508003AC0D3FF3022237D534303F1A04303F580231C
S31508003AD05A6E22F480125A663CE700BFC36000089B
S31508003AE04B4C00082DE9F84F90F8943004460D46E3
S31508003AF0002B40F0858090F89580DFF808918E18A5
S31508003B00B54223D094F896306BB12046FFF768FE8D
S31508003B10F8B1D4F89820236D9A4204D040F2CD210A
S31508003B20484600F0A1FF94F89C30002BE8D0236E9D
S31508003B302F462A785B68B8F1000F59D1236E2046C4
S31508003B405B683978013598470028D9D00020BDE848
S31508003B50F88F01F033FE0746207DFDF7B1F820B156
S31508003B6040F2D321274800F07FFF2046FFF7F4FCF8
S31508003B70A26C00F1FF3A924538BFE36C207D3CBF4A
S31508003B8003F1FF3302EB030A94F854B0FDF7B8F8D3
S31508003B9020B140F2DF211B4800F066FFD4F89810E8
S31508003BA0BBF1000F22D0236D8B4204D04FF439713C
S31508003BB0144800F059FF384601F0FBFDB3E7A26C44
S31508003BC09A4202D9E36C013B134499420BD013F88D
S31508003BD00129112A01D0132AF1D1A2F111035A425F
S31508003BE05A4184F89C20C4F898A0E4E75346ECE7C9
S31508003BF00A2AA3D10D212046984700289ED0A5E77A
S31508003C000E20A4E7C3600008F0B50C461546064624
S31508003C10A022002189B0204601F07CF92746AC464F
S31508003C20BCE80F000FC7DCF8003005F1140C3B6048
S31508003C3004F16407BCE80F000FC7DCF80030EA6A35
S31508003C403B60AB6AC4E9132395F83020A36484F873
S31508003C50952095F83320C4F89830012384F89620E7
S31508003C6084F89C3084F85430AB6B2366324B34604E
S31508003C707360324BB360324BF360324B7361324B35
S31508003C80B361324B3361FCF7C1FF10B1304B984238
S31508003C900FD1002107A8FCF741FF014648B9079B49
S31508003CA007A82375FCF73AFF0346207D23B1FCF7E6
S31508003CB087FF102009B0F0BD079B84F87830FCF721
S31508003CC0FFFF0028F5D1234B0494CDE90203E36CEA
S31508003CD00193012300932369A26C2168207D00F0DB
S31508003CE0DEFE0028E5D13022237D4FF480115343B0
S31508003CF042F2640203F1A04303F580239950AB6BAB
S31508003D0093F91000FFF764FBAB6B93F91000FFF70C
S31508003D102DFB04F1900000F0A8FE3046FFF7AAFB41
S31508003D202046FFF783FC207DFCF7EAFF003818BF22
S31508003D3001200001BEE700BFE53A0008BB4C0008B9
S31508003D40193800083F4C0008454C0008593D000842
S31508003D50038000F04B4C000870B50568044695F8DA
S31508003D609460002E3BD100F0CBFFFFF78FFB844217
S31508003D7002D13046FFF77EFB2B6E93F91000FFF752
S31508003D8027FB2B6E93F91000FFF7D2FA287D01F076
S31508003D9035FA20B140F29721144800F065FE287DD7
S31508003DA0FCF70EFF20B140F29B21104800F05CFEA4
S31508003DB0FCF7E4FE38B10E4B984204D040F29F213E
S31508003DC00A4800F051FE0023C4E90033C4E905336C
S31508003DD0E3602B6E2846BDE87040DB68184740F262
S31508003DE06621024800F040FE0F2070BDC36000083F
S31508003DF0058000F0F8B517461C46564A8B6B069D9B
S31508003E001A60554A5A6000229A60544ADA600A468D
S31508003E102946FFF7F9FE0646002840F094802368F5
S31508003E200121C5F8A03063683A20C5F8A430637A42
S31508003E3085F8A930237A85F8A830E37A85F8AB3077
S31508003E40A37A85F8AA30637B85F8AD30237B85F89D
S31508003E50AC30E37B85F8AF30A37B85F8AE30FDF751
S31508003E6031FB01230422617A207AFEF731FD012312
S31508003E700222E17AA07AFEF72BFD01216068FDF7A0
S31508003E8021FB3E7039462068FEF780FF1420617CCE
S31508003E90334B01F1390252019850607A227A03EBCA
S31508003EA0411342EA0042C3F83827E17AA27A42EA85
S31508003EB00142C3F8302785F8B0607B7E032B46D8CD
S31508003EC0DFE803F03943021C022385F8B0300023EB
S31508003ED00422E17BA07BFEF7FBFC0220617C204BE1
S31508003EE001F1B9025201985003EB411341F22C71CA
S31508003EF0E07BA27B42EA00425A501CE0012785F883
S31508003F00B03002220023617B207BFEF7E1FC617B57
S31508003F10227B637C42EA014241F228715B0103F18C
S31508003F20A04303F570335A500422236803F58053DF
S31508003F30DA65002FCBD120680A4A00F5005305211F
S31508003F409A64FEF7D9FE3046F8BD0027D7E7232640
S31508003F50F9E700BF1D4D0008A74D0008314D0008C0
S31508003F6000C00350FFFF0100F421014800F07CBDAA
S31508003F702B6100080346054A0549106803448B422D
S31508003F808CBF4FF0FF301360704700BFA0150020AC
S31508003F900000042070B501F011FC144E0546347873
S31508003FA0FCB9134B1C60134B1C60134B1C6000F0D0
S31508003FB02BF8012001F079FC01F08EFB0F4B02462D
S31508003FC0186020B9284601F0F4FB232070BD23466B
S31508003FD040F2E7310A4800F079F80A4B18600123E5
S31508003FE03370284601F0E5FB0020EFE76215002054
S31508003FF0E4130020E0130020EC130020E81300204F
S3150800400018FCFFFFDC13002010B5002486B014222C
S31508004010214601A88DF8004000F07CFF01231348D3
S315080040208DF8043001F0D5FBBFF34F8F6846FEF7D5
S31508004030EFFF204601A98DF80440FEF7FBFF204656
S315080040400F2101F095F90F21204601F09FF9FEF79F
S31508004050C5FF01F063F9064B43209C61FFF7B8F9E9
S315080040604320FFF783F906B010BD00BFB85F00080C
S3150800407000800A5010B5044601F04EF84FF47A72E3
S315080040809042B0FBF2F105D23621BDE810400C484B
S3150800409000F0EABC0B4BB3FBF1F30B49884201D99C
S315080040A03C21F2E702FB04F0B0FBF3F0022806D944
S315080040B0BDE810400323B0FBF3F0FCF759B810BD78
S315080040C0FB61000840420F00E7CD9A3B53B94AB955
S315080040D0002908BF00281CBF4FF0FF314FF0FF3002
S315080040E000F082B9ADF1080C6DE904CE00F006F8CF
S315080040F0DDF804E0DDE9022304B070472DE9F04F4E
S31508004100099D0C46002B4DD18A420F468446964699
S31508004110B2FA82F360D94BB102FA03FEC3F1200268
S315080041209F4000FA03FC20FA02F217434FEA1E46A4
S315080041301FFA8EF44FEA1C42B7FBF6F106FB11771D
S3150800414001FB04F042EA0742904208D91EEB02023C
S3150800415001F1FF3702D2904200F231813946121A34
S315080041601FFA8CFCB2FBF6F006FB102200FB04F4E7
S315080041704CEA024C644508D91EEB0C0C00F1FF32E0
S3150800418002D2644500F21E81104640EA0140ACEBBB
S31508004190040C002125B12CFA03F30022C5E90032EC
S315080041A0BDE8F08F8B4205D90DB1C5E900010021A4
S315080041B00846F5E7B3FA83F100294DD1A342C0F0CA
S315080041C0F380904280F0F080064623460846002D8C
S315080041D0E6D0C5E90063E3E7002B40F0A3808A1A1E
S315080041E04FEA1E471FFA8EF60121B2FBF7F407FBCA
S315080041F014204FEA1C4242EA004206FB04F09042B1
S315080042000FD91EEB020204F1FF382CBF4FF001094B
S315080042104FF00009904203D9B9F1000F00F0CC80A5
S315080042204446121A1FFA8CFCB2FBF7F007FB102261
S3150800423000FB06F64CEA024C664508D91EEB0C0C48
S3150800424000F1FF3202D2664500F2B3801046ACEBAD
S31508004250060C40EA04409DE7C1F120068B4004FAAB
S3150800426001FE22FA06F720FA06FCF4408A401F43AC
S315080042704EEA0C0300FA01FE4FEA17484FEA1349C3
S315080042801FFA87FCB4FBF8F008FB104449EA04441B
S3150800429000FB0CF9A1450ED93C1900F1FF3A2CBFD9
S315080042A04FF0010B4FF0000BA14503D9BBF1000FEE
S315080042B000F08B805046A4EB09041FFA83F9B4FB7F
S315080042C0F8F308FB134403FB0CFC49EA0444A44531
S315080042D006D93C1903F1FF3801D2A4457BD84346D9
S315080042E043EA0040A4EB0C04A0FB02984445CC46E4
S315080042F0434602D306D1CE4504D20138B9EB020CA7
S3150800430068EB0703002D6CD0BEEB0C0264EB0304CC
S3150800431022FA01F304FA06F6CC4000211E43C5E949
S3150800432000643DE702FA03FEC3F1200104FA03F232
S3150800433000FA03FCCC404FEA1E4720FA01F11FFAA7
S315080043408EF6B4FBF7F00A4307FB1044110C41EA5A
S31508004350044100FB06F48C420ED91EEB010100F164
S31508004360FF382CBF4FF001094FF000098C4202D9E3
S31508004370B9F1000F2CD04046091B92B2B1FBF7F4F5
S3150800438007FB141142EA014204FB06F1914207D9E0
S315080043901EEB020204F1FF3801D291421ED84446B0
S315080043A0521A44EA004120E7861A64EB0303012007
S315080043B00DE7F44402384AE7023C724431E7023911
S315080043C07244CCE6F4440238DFE602383C4472E72D
S315080043D002387144D0E7023B3C4481E7023C724410
S315080043E0DEE72946DCE600BF704700BF08B5064B86
S315080043F0044613B10021AFF30080044B1B6803B1D8
S315080044009847204600F005FC00000000281500200B
S3150800441070B50D4D00260D4C641BA410A64209D19B
S315080044200B4D00260B4C01F06BFA641BA410A64238
S3150800443005D170BD55F8043B01369847EEE755F8A7
S31508004440043B01369847F2E70C1600200C160020AC
S315080044500C16002010160020002310B504468360B1
S31508004460818119464366C28108228361C0E9003307
S31508004470C0E904335C3000F04DFD0D4B24626362E5
S315080044800C4BA3620C4BE3620C4B23630C4B9C4214
S3150800449006D003F16802944202D0D0339C4205D17B
S315080044A004F15800BDE8104000F03CBD10BD00BF47
S315080044B0534E0008754E0008AD4E0008D14E000850
S315080044C0F0130020024A0349034800F005BD00BF67
S315080044D0F41500207B500008A815002041680C4BF5
S315080044E0994210B5044601D000F0C7FDA168094BF2
S315080044F0994202D0204600F0C0FDE168064B994279
S3150800450004D02046BDE8104000F0B7BD10BD00BF7E
S31508004510F013002058140020C014002010B50B4BCF
S3150800452004210B4C0B4A20461A600022FFF794FF21
S3150800453004F1680001220921FFF78EFF04F1D0007B
S3150800454002221221BDE81040FFF786BF2815002079
S31508004550F0130020C5440008014800F0E4BC00BF81
S3150800456064150020014800F0DFBC00BF6415002078
S3150800457010B50446FFF7F0FF236A1BB1BDE81040EB
S31508004580FFF7F0BF044B2362044B1B68002BF5D1E1
S31508004590FFF7C4FFF2E700BFDD4400082815002036
S315080045A02DE9F7431D46574B04460E461F689046AD
S315080045B027B13B6A13B93846FFF7DAFFB8F1020F9D
S315080045C006D0B8F1010F00F29980002DC0F296804E
S315080045D0636ED90705D4A3899A0502D4A06D00F0A5
S315080045E0A2FC2146384600F048FD616B41B104F152
S315080045F04403994202D0384600F098F800236363D2
S315080046000023A3616360A3891B0603D52169384685
S3150800461000F08CF8A389B8F1020F23F44A6323F05B
S315080046200303A38160D001AB6A462146384600F0F1
S315080046307CFCA3891843A0812DBB009D284600F069
S31508004640CFF80646002851D1DDF80090A9453FD19C
S315080046504FF0FF35B4F90C3043F00202A281002274
S31508004660A26004F147022260226101226261626E41
S31508004670D60704D4980502D4A06D00F055FC284648
S3150800468003B0BDE8F083002ED8D03B6A13B938468C
S31508004690FFF76EFFB8F1010F266002BFA38943F04A
S315080046A00103A381B4F90C3013F00802C4E90465C8
S315080046B01ED0D90745BF00226D42A560A26048BF3B
S315080046C0A561626ED20701D49B0513D50025D6E7EE
S315080046D0484600F085F806460028B9D0A3894D4615
S315080046E043F08003A381D0E70025B3E7A946F5E7A1
S315080046F0A260E6E7A06D00F017FCE7E74FF0FF358C
S31508004700BDE700BFA415002038B50446064D084687
S31508004710114600222A601A46FEF7C4FE431C02D13F
S315080047202B6803B1236038BD2C15002038B5054623
S31508004730002941D051F8043C0C1F002BB8BFE418DF
S3150800474000F026F91D4A136833B9636014602846D9
S31508004750BDE8384000F022B9A34208D920682118DC
S315080047608B4201BF19685B6809182160EDE71A4694
S315080047705B680BB1A342FAD911685018A0420BD155
S3150800478020680144501811608342E0D118685B68BC
S31508004790084453601060DAE702D90C232B60D6E789
S315080047A0206821188B4202BF19685B680918636084
S315080047B008BF21605460CAE738BD00BF3415002021
S315080047C038B50023054D044608462B6000F01FFA4D
S315080047D0431C02D12B6803B1236038BD2C15002079
S315080047E0024B0146186800F025B800BFA415002042
S315080047F070B50F4E0C460546316811B900F0D4F86D
S3150800480030602146284600F0CFF8431C03D14FF00C
S31508004810FF34204670BDC41C24F00304A042F8D01F
S31508004820211A284600F0C0F80130F2D1EFE700BFA0
S31508004830301500202DE9F041CD1C064625F003056C
S3150800484008350C2D38BF0C25002D01DBA94204D9EB
S315080048500C2333600020BDE8F081314F00F098F852
S315080048603B681C4644BB29463046FFF7C1FF431C3C
S31508004870044650D13C682146002941D1002C44D039
S315080048802368304604EB030800F08EF880453CD1D7
S31508004890216830466D1A2946FFF7AAFF013034D041
S315080048A023682B4423603B68002B36D05A68A24203
S315080048B029D100225A600EE02268521B1DD40B2A09
S315080048C016D96119A342256018BF5960636808BFE5
S315080048D0396062514B60304600F060F804F10B0015
S315080048E0231D20F00700C21AB5D01B1AA350B2E741
S315080048F0A3426268DED13A60EDE723466468B1E711
S315080049000C464968B8E71346CEE70C2330463360B1
S3150800491000F044F89EE70560DDE75B60FFDE00BF58
S315080049203415002038B50023064D044608461146BE
S315080049302B6000F06FF9431C02D12B6803B123608A
S3150800494038BD00BF2C15002038B50446064D08466C
S31508004950114600222A601A4600F061F9431C02D16A
S315080049602B6803B1236038BD2C15002038B50446E2
S31508004970064D0846114600222A601A4600F051F9EB
S31508004980431C02D12B6803B1236038BD2C150020C7
S31508004990014800F0C8BA00BF63150020014800F0BE
S315080049A0C3BA00BF6315002038B50023054D044679
S315080049B008462B60FFF7DEFA431C02D12B6803B1C9
S315080049C0236038BD2C150020704708B500F0F2F9B1
S315080049D0FFF7FAFF00F0F0F9FBF754FCFAE7704727
S315080049E0704770477047704708B5FBF7FFFC00F043
S315080049F0DFF8BDE80840FBF7EDBC704708B5FBF7E4
S31508004A0061FEFBF7F3FEBDE8084000F016B808B5EE
S31508004A1000F011F8FEF756FDFBF7ACFCBDE80840C0
S31508004A20FBF736BC7047FBF7B9BC70477047704751
S31508004A307047FBF7ADBC0F20704708B5082000F09B
S31508004A4017F8BDE80840082000F01DB8FEE7002367
S31508004A509A4200D1704710B550F8234041F82340D8
S31508004A6001339A42F8D110BDFEE700230360704770
S31508004A704FF060420123D2F8001E83400B4300200A
S31508004A80C2F8003E70474FF060410122D1F8003E5F
S31508004A90824023EA02030020C1F8003E704710B5A1
S31508004AA088B004460E98009207900D982246069004
S31508004AB09DF8300005900B9804909DF82800039007
S31508004AC00020CDE901300B460121FBF769FF08B04C
S31508004AD010BD70B5054614460E4600F066FE2B68F6
S31508004AE05C4034405C402C60BDE8704000F058BE25
S31508004AF008B500F023FBBDE808400021FCF7B6BC6A
S31508004B000029CCBF01210021FCF7B0BC02214FF4DB
S31508004B102070FDF7F9B870477047436D0B42FCD11A
S31508004B20704708B54368DA0714D58368DB0702D5EA
S31508004B300369D90707D50A2350218363FFF7EDFFD9
S31508004B40836C9A07FCD1012200F500535A6043682A
S31508004B509B07FCD408BD836C5A06FCD54164836C5C
S31508004B601B06FCD5C06B80B2704770B50546144667
S31508004B700E4600F01AFE2B685C4034405C402C6000
S31508004B80BDE8704000F00CBE83695B06FCD5C163C6
S31508004B90704770B5054614460E4600F006FE2B68AB
S31508004BA05C4034405C402C60BDE8704000F0F8BDC5
S31508004BB000F000B800207047FEF75EBA70B50C46E4
S31508004BC0154610B9FEF762FC38B143682BB12A4680
S31508004BD02146BDE8704000681847232070BDF7B528
S31508004BE00D4616461C4648B103B901ACC7685FB105
S31508004BF02346324629460068B84706E0FEF746FCD3
S31508004C0004B901AC0028F1D1232003B0F0BD00207F
S31508004C107047FEE74FF4005300204B6070470020B2
S31508004C20704707B5002001AB0190FFF7D8FF019840
S31508004C30002808BF4FF0FF3003B05DF804FB80F88A
S31508004C409510704790F89500704792F8543037B52C
S31508004C50144633B1936D0BB1D06D9847002384F891
S31508004C60543094F896301BB32046FEF74FFCF8B143
S31508004C70236E132120465B6898471025236E20462D
S31508004C801B680DF10701984778B99DF8073003F0BE
S31508004C90FD02112A05D1A3F111025342534184F8AA
S31508004CA09C30013D15F0FF05E8D12046FEF7BEFC15
S31508004CB0002084F8540003B030BD90F8943070B5E5
S31508004CC005460C46C3B10B69B3F5006F16D800F05C
S31508004CD075FD95F88C30064665614BB1214605F1A0
S31508004CE09000FBF7CDFC304600F063FD002070BD58
S31508004CF02046FEF761FCF6E70E20F8E72120F6E7E6
S31508004D0038B548B10024056800F058FDC5E91644D1
S31508004D1000F04FFD204638BD2220FCE7D0F8A03031
S31508004D209A69120643BF5B6A00200B701B20704706
S31508004D3010B50446D0F8A02093695906FCD500237F
S31508004D4094F8A9101A4694F8A800FDF7C1FD0023A7
S31508004D5094F8AB101A4694F8AA00FDF7B9FD94F832
S31508004D60B030DA0707D5002394F8AD101A4694F840
S31508004D70AC00FDF7ADFD94F8B0309B0707D50023CE
S31508004D8094F8AF101A4694F8AE00FDF7A1FDD4F8D2
S31508004D90A0000021FDF7B0FFD4F8A4000021FCF71D
S31508004DA091FB002010BD08B5D0F8A000FFF7ECFE77
S31508004DB0002008BD00F011B800F033B870477047FE
S31508004DC008B5FFF711FEFFF719FEFFF720FEFFF7FC
S31508004DD029FEBDE80840FFF726BE08B5FFF7EEFF37
S31508004DE0FEF72EFBFEF77CFAFFF7E6FEFEF78EFAD5
S31508004DF0FFF7D0F8FFF7E3FF00F007F8FFF7FDFD30
S31508004E00BDE80840FFF7DCBF704708B5FFF7E8FDC7
S31508004E10FFF7E7FDFFF7E6FDFFF7E5FDFFF7F4FF10
S31508004E2008BD08B5FFF701FEFFF700FEFFF7FFFD17
S31508004E30BDE80840FFF7FCBD0A44431E914200D175
S31508004E40704710B511F8014B914203F8014FF9D19B
S31508004E5010BD10B50C46B1F90E10FFF787FD0028F6
S31508004E60ABBF636DA3891B1823F48053ACBF63657E
S31508004E70A38110BD2DE9F0411F468B8905460C46D6
S31508004E80DB05164605D502230022B1F90E10FFF7F9
S31508004E905BFDA3893246B4F90E10284623F48053E5
S31508004EA0A3813B46BDE8F041FFF72EBC10B50C4682
S31508004EB0B1F90E10FFF748FD431CA38915BF6065BD
S31508004EC023F4805343F48053A38118BFA38110BDF4
S31508004ED0B1F90E10FFF774BC2DE9F843074688466A
S31508004EE014460026D4E90195B9F1010905D52468C7
S31508004EF0002CF7D13046BDE8F883AB89012B07D9DA
S31508004F00B5F90E30013303D029463846C047064363
S31508004F106835E9E702440346934200D1704703F82F
S31508004F20011BF9E770477047704770B50C46B1F931
S31508004F300E1096B0154600291E460CDAA3890021E4
S31508004F4013F0800F14BF40234FF4806300203160B4
S31508004F502B6016B070BD6A46FFF7E4FC0028EDDB4F
S31508004F60019901F47041A1F50053594259414FF492
S31508004F708063EBE7B1F90C202DE9F04117070546E8
S31508004F800C4656D44B68002B02DC0B6C002B3DDD1F
S31508004F90E66A002E3AD0002312F480522F68216A5E
S31508004FA02B6025D0626DA389580705D56368D21A88
S31508004FB0636B0BB1236CD21A216A0023E66A284672
S31508004FC0B047411C24D00023636023692360A3896A
S31508004FD0DA0400D56065616B2F60B9B104F144034A
S31508004FE0994202D02846FFF7A1FB002363630DE030
S31508004FF001232846B047461C0246D4D12B68002B0D
S31508005000D1D01D2B01D0162B2AD12F6000202EE0DF
S315080050102A68B4F90C3042B11D2A01D0162A21D1CA
S315080050200023636023692360D5E7626022692260F2
S31508005030CEE70F69002FE9D093070E680F600CBF03
S315080050404B690023A6EB07088B60B8F1000FDDDD7E
S3150800505043463A46216A2846A66AB047002808DC2D
S31508005060B4F90C3043F040034FF0FF30A381BDE89C
S31508005070F0810744A8EB0008E7E738B50B69054651
S315080050800C4613B90025284638BD18B1036A0BB972
S31508005090FFF76EFAB4F90C30002BF3D0626ED00726
S315080050A004D4990502D4A06DFFF73DFF2846214692
S315080050B0FFF760FF636E0546DA07E4D4A3899B050C
S315080050C0E1D4A06DFFF730FFDDE70000014B18685B
S315080050D0704700BF941500200A4B1B6F03F00703A7
S315080050E0013B032B03D8DFE803F00A030608FEE7B3
S315080050F0054B18687047054BFBE705487047054898
S31508005100704700BF00800050941500209C150020B1
S3150800511080D54302002D310108B5FFF7DDFF054BA9
S315080051201B6FC3F303330133B0FBF3F0024B186074
S3150800513008BD00BF00800050901500200048704749
S3150800514000B4C40400487047002D3101014B1868AB
S31508005150704700BF9C1500200048704780D5430261
S315080051604FF40022184B5A664FF0B4439868C0F3C0
S3150800517004400C280AD8DFE800F00B0909090909D8
S31508005180072119091B1D1F0010487047002070478A
S315080051909B6803F04073B3F1807F11D0B3F1007FB1
S315080051A010D00B4A002B08BF1046704709487047B5
S315080051B009487047094870470948704709487047C1
S315080051C0094870470948704700900050405DC6007E
S315080051D000093D00C0EA210180BA8C010048E801B7
S315080051E0005A62020024F40080841E0040420F0028
S315080051F0014B1868704700BF981500200A4A08B581
S31508005200127852B107280AD8084A02EB00131B7B0A
S315080052103BB1FDF7A1FC002008BD0548FCE70548A1
S31508005220FAE70548F8E700BF5B1500205813002089
S31508005230028000F0018000F0078000F00B4A10B5EC
S3150800524012780C4662B107280CD859B1084A02EB05
S3150800525000131B7B43B1FDF79BFC2070002010BD9B
S315080052600448FCE70448FAE70448F8E75B15002019
S3150800527058130020028000F0018000F0078000F03B
S315080052800B4A10B512780C4662B107280CD859B1EA
S31508005290084A02EB00131B7B43B1FDF79BFC206019
S315080052A0002010BD0448FCE70448FAE70448F8E77C
S315080052B05B15002058130020028000F0018000F0E2
S315080052C0078000F010B5044620B94FF4D87110488D
S315080052D0FFF7CAFB2378C3B1013BDBB2022B06D822
S315080052E00C4A32F813306278D340DB0704D440F214
S315080052F0B3110748FFF7B8FB0122637821789A4073
S3150800530030235943044B5A5010BDFF23EBE700BF27
S31508005310075D0008C25D000840D00350034B5A6879
S31508005320D20702D5DA69002AF9D1704700800A50F7
S3150800533038B9064B5A68D20702D59A6D002AF9D1B0
S3150800534070478C210248FFF78FBB00BF00800A50C8
S31508005350285E000810B9044B5964704740F2C7111B
S315080053600248FFF781BB00BF00900A50285E00087C
S3150800537010B9044B5964704740F203210248FFF7FD
S3150800538073BB00BF00A00A50285E000810B9044B82
S315080053901964704740F23F210248FFF765BB00BF1A
S315080053A000A00A50285E000808B510B9044B186C0E
S315080053B008BD044840F27A21FFF756FB0020F7E7BC
S315080053C000800A50285E000838B504460D46FFF7E7
S315080053D0AFFF14B91DB1012D04D0002001E0034B25
S315080053E0D86C38BD014B186DFBE700BF00800A502A
S315080053F070B506460D461446FFF79AFF16B915B15D
S31508005400012D03D070BD034BDC64FBE7014B1C6523
S31508005410F8E700BF00800A5070B50D46E8B103688A
S3150800542013F4E07F03F03F06C3F3821210D0012A7B
S3150800543013D10B4C9B0603D591210A48FFF714FBA1
S3150800544045B104F5805401230020B340236070BDA4
S31508005450054CEFE704F50054F5E70E20F7E700BF23
S31508005460688000505E5C00086480005030B50E4CC1
S31508005470416123688BB9206083600DE0891A9A68B8
S315080054801D4641616AB113465A698A42F6D935B151
S31508005490A860521A83605A6130BD0025F4E720607F
S315080054A0F7E798608260F7E7E41300200D490B6878
S315080054B0A0B10022A3B1834203D1836822B90B604D
S315080054C003E01A469B68F5E7936083680BB90020EA
S315080054D070475A6941690A445A61F8E722207047B9
S315080054E002207047E413002038B500F0EDF80025D7
S315080054F0084B094C1A682368C31A2AB123B15169A3
